{"project/contracts/VeritasEscrow.sol":{"VeritasEscrow":{"abi":[{"inputs":[{"internalType":"address","name":"tokenAddress","type":"address"},{"internalType":"address","name":"treasuryAddress","type":"address"},{"internalType":"address","name":"reputationAddress","type":"address"}],"stateMutability":"nonpayable","type":"constructor"},{"inputs":[],"name":"AccessControlBadConfirmation","type":"error"},{"inputs":[{"internalType":"address","name":"account","type":"address"},{"internalType":"bytes32","name":"neededRole","type":"bytes32"}],"name":"AccessControlUnauthorizedAccount","type":"error"},{"inputs":[],"name":"EnforcedPause","type":"error"},{"inputs":[],"name":"ExpectedPause","type":"error"},{"inputs":[],"name":"ReentrancyGuardReentrantCall","type":"error"},{"anonymous":false,"inputs":[{"indexed":true,"internalType":"uint256","name":"jobId","type":"uint256"},{"indexed":false,"internalType":"string","name":"evidenceURI","type":"string"}],"name":"DisputeOpened","type":"event"},{"anonymous":false,"inputs":[{"indexed":true,"internalType":"uint256","name":"jobId","type":"uint256"},{"indexed":false,"internalType":"uint256","name":"workerAmount","type":"uint256"},{"indexed":false,"internalType":"uint256","name":"clientRefund","type":"uint256"}],"name":"DisputeResolved","type":"event"},{"anonymous":false,"inputs":[{"indexed":false,"internalType":"uint256","name":"fee","type":"uint256"}],"name":"FeeUpdated","type":"event"},{"anonymous":false,"inputs":[{"indexed":true,"internalType":"uint256","name":"jobId","type":"uint256"}],"name":"JobAccepted","type":"event"},{"anonymous":false,"inputs":[{"indexed":true,"internalType":"uint256","name":"jobId","type":"uint256"}],"name":"JobCancelled","type":"event"},{"anonymous":false,"inputs":[{"indexed":true,"internalType":"uint256","name":"jobId","type":"uint256"}],"name":"JobCompleted","type":"event"},{"anonymous":false,"inputs":[{"indexed":true,"internalType":"uint256","name":"jobId","type":"uint256"},{"indexed":true,"internalType":"address","name":"client","type":"address"},{"indexed":true,"internalType":"address","name":"worker","type":"address"},{"indexed":false,"internalType":"uint256","name":"amount","type":"uint256"}],"name":"JobCreated","type":"event"},{"anonymous":false,"inputs":[{"indexed":true,"internalType":"uint256","name":"jobId","type":"uint256"}],"name":"JobFunded","type":"event"},{"anonymous":false,"inputs":[{"indexed":false,"internalType":"address","name":"account","type":"address"}],"name":"Paused","type":"event"},{"anonymous":false,"inputs":[{"indexed":false,"internalType":"address","name":"reputation","type":"address"}],"name":"ReputationUpdated","type":"event"},{"anonymous":false,"inputs":[{"indexed":true,"internalType":"bytes32","name":"role","type":"bytes32"},{"indexed":true,"internalType":"bytes32","name":"previousAdminRole","type":"bytes32"},{"indexed":true,"internalType":"bytes32","name":"newAdminRole","type":"bytes32"}],"name":"RoleAdminChanged","type":"event"},{"anonymous":false,"inputs":[{"indexed":true,"internalType":"bytes32","name":"role","type":"bytes32"},{"indexed":true,"internalType":"address","name":"account","type":"address"},{"indexed":true,"internalType":"address","name":"sender","type":"address"}],"name":"RoleGranted","type":"event"},{"anonymous":false,"inputs":[{"indexed":true,"internalType":"bytes32","name":"role","type":"bytes32"},{"indexed":true,"internalType":"address","name":"account","type":"address"},{"indexed":true,"internalType":"address","name":"sender","type":"address"}],"name":"RoleRevoked","type":"event"},{"anonymous":false,"inputs":[{"indexed":false,"internalType":"address","name":"treasury","type":"address"}],"name":"TreasuryUpdated","type":"event"},{"anonymous":false,"inputs":[{"indexed":false,"internalType":"address","name":"account","type":"address"}],"name":"Unpaused","type":"event"},{"anonymous":false,"inputs":[{"indexed":true,"internalType":"uint256","name":"jobId","type":"uint256"}],"name":"WorkSubmitted","type":"event"},{"inputs":[],"name":"ADMIN_ROLE","outputs":[{"internalType":"bytes32","name":"","type":"bytes32"}],"stateMutability":"view","type":"function"},{"inputs":[],"name":"ARBITER_ROLE","outputs":[{"internalType":"bytes32","name":"","type":"bytes32"}],"stateMutability":"view","type":"function"},{"inputs":[],"name":"AUTO_CANCEL_TIME","outputs":[{"internalType":"uint256","name":"","type":"uint256"}],"stateMutability":"view","type":"function"},{"inputs":[],"name":"DEFAULT_ADMIN_ROLE","outputs":[{"internalType":"bytes32","name":"","type":"bytes32"}],"stateMutability":"view","type":"function"},{"inputs":[],"name":"MAX_BPS","outputs":[{"internalType":"uint256","name":"","type":"uint256"}],"stateMutability":"view","type":"function"},{"inputs":[{"internalType":"uint256","name":"jobId","type":"uint256"}],"name":"acceptJob","outputs":[],"stateMutability":"nonpayable","type":"function"},{"inputs":[{"internalType":"uint256","name":"jobId","type":"uint256"}],"name":"autoCancel","outputs":[],"stateMutability":"nonpayable","type":"function"},{"inputs":[{"internalType":"uint256","name":"jobId","type":"uint256"}],"name":"completeJob","outputs":[],"stateMutability":"nonpayable","type":"function"},{"inputs":[{"internalType":"address","name":"worker","type":"address"},{"internalType":"uint256","name":"amount","type":"uint256"},{"internalType":"string","name":"metadataURI","type":"string"}],"name":"createJob","outputs":[{"internalType":"uint256","name":"","type":"uint256"}],"stateMutability":"nonpayable","type":"function"},{"inputs":[{"internalType":"uint256","name":"jobId","type":"uint256"}],"name":"fundJob","outputs":[],"stateMutability":"nonpayable","type":"function"},{"inputs":[{"internalType":"bytes32","name":"role","type":"bytes32"}],"name":"getRoleAdmin","outputs":[{"internalType":"bytes32","name":"","type":"bytes32"}],"stateMutability":"view","type":"function"},{"inputs":[{"internalType":"bytes32","name":"role","type":"bytes32"},{"internalType":"address","name":"account","type":"address"}],"name":"grantRole","outputs":[],"stateMutability":"nonpayable","type":"function"},{"inputs":[{"internalType":"bytes32","name":"role","type":"bytes32"},{"internalType":"address","name":"account","type":"address"}],"name":"hasRole","outputs":[{"internalType":"bool","name":"","type":"bool"}],"stateMutability":"view","type":"function"},{"inputs":[{"internalType":"uint256","name":"","type":"uint256"}],"name":"jobs","outputs":[{"internalType":"uint256","name":"id","type":"uint256"},{"internalType":"address","name":"client","type":"address"},{"internalType":"address","name":"worker","type":"address"},{"internalType":"uint256","name":"amount","type":"uint256"},{"internalType":"uint256","name":"feeAmount","type":"uint256"},{"internalType":"uint256","name":"createdAt","type":"uint256"},{"internalType":"uint256","name":"fundedAt","type":"uint256"},{"internalType":"uint256","name":"acceptedAt","type":"uint256"},{"internalType":"uint256","name":"submittedAt","type":"uint256"},{"internalType":"uint256","name":"completedAt","type":"uint256"},{"internalType":"bool","name":"exists","type":"bool"},{"internalType":"enum VeritasEscrow.JobStatus","name":"status","type":"uint8"},{"internalType":"string","name":"metadataURI","type":"string"},{"internalType":"string","name":"evidenceURI","type":"string"}],"stateMutability":"view","type":"function"},{"inputs":[{"internalType":"uint256","name":"jobId","type":"uint256"},{"internalType":"string","name":"evidenceURI","type":"string"}],"name":"openDispute","outputs":[],"stateMutability":"nonpayable","type":"function"},{"inputs":[],"name":"pause","outputs":[],"stateMutability":"nonpayable","type":"function"},{"inputs":[],"name":"paused","outputs":[{"internalType":"bool","name":"","type":"bool"}],"stateMutability":"view","type":"function"},{"inputs":[],"name":"platformFeeBps","outputs":[{"internalType":"uint256","name":"","type":"uint256"}],"stateMutability":"view","type":"function"},{"inputs":[{"internalType":"bytes32","name":"role","type":"bytes32"},{"internalType":"address","name":"callerConfirmation","type":"address"}],"name":"renounceRole","outputs":[],"stateMutability":"nonpayable","type":"function"},{"inputs":[],"name":"reputation","outputs":[{"internalType":"contract IReputation","name":"","type":"address"}],"stateMutability":"view","type":"function"},{"inputs":[{"internalType":"uint256","name":"jobId","type":"uint256"},{"internalType":"uint256","name":"workerAmount","type":"uint256"}],"name":"resolveDispute","outputs":[],"stateMutability":"nonpayable","type":"function"},{"inputs":[{"internalType":"bytes32","name":"role","type":"bytes32"},{"internalType":"address","name":"account","type":"address"}],"name":"revokeRole","outputs":[],"stateMutability":"nonpayable","type":"function"},{"inputs":[{"internalType":"uint256","name":"newFee","type":"uint256"}],"name":"setFee","outputs":[],"stateMutability":"nonpayable","type":"function"},{"inputs":[{"internalType":"address","name":"newTreasury","type":"address"}],"name":"setTreasury","outputs":[],"stateMutability":"nonpayable","type":"function"},{"inputs":[],"name":"stableToken","outputs":[{"internalType":"contract IERC20","name":"","type":"address"}],"stateMutability":"view","type":"function"},{"inputs":[{"internalType":"uint256","name":"jobId","type":"uint256"}],"name":"submitWork","outputs":[],"stateMutability":"nonpayable","type":"function"},{"inputs":[{"internalType":"bytes4","name":"interfaceId","type":"bytes4"}],"name":"supportsInterface","outputs":[{"internalType":"bool","name":"","type":"bool"}],"stateMutability":"view","type":"function"},{"inputs":[],"name":"totalJobs","outputs":[{"internalType":"uint256","name":"","type":"uint256"}],"stateMutability":"view","type":"function"},{"inputs":[],"name":"treasury","outputs":[{"internalType":"address","name":"","type":"address"}],"stateMutability":"view","type":"function"},{"inputs":[],"name":"unpause","outputs":[],"stateMutability":"nonpayable","type":"function"}],"evm":{"bytecode":{"linkReferences":{},"object":"60a0346101ac57601f6123ac38819003918201601f19168301916001600160401b038311848410176101b0578084926060946040528339810103126101ac57610047816101c4565b906100606040610059602084016101c4565b92016101c4565b60017f9b779b17422d0df92223018b32b4d1fa46e071723d6817e2486d003becc55f005560fa600355916001600160a01b0316908115610177576001600160a01b031690811561013f57608052600480546001600160a01b03191691909117905560018054610100600160a81b03191660089290921b610100600160a81b03169190911790556100ef336101d8565b506100f93361024e565b50610103336102e1565b50604051611fb790816103758239608051818181610b5e01528181610bfe01528181610cd901528181610dda015281816110ce015261194e0152f35b60405162461bcd60e51b815260206004820152601060248201526f496e76616c696420747265617375727960801b6044820152606490fd5b60405162461bcd60e51b815260206004820152600d60248201526c24b73b30b634b2103a37b5b2b760991b6044820152606490fd5b5f80fd5b634e487b7160e01b5f52604160045260245ffd5b51906001600160a01b03821682036101ac57565b6001600160a01b0381165f9081525f51602061238c5f395f51905f52602052604090205460ff16610249576001600160a01b03165f8181525f51602061238c5f395f51905f5260205260408120805460ff191660011790553391905f51602061232c5f395f51905f528180a4600190565b505f90565b6001600160a01b0381165f9081525f51602061236c5f395f51905f52602052604090205460ff16610249576001600160a01b03165f8181525f51602061236c5f395f51905f5260205260408120805460ff191660011790553391907fa49807205ce4d355092ef5a8a18f56e8913cf4a201fbe287825b095693c21775905f51602061232c5f395f51905f529080a4600190565b6001600160a01b0381165f9081525f51602061234c5f395f51905f52602052604090205460ff16610249576001600160a01b03165f8181525f51602061234c5f395f51905f5260205260408120805460ff191660011790553391907fbb08418a67729a078f87bbc8d02a770929bb68f5bfdf134ae2ead6ed38e2f4ae905f51602061232c5f395f51905f529080a460019056fe6080806040526004361015610012575f80fd5b5f905f3560e01c90816301ffc9a714611a5c5750806306ba0473146118b6578063180aedf3146117a65780631ace87b31461178957806322dcd13e1461176c578063248a9ca31461173a5780632bfe73ae1461171d5780632f2ff15d146116e057806336568abe1461169a57806336f691c41461143d5780633f4ba83a146113d75780634d104adf1461139d5780635c975abb1461137b57806361d027b31461135357806363b2f3c9146112ba57806369fe0e2d1461123057806375b238fc146111f65780638456cb591461119e5780638d22b8631461102d57806391d1485414610fe5578063a1c0d32f14610d24578063a217fddf14610d08578063a9d75b2b14610cc3578063bdc84ac31461081e578063c4c115231461076f578063c52164c614610742578063d547741f146106fb578063e8f16259146101f5578063f0f44260146101875763fd967f4714610168575f80fd5b3461018457806003193601126101845760206040516127108152f35b80fd5b5034610184576020366003190112610184577f7dae230f18360d76a040c81f050aa14eb9d6dc7901b20fc5d855e2a20fe814d160206101c4611be3565b6101cc611d97565b600480546001600160a01b0319166001600160a01b03929092169182179055604051908152a180f35b50346101845760603660031901126101845761020f611be3565b9060443567ffffffffffffffff81116106f757610230903690600401611bf9565b91610239611f46565b6001600160a01b038116156106c157602435156102568115611d22565b600254935f1985146106ad57600185016002556003549182602435029260243584041417156106ad57604051916101c0830183811067ffffffffffffffff82111761069957906127109160405260018701845233602085015260018060a01b038516604085015260243560608501520460808301524260a08301528360c08301528360e083015283610100830152836101208301526001610140830152600161016083015261018082015260016020946040516103138782611ae7565b8581526101a0840152018352600580855260408085208351815560208401516001820180546001600160a01b039283166001600160a01b0319918216179091559285015160028301805491909216931692909217909155606083015160038201556080830151600482015560a08301519181019190915560c0820151600682015560e082015160078201556101008201516008820155610120820151600980830191909155610140830151600a8301805460ff191691151560ff1691909117815561016084015190918110156106855761ff0082549160081b169061ff001916179055600b810161018083015180519067ffffffffffffffff82116106715761041c8354611aaf565b601f811161062e575b508790601f83116001146105c5579180600c94926101a096948a926105ba575b50508160011b915f199060031b1c19161790555b019101519283519067ffffffffffffffff82116105a65761047a8354611aaf565b601f8111610563575b508590601f8311600114610503579482939495926104f8575b50508160011b915f199060031b1c19161790555b600254604051602435815290916001600160a01b031690339083907f8f4ee83cefe0dfb2f73fe6057bfa5b233fc43358bbb5f5606f444cbd4c5c4f8c908690a4604051908152f35b015190505f8061049c565b90601f19831695848352878320925b8888821061054d57505083600195969710610535575b505050811b0190556104b0565b01515f1960f88460031b161c191690555f8080610528565b6001849582939585015181550194019201610512565b838252868220601f840160051c81019188851061059c575b601f0160051c01905b8181106105915750610483565b828155600101610584565b909150819061057b565b634e487b7160e01b81526041600452602490fd5b015190505f80610445565b8388528888209190601f198416895b8b8282106106185750509260019285926101a09896600c989610610600575b505050811b019055610459565b01515f1960f88460031b161c191690555f80806105f3565b60018596829396860151815501950193016105d4565b838852888820601f840160051c8101918a8510610667575b601f0160051c01905b81811061065c5750610425565b88815560010161064f565b9091508190610646565b634e487b7160e01b87526041600452602487fd5b634e487b7160e01b86526021600452602486fd5b634e487b7160e01b86526041600452602486fd5b634e487b7160e01b84526011600452602484fd5b60405162461bcd60e51b815260206004820152600e60248201526d24b73b30b634b2103bb7b935b2b960911b6044820152606490fd5b5080fd5b50346101845760403660031901126101845761073e60043561071b611bcd565b90610739610734825f525f602052600160405f20015490565b611e06565b611ec6565b5080f35b503461018457806003193601126101845760015460405160089190911c6001600160a01b03168152602090f35b50346101845760203660031901126101845760043561078c611f46565b8082526005602052604082206107af60018060a01b036002830154163314611ca3565b600a810160ff815460081c16600981101561080a5760036107d09114611c67565b61040061ff00198254161790556008429101557f37da35a9cc37616d182b3f359f2fff61f738f090deb49c6a76a9c84c2462ba0e8280a280f35b634e487b7160e01b85526021600452602485fd5b50346101845760403660031901126101845760043560243561083e611d5f565b7fbb08418a67729a078f87bbc8d02a770929bb68f5bfdf134ae2ead6ed38e2f4ae835260208381526040808520335f908152925290205460ff1615610c8c5781835260056020526040832090600a820160ff815460081c16600981101561068557600603610c5857846108c18360038601546108bc81831115611d22565b611d15565b9383610bc8575b84610b28575b84841115610a245760015460028201546001600160a01b0360089290921c82169116813b15610a2057839160448392604051948593849263283da49560e01b84526004840152600560248401525af1908115610a15578391610a00575b5050600180549101546001600160a01b0360089290921c82169116813b156109fc57829160448392604051948593849263283da49560e01b8452600484015260021960248401525af180156109f1576109d4575b5050907f959dc01840aa516bf9407cffa45326c7b6821c48feff7b91eb0c743c8f460fd6926040925b805461ff00191661070017905582519182526020820152a260015f516020611f625f395f51905f525580f35b816109e191949394611ae7565b6109ed5790845f61097f565b8480fd5b6040513d84823e3d90fd5b8280fd5b81610a0a91611ae7565b6106f757815f61092b565b6040513d85823e3d90fd5b8380fd5b60015460028201546001600160a01b0360089290921c82169116813b15610a2057839160448392604051948593849263283da49560e01b8452600484015260041960248401525af1908115610a15578391610b13575b5050600180549101546001600160a01b0360089290921c82169116813b156109fc57829160448392604051948593849263283da49560e01b84526004840152600260248401525af180156109f157610afa575b5050907f959dc01840aa516bf9407cffa45326c7b6821c48feff7b91eb0c743c8f460fd6926040926109a8565b81610b0791949394611ae7565b6109ed5790845f610acd565b81610b1d91611ae7565b6106f757815f610a7a565b600181015460405163a9059cbb60e01b81526001600160a01b0390911660048201526024810186905260208180604481010381867f00000000000000000000000000000000000000000000000000000000000000006001600160a01b03165af18015610a1557610b99575b506108ce565b610bba9060203d602011610bc1575b610bb28183611ae7565b810190611c4f565b505f610b93565b503d610ba8565b600281015460405163a9059cbb60e01b81526001600160a01b0390911660048201526024810185905260208180604481010381867f00000000000000000000000000000000000000000000000000000000000000006001600160a01b03165af18015610a1557610c39575b506108c8565b610c519060203d602011610bc157610bb28183611ae7565b505f610c33565b60405162461bcd60e51b815260206004820152600c60248201526b139bdd08191a5cdc1d5d195960a21b6044820152606490fd5b63e2517d3f60e01b8352336004527fbb08418a67729a078f87bbc8d02a770929bb68f5bfdf134ae2ead6ed38e2f4ae602452604483fd5b50346101845780600319360112610184576040517f00000000000000000000000000000000000000000000000000000000000000006001600160a01b03168152602090f35b5034610184578060031936011261018457602090604051908152f35b5034610f95576020366003190112610f9557600435610d41611d5f565b610d49611f46565b805f52600560205260405f206001810190610d6e60018060a01b038354163314611cdc565b600a81019060ff825460081c166009811015610fd1576004610d909114611c67565b600381015491610e0c610da96004840194855490611d15565b60028401805460405163a9059cbb60e01b81526001600160a01b0391821660048201526024810193909352909591927f00000000000000000000000000000000000000000000000000000000000000009091169190602090849081906044820190565b03815f865af1918215610f8a57610e6293602093610fb6575b5060048054925460405163a9059cbb60e01b81526001600160a01b03909416918401919091526024830152909283919082905f9082906044820190565b03925af18015610f8a57610f99575b50805461ff0019166105001790554260099190910155600154905460089190911c6001600160a01b039081169116813b15610f95575f9160448392604051948593849263283da49560e01b84526004840152600a60248401525af18015610f8a57610f75575b506001549054839160081c6001600160a01b039081169116813b156109fc57829160448392604051948593849263283da49560e01b84526004840152600260248401525af180156109f157610f60575b50807f02244c8529cb95e213ee542e76e7776342b3dabd10203d01472bbf4441be892991a260015f516020611f625f395f51905f525580f35b81610f6a91611ae7565b6106f757815f610f27565b610f829193505f90611ae7565b5f915f610ed7565b6040513d5f823e3d90fd5b5f80fd5b610fb19060203d602011610bc157610bb28183611ae7565b610e71565b610fcc90843d8611610bc157610bb28183611ae7565b610e25565b634e487b7160e01b5f52602160045260245ffd5b34610f95576040366003190112610f9557610ffe611bcd565b6004355f525f60205260405f209060018060a01b03165f52602052602060ff60405f2054166040519015158152f35b34610f95576020366003190112610f9557600435611049611d5f565b611051611f46565b805f52600560205260405f20600a8101805460ff81161561116b5760ff9061108660018060a01b036001860154163314611cdc565b60081c166009811015610fd157600161109f9114611c67565b60038201546040516323b872dd60e01b815233600482015230602482015260448101919091526020816064815f7f00000000000000000000000000000000000000000000000000000000000000006001600160a01b03165af18015610f8a5761114e575b5061020061ff00198254161790556006429101557f9033fdbde83e5ac011bb056ee12acd7656d1e63de51cd2ec958e95b85f0b87a45f80a260015f516020611f625f395f51905f5255005b6111669060203d602011610bc157610bb28183611ae7565b611103565b60405162461bcd60e51b815260206004820152600b60248201526a4a6f62206d697373696e6760a81b6044820152606490fd5b34610f95575f366003190112610f95576111b6611d97565b6111be611f46565b600160ff19815416176001557f62e78cea01bee320cd4e420270b5ea74000d11b0c9f74754ebdbfc544b05a2586020604051338152a1005b34610f95575f366003190112610f955760206040517fa49807205ce4d355092ef5a8a18f56e8913cf4a201fbe287825b095693c217758152f35b34610f95576020366003190112610f955760043561124c611d97565b6103e88111611286576020817f8c4d35e54a3f2ef1134138fd8ea3daee6a3c89e10d2665996babdf70261e2c7692600355604051908152a1005b60405162461bcd60e51b815260206004820152600c60248201526b08ccaca40e8dede40d0d2ced60a31b6044820152606490fd5b34610f95576020366003190112610f95576004356112d6611f46565b805f52600560205260405f206112f960018060a01b036002830154163314611ca3565b600a810160ff815460081c166009811015610fd157600261131a9114611c67565b61030061ff00198254161790556007429101557f41b257db0edd32d58f10d15f1fee2dc582823c2c362ad4dc0f8f0ed4e6f420005f80a2005b34610f95575f366003190112610f95576004546040516001600160a01b039091168152602090f35b34610f95575f366003190112610f9557602060ff600154166040519015158152f35b34610f95575f366003190112610f955760206040517fbb08418a67729a078f87bbc8d02a770929bb68f5bfdf134ae2ead6ed38e2f4ae8152f35b34610f95575f366003190112610f95576113ef611d97565b60015460ff81161561142e5760ff19166001557f5db9ee0a495bf2e6ff9c91a7834c1ba4fdd244a5e8aa4e537bd38aeae4b073aa6020604051338152a1005b638dfc202b60e01b5f5260045ffd5b34610f95576040366003190112610f955760043560243567ffffffffffffffff8111610f9557611471903690600401611bf9565b9061147a611f46565b805f52600560205260405f2060018060a01b0360018201541633148015611684575b1561165057600a81019060ff825460081c16916009831015610fd1576114c66004600c9414611c67565b805461ff001916610600179055835193910167ffffffffffffffff841161163c576114f18154611aaf565b601f81116115f7575b50602093601f811160011461157157908161156193927fa70b5640b40d2ffc2d02b31c5c2b5156808f6bfcb9e4f711ac6bb2fa923babd995965f91611566575b508160011b915f199060031b1c19161790555b604051918291602083526020830190611ba9565b0390a2005b90508301518761153a565b601f198116825f52855f20905f5b8181106115df5750916001917fa70b5640b40d2ffc2d02b31c5c2b5156808f6bfcb9e4f711ac6bb2fa923babd9969782611561979695106115c7575b5050811b01905561154d565b8501515f1960f88460031b161c1916905587806115bb565b8588015183556020978801976001909301920161157f565b815f5260205f20601f860160051c81019160208710611632575b601f0160051c01905b81811061162757506114fa565b5f815560010161161a565b9091508190611611565b634e487b7160e01b5f52604160045260245ffd5b60405162461bcd60e51b815260206004820152600c60248201526b155b985d5d1a1bdc9a5e995960a21b6044820152606490fd5b5060028101546001600160a01b0316331461149c565b34610f95576040366003190112610f95576116b3611bcd565b336001600160a01b038216036116d1576116cf90600435611ec6565b005b63334bd91960e11b5f5260045ffd5b34610f95576040366003190112610f95576116cf6004356116ff611bcd565b90611718610734825f525f602052600160405f20015490565b611e3e565b34610f95575f366003190112610f9557602060405162093a808152f35b34610f95576020366003190112610f955760206117646004355f525f602052600160405f20015490565b604051908152f35b34610f95575f366003190112610f95576020600354604051908152f35b34610f95575f366003190112610f95576020600254604051908152f35b34610f95576020366003190112610f95576004355f52600560205260405f20805490600160a01b6001900360018201541690600160a01b60019003600282015416916003820154600483015460058401546006850154600786015490600887015492600988015494600a890154968760081c60ff169a600b8b0161182990611b09565b9a600c0161183690611b09565b99604051809e81526020015260408d015260608c015260808b015260a08a015260c089015260e088015261010087015261012086015260ff1615156101408501526009831015610fd1576118a36118b29285946101608601526101c06101808601526101c0850190611ba9565b908382036101a0850152611ba9565b0390f35b34610f95576020366003190112610f95576004356118d2611d5f565b805f52600560205260405f20600a81019060ff825460081c166009811015610fd157600203611a2a57600681015462093a808101809111611a16574211156119e557600181015460039091015460405163a9059cbb60e01b81526001600160a01b0390921660048301526024820152602081806044810103815f7f00000000000000000000000000000000000000000000000000000000000000006001600160a01b03165af18015610f8a576119c8575b50805461ff0019166108001790557f58243f872c550ad02802199ade99eb4250f6bb19e9abbf2d3de7b969c0eb5e4f5f80a260015f516020611f625f395f51905f5255005b6119e09060203d602011610bc157610bb28183611ae7565b611983565b60405162461bcd60e51b8152602060048201526009602482015268546f6f206561726c7960b81b6044820152606490fd5b634e487b7160e01b5f52601160045260245ffd5b60405162461bcd60e51b815260206004820152600a602482015269139bdd08199d5b99195960b21b6044820152606490fd5b34610f95576020366003190112610f95576004359063ffffffff60e01b8216809203610f9557602091637965db0b60e01b8114908115611a9e575b5015158152f35b6301ffc9a760e01b14905083611a97565b90600182811c92168015611add575b6020831014611ac957565b634e487b7160e01b5f52602260045260245ffd5b91607f1691611abe565b90601f8019910116810190811067ffffffffffffffff82111761163c57604052565b9060405191825f825492611b1c84611aaf565b8084529360018116908115611b875750600114611b43575b50611b4192500383611ae7565b565b90505f9291925260205f20905f915b818310611b6b575050906020611b41928201015f611b34565b6020919350806001915483858901015201910190918492611b52565b905060209250611b4194915060ff191682840152151560051b8201015f611b34565b805180835260209291819084018484015e5f828201840152601f01601f1916010190565b602435906001600160a01b0382168203610f9557565b600435906001600160a01b0382168203610f9557565b81601f82011215610f955780359067ffffffffffffffff821161163c5760405192611c2e601f8401601f191660200185611ae7565b82845260208383010111610f9557815f926020809301838601378301015290565b90816020910312610f9557518015158103610f955790565b15611c6e57565b60405162461bcd60e51b815260206004820152600d60248201526c496e76616c696420737461746560981b6044820152606490fd5b15611caa57565b60405162461bcd60e51b815260206004820152600a6024820152692737ba103bb7b935b2b960b11b6044820152606490fd5b15611ce357565b60405162461bcd60e51b815260206004820152600a602482015269139bdd0818db1a595b9d60b21b6044820152606490fd5b91908203918211611a1657565b15611d2957565b60405162461bcd60e51b815260206004820152600e60248201526d125b9d985b1a5908185b5bdd5b9d60921b6044820152606490fd5b60025f516020611f625f395f51905f525414611d885760025f516020611f625f395f51905f5255565b633ee5aeb560e01b5f5260045ffd5b335f9081527f7d7ffb7a348e1c6a02869081a26547b49160dd3df72d1d75a570eb9b698292ec602052604090205460ff1615611dcf57565b63e2517d3f60e01b5f52336004527fa49807205ce4d355092ef5a8a18f56e8913cf4a201fbe287825b095693c2177560245260445ffd5b5f8181526020818152604080832033845290915290205460ff1615611e285750565b63e2517d3f60e01b5f523360045260245260445ffd5b5f818152602081815260408083206001600160a01b038616845290915290205460ff16611ec0575f818152602081815260408083206001600160a01b0395909516808452949091528120805460ff19166001179055339291907f2f8788117e7eff1d82e926ec794901d17c78024a50270940304540a733656f0d9080a4600190565b50505f90565b5f818152602081815260408083206001600160a01b038616845290915290205460ff1615611ec0575f818152602081815260408083206001600160a01b0395909516808452949091528120805460ff19169055339291907ff6391f5c32d9c69d2a47ea670b442974b53935d1edc7fd64eb21e047a839171b9080a4600190565b60ff60015416611f5257565b63d93c066560e01b5f5260045ffdfe9b779b17422d0df92223018b32b4d1fa46e071723d6817e2486d003becc55f00a26469706673582212204ac115994faa69fc929848be04fc3affff89f53f4d28469711c241036420e92564736f6c634300081c00332f8788117e7eff1d82e926ec794901d17c78024a50270940304540a733656f0d89777fffb7045c97177d1161cd08d871365cb73d0b18f242761255a7718434cf7d7ffb7a348e1c6a02869081a26547b49160dd3df72d1d75a570eb9b698292ecad3228b676f7d3cd4284a5443f17f1962b36e491b30a40b2405849e597ba5fb5","opcodes":"PUSH1 0xA0 CALLVALUE PUSH2 0x1AC JUMPI PUSH1 0x1F PUSH2 0x23AC CODESIZE DUP2 SWAP1 SUB SWAP2 DUP3 ADD PUSH1 0x1F NOT AND DUP4 ADD SWAP2 PUSH1 0x1 PUSH1 0x1 PUSH1 0x40 SHL SUB DUP4 GT DUP5 DUP5 LT OR PUSH2 0x1B0 JUMPI DUP1 DUP5 SWAP3 PUSH1 0x60 SWAP5 PUSH1 0x40 MSTORE DUP4 CODECOPY DUP2 ADD SUB SLT PUSH2 0x1AC JUMPI PUSH2 0x47 DUP2 PUSH2 0x1C4 JUMP JUMPDEST SWAP1 PUSH2 0x60 PUSH1 0x40 PUSH2 0x59 PUSH1 0x20 DUP5 ADD PUSH2 0x1C4 JUMP JUMPDEST SWAP3 ADD PUSH2 0x1C4 JUMP JUMPDEST PUSH1 0x1 PUSH32 0x9B779B17422D0DF92223018B32B4D1FA46E071723D6817E2486D003BECC55F00 SSTORE PUSH1 0xFA PUSH1 0x3 SSTORE SWAP2 PUSH1 0x1 PUSH1 0x1 PUSH1 0xA0 SHL SUB AND SWAP1 DUP2 ISZERO PUSH2 0x177 JUMPI PUSH1 0x1 PUSH1 0x1 PUSH1 0xA0 SHL SUB AND SWAP1 DUP2 ISZERO PUSH2 0x13F JUMPI PUSH1 0x80 MSTORE PUSH1 0x4 DUP1 SLOAD PUSH1 0x1 PUSH1 0x1 PUSH1 0xA0 SHL SUB NOT AND SWAP2 SWAP1 SWAP2 OR SWAP1 SSTORE PUSH1 0x1 DUP1 SLOAD PUSH2 0x100 PUSH1 0x1 PUSH1 0xA8 SHL SUB NOT AND PUSH1 0x8 SWAP3 SWAP1 SWAP3 SHL PUSH2 0x100 PUSH1 0x1 PUSH1 0xA8 SHL SUB AND SWAP2 SWAP1 SWAP2 OR SWAP1 SSTORE PUSH2 0xEF CALLER PUSH2 0x1D8 JUMP JUMPDEST POP PUSH2 0xF9 CALLER PUSH2 0x24E JUMP JUMPDEST POP PUSH2 0x103 CALLER PUSH2 0x2E1 JUMP JUMPDEST POP PUSH1 0x40 MLOAD PUSH2 0x1FB7 SWAP1 DUP2 PUSH2 0x375 DUP3 CODECOPY PUSH1 0x80 MLOAD DUP2 DUP2 DUP2 PUSH2 0xB5E ADD MSTORE DUP2 DUP2 PUSH2 0xBFE ADD MSTORE DUP2 DUP2 PUSH2 0xCD9 ADD MSTORE DUP2 DUP2 PUSH2 0xDDA ADD MSTORE DUP2 DUP2 PUSH2 0x10CE ADD MSTORE PUSH2 0x194E ADD MSTORE RETURN JUMPDEST PUSH1 0x40 MLOAD PUSH3 0x461BCD PUSH1 0xE5 SHL DUP2 MSTORE PUSH1 0x20 PUSH1 0x4 DUP3 ADD MSTORE PUSH1 0x10 PUSH1 0x24 DUP3 ADD MSTORE PUSH16 0x496E76616C6964207472656173757279 PUSH1 0x80 SHL PUSH1 0x44 DUP3 ADD MSTORE PUSH1 0x64 SWAP1 REVERT JUMPDEST PUSH1 0x40 MLOAD PUSH3 0x461BCD PUSH1 0xE5 SHL DUP2 MSTORE PUSH1 0x20 PUSH1 0x4 DUP3 ADD MSTORE PUSH1 0xD PUSH1 0x24 DUP3 ADD MSTORE PUSH13 0x24B73B30B634B2103A37B5B2B7 PUSH1 0x99 SHL PUSH1 0x44 DUP3 ADD MSTORE PUSH1 0x64 SWAP1 REVERT JUMPDEST PUSH0 DUP1 REVERT JUMPDEST PUSH4 0x4E487B71 PUSH1 0xE0 SHL PUSH0 MSTORE PUSH1 0x41 PUSH1 0x4 MSTORE PUSH1 0x24 PUSH0 REVERT JUMPDEST MLOAD SWAP1 PUSH1 0x1 PUSH1 0x1 PUSH1 0xA0 SHL SUB DUP3 AND DUP3 SUB PUSH2 0x1AC JUMPI JUMP JUMPDEST PUSH1 0x1 PUSH1 0x1 PUSH1 0xA0 SHL SUB DUP2 AND PUSH0 SWAP1 DUP2 MSTORE PUSH0 MLOAD PUSH1 0x20 PUSH2 0x238C PUSH0 CODECOPY PUSH0 MLOAD SWAP1 PUSH0 MSTORE PUSH1 0x20 MSTORE PUSH1 0x40 SWAP1 KECCAK256 SLOAD PUSH1 0xFF AND PUSH2 0x249 JUMPI PUSH1 0x1 PUSH1 0x1 PUSH1 0xA0 SHL SUB AND PUSH0 DUP2 DUP2 MSTORE PUSH0 MLOAD PUSH1 0x20 PUSH2 0x238C PUSH0 CODECOPY PUSH0 MLOAD SWAP1 PUSH0 MSTORE PUSH1 0x20 MSTORE PUSH1 0x40 DUP2 KECCAK256 DUP1 SLOAD PUSH1 0xFF NOT AND PUSH1 0x1 OR SWAP1 SSTORE CALLER SWAP2 SWAP1 PUSH0 MLOAD PUSH1 0x20 PUSH2 0x232C PUSH0 CODECOPY PUSH0 MLOAD SWAP1 PUSH0 MSTORE DUP2 DUP1 LOG4 PUSH1 0x1 SWAP1 JUMP JUMPDEST POP PUSH0 SWAP1 JUMP JUMPDEST PUSH1 0x1 PUSH1 0x1 PUSH1 0xA0 SHL SUB DUP2 AND PUSH0 SWAP1 DUP2 MSTORE PUSH0 MLOAD PUSH1 0x20 PUSH2 0x236C PUSH0 CODECOPY PUSH0 MLOAD SWAP1 PUSH0 MSTORE PUSH1 0x20 MSTORE PUSH1 0x40 SWAP1 KECCAK256 SLOAD PUSH1 0xFF AND PUSH2 0x249 JUMPI PUSH1 0x1 PUSH1 0x1 PUSH1 0xA0 SHL SUB AND PUSH0 DUP2 DUP2 MSTORE PUSH0 MLOAD PUSH1 0x20 PUSH2 0x236C PUSH0 CODECOPY PUSH0 MLOAD SWAP1 PUSH0 MSTORE PUSH1 0x20 MSTORE PUSH1 0x40 DUP2 KECCAK256 DUP1 SLOAD PUSH1 0xFF NOT AND PUSH1 0x1 OR SWAP1 SSTORE CALLER SWAP2 SWAP1 PUSH32 0xA49807205CE4D355092EF5A8A18F56E8913CF4A201FBE287825B095693C21775 SWAP1 PUSH0 MLOAD PUSH1 0x20 PUSH2 0x232C PUSH0 CODECOPY PUSH0 MLOAD SWAP1 PUSH0 MSTORE SWAP1 DUP1 LOG4 PUSH1 0x1 SWAP1 JUMP JUMPDEST PUSH1 0x1 PUSH1 0x1 PUSH1 0xA0 SHL SUB DUP2 AND PUSH0 SWAP1 DUP2 MSTORE PUSH0 MLOAD PUSH1 0x20 PUSH2 0x234C PUSH0 CODECOPY PUSH0 MLOAD SWAP1 PUSH0 MSTORE PUSH1 0x20 MSTORE PUSH1 0x40 SWAP1 KECCAK256 SLOAD PUSH1 0xFF AND PUSH2 0x249 JUMPI PUSH1 0x1 PUSH1 0x1 PUSH1 0xA0 SHL SUB AND PUSH0 DUP2 DUP2 MSTORE PUSH0 MLOAD PUSH1 0x20 PUSH2 0x234C PUSH0 CODECOPY PUSH0 MLOAD SWAP1 PUSH0 MSTORE PUSH1 0x20 MSTORE PUSH1 0x40 DUP2 KECCAK256 DUP1 SLOAD PUSH1 0xFF NOT AND PUSH1 0x1 OR SWAP1 SSTORE CALLER SWAP2 SWAP1 PUSH32 0xBB08418A67729A078F87BBC8D02A770929BB68F5BFDF134AE2EAD6ED38E2F4AE SWAP1 PUSH0 MLOAD PUSH1 0x20 PUSH2 0x232C PUSH0 CODECOPY PUSH0 MLOAD SWAP1 PUSH0 MSTORE SWAP1 DUP1 LOG4 PUSH1 0x1 SWAP1 JUMP INVALID PUSH1 0x80 DUP1 PUSH1 0x40 MSTORE PUSH1 0x4 CALLDATASIZE LT ISZERO PUSH2 0x12 JUMPI PUSH0 DUP1 REVERT JUMPDEST PUSH0 SWAP1 PUSH0 CALLDATALOAD PUSH1 0xE0 SHR SWAP1 DUP2 PUSH4 0x1FFC9A7 EQ PUSH2 0x1A5C JUMPI POP DUP1 PUSH4 0x6BA0473 EQ PUSH2 0x18B6 JUMPI DUP1 PUSH4 0x180AEDF3 EQ PUSH2 0x17A6 JUMPI DUP1 PUSH4 0x1ACE87B3 EQ PUSH2 0x1789 JUMPI DUP1 PUSH4 0x22DCD13E EQ PUSH2 0x176C JUMPI DUP1 PUSH4 0x248A9CA3 EQ PUSH2 0x173A JUMPI DUP1 PUSH4 0x2BFE73AE EQ PUSH2 0x171D JUMPI DUP1 PUSH4 0x2F2FF15D EQ PUSH2 0x16E0 JUMPI DUP1 PUSH4 0x36568ABE EQ PUSH2 0x169A JUMPI DUP1 PUSH4 0x36F691C4 EQ PUSH2 0x143D JUMPI DUP1 PUSH4 0x3F4BA83A EQ PUSH2 0x13D7 JUMPI DUP1 PUSH4 0x4D104ADF EQ PUSH2 0x139D JUMPI DUP1 PUSH4 0x5C975ABB EQ PUSH2 0x137B JUMPI DUP1 PUSH4 0x61D027B3 EQ PUSH2 0x1353 JUMPI DUP1 PUSH4 0x63B2F3C9 EQ PUSH2 0x12BA JUMPI DUP1 PUSH4 0x69FE0E2D EQ PUSH2 0x1230 JUMPI DUP1 PUSH4 0x75B238FC EQ PUSH2 0x11F6 JUMPI DUP1 PUSH4 0x8456CB59 EQ PUSH2 0x119E JUMPI DUP1 PUSH4 0x8D22B863 EQ PUSH2 0x102D JUMPI DUP1 PUSH4 0x91D14854 EQ PUSH2 0xFE5 JUMPI DUP1 PUSH4 0xA1C0D32F EQ PUSH2 0xD24 JUMPI DUP1 PUSH4 0xA217FDDF EQ PUSH2 0xD08 JUMPI DUP1 PUSH4 0xA9D75B2B EQ PUSH2 0xCC3 JUMPI DUP1 PUSH4 0xBDC84AC3 EQ PUSH2 0x81E JUMPI DUP1 PUSH4 0xC4C11523 EQ PUSH2 0x76F JUMPI DUP1 PUSH4 0xC52164C6 EQ PUSH2 0x742 JUMPI DUP1 PUSH4 0xD547741F EQ PUSH2 0x6FB JUMPI DUP1 PUSH4 0xE8F16259 EQ PUSH2 0x1F5 JUMPI DUP1 PUSH4 0xF0F44260 EQ PUSH2 0x187 JUMPI PUSH4 0xFD967F47 EQ PUSH2 0x168 JUMPI PUSH0 DUP1 REVERT JUMPDEST CALLVALUE PUSH2 0x184 JUMPI DUP1 PUSH1 0x3 NOT CALLDATASIZE ADD SLT PUSH2 0x184 JUMPI PUSH1 0x20 PUSH1 0x40 MLOAD PUSH2 0x2710 DUP2 MSTORE RETURN JUMPDEST DUP1 REVERT JUMPDEST POP CALLVALUE PUSH2 0x184 JUMPI PUSH1 0x20 CALLDATASIZE PUSH1 0x3 NOT ADD SLT PUSH2 0x184 JUMPI PUSH32 0x7DAE230F18360D76A040C81F050AA14EB9D6DC7901B20FC5D855E2A20FE814D1 PUSH1 0x20 PUSH2 0x1C4 PUSH2 0x1BE3 JUMP JUMPDEST PUSH2 0x1CC PUSH2 0x1D97 JUMP JUMPDEST PUSH1 0x4 DUP1 SLOAD PUSH1 0x1 PUSH1 0x1 PUSH1 0xA0 SHL SUB NOT AND PUSH1 0x1 PUSH1 0x1 PUSH1 0xA0 SHL SUB SWAP3 SWAP1 SWAP3 AND SWAP2 DUP3 OR SWAP1 SSTORE PUSH1 0x40 MLOAD SWAP1 DUP2 MSTORE LOG1 DUP1 RETURN JUMPDEST POP CALLVALUE PUSH2 0x184 JUMPI PUSH1 0x60 CALLDATASIZE PUSH1 0x3 NOT ADD SLT PUSH2 0x184 JUMPI PUSH2 0x20F PUSH2 0x1BE3 JUMP JUMPDEST SWAP1 PUSH1 0x44 CALLDATALOAD PUSH8 0xFFFFFFFFFFFFFFFF DUP2 GT PUSH2 0x6F7 JUMPI PUSH2 0x230 SWAP1 CALLDATASIZE SWAP1 PUSH1 0x4 ADD PUSH2 0x1BF9 JUMP JUMPDEST SWAP2 PUSH2 0x239 PUSH2 0x1F46 JUMP JUMPDEST PUSH1 0x1 PUSH1 0x1 PUSH1 0xA0 SHL SUB DUP2 AND ISZERO PUSH2 0x6C1 JUMPI PUSH1 0x24 CALLDATALOAD ISZERO PUSH2 0x256 DUP2 ISZERO PUSH2 0x1D22 JUMP JUMPDEST PUSH1 0x2 SLOAD SWAP4 PUSH0 NOT DUP6 EQ PUSH2 0x6AD JUMPI PUSH1 0x1 DUP6 ADD PUSH1 0x2 SSTORE PUSH1 0x3 SLOAD SWAP2 DUP3 PUSH1 0x24 CALLDATALOAD MUL SWAP3 PUSH1 0x24 CALLDATALOAD DUP5 DIV EQ OR ISZERO PUSH2 0x6AD JUMPI PUSH1 0x40 MLOAD SWAP2 PUSH2 0x1C0 DUP4 ADD DUP4 DUP2 LT PUSH8 0xFFFFFFFFFFFFFFFF DUP3 GT OR PUSH2 0x699 JUMPI SWAP1 PUSH2 0x2710 SWAP2 PUSH1 0x40 MSTORE PUSH1 0x1 DUP8 ADD DUP5 MSTORE CALLER PUSH1 0x20 DUP6 ADD MSTORE PUSH1 0x1 DUP1 PUSH1 0xA0 SHL SUB DUP6 AND PUSH1 0x40 DUP6 ADD MSTORE PUSH1 0x24 CALLDATALOAD PUSH1 0x60 DUP6 ADD MSTORE DIV PUSH1 0x80 DUP4 ADD MSTORE TIMESTAMP PUSH1 0xA0 DUP4 ADD MSTORE DUP4 PUSH1 0xC0 DUP4 ADD MSTORE DUP4 PUSH1 0xE0 DUP4 ADD MSTORE DUP4 PUSH2 0x100 DUP4 ADD MSTORE DUP4 PUSH2 0x120 DUP4 ADD MSTORE PUSH1 0x1 PUSH2 0x140 DUP4 ADD MSTORE PUSH1 0x1 PUSH2 0x160 DUP4 ADD MSTORE PUSH2 0x180 DUP3 ADD MSTORE PUSH1 0x1 PUSH1 0x20 SWAP5 PUSH1 0x40 MLOAD PUSH2 0x313 DUP8 DUP3 PUSH2 0x1AE7 JUMP JUMPDEST DUP6 DUP2 MSTORE PUSH2 0x1A0 DUP5 ADD MSTORE ADD DUP4 MSTORE PUSH1 0x5 DUP1 DUP6 MSTORE PUSH1 0x40 DUP1 DUP6 KECCAK256 DUP4 MLOAD DUP2 SSTORE PUSH1 0x20 DUP5 ADD MLOAD PUSH1 0x1 DUP3 ADD DUP1 SLOAD PUSH1 0x1 PUSH1 0x1 PUSH1 0xA0 SHL SUB SWAP3 DUP4 AND PUSH1 0x1 PUSH1 0x1 PUSH1 0xA0 SHL SUB NOT SWAP2 DUP3 AND OR SWAP1 SWAP2 SSTORE SWAP3 DUP6 ADD MLOAD PUSH1 0x2 DUP4 ADD DUP1 SLOAD SWAP2 SWAP1 SWAP3 AND SWAP4 AND SWAP3 SWAP1 SWAP3 OR SWAP1 SWAP2 SSTORE PUSH1 0x60 DUP4 ADD MLOAD PUSH1 0x3 DUP3 ADD SSTORE PUSH1 0x80 DUP4 ADD MLOAD PUSH1 0x4 DUP3 ADD SSTORE PUSH1 0xA0 DUP4 ADD MLOAD SWAP2 DUP2 ADD SWAP2 SWAP1 SWAP2 SSTORE PUSH1 0xC0 DUP3 ADD MLOAD PUSH1 0x6 DUP3 ADD SSTORE PUSH1 0xE0 DUP3 ADD MLOAD PUSH1 0x7 DUP3 ADD SSTORE PUSH2 0x100 DUP3 ADD MLOAD PUSH1 0x8 DUP3 ADD SSTORE PUSH2 0x120 DUP3 ADD MLOAD PUSH1 0x9 DUP1 DUP4 ADD SWAP2 SWAP1 SWAP2 SSTORE PUSH2 0x140 DUP4 ADD MLOAD PUSH1 0xA DUP4 ADD DUP1 SLOAD PUSH1 0xFF NOT AND SWAP2 ISZERO ISZERO PUSH1 0xFF AND SWAP2 SWAP1 SWAP2 OR DUP2 SSTORE PUSH2 0x160 DUP5 ADD MLOAD SWAP1 SWAP2 DUP2 LT ISZERO PUSH2 0x685 JUMPI PUSH2 0xFF00 DUP3 SLOAD SWAP2 PUSH1 0x8 SHL AND SWAP1 PUSH2 0xFF00 NOT AND OR SWAP1 SSTORE PUSH1 0xB DUP2 ADD PUSH2 0x180 DUP4 ADD MLOAD DUP1 MLOAD SWAP1 PUSH8 0xFFFFFFFFFFFFFFFF DUP3 GT PUSH2 0x671 JUMPI PUSH2 0x41C DUP4 SLOAD PUSH2 0x1AAF JUMP JUMPDEST PUSH1 0x1F DUP2 GT PUSH2 0x62E JUMPI JUMPDEST POP DUP8 SWAP1 PUSH1 0x1F DUP4 GT PUSH1 0x1 EQ PUSH2 0x5C5 JUMPI SWAP2 DUP1 PUSH1 0xC SWAP5 SWAP3 PUSH2 0x1A0 SWAP7 SWAP5 DUP11 SWAP3 PUSH2 0x5BA JUMPI JUMPDEST POP POP DUP2 PUSH1 0x1 SHL SWAP2 PUSH0 NOT SWAP1 PUSH1 0x3 SHL SHR NOT AND OR SWAP1 SSTORE JUMPDEST ADD SWAP2 ADD MLOAD SWAP3 DUP4 MLOAD SWAP1 PUSH8 0xFFFFFFFFFFFFFFFF DUP3 GT PUSH2 0x5A6 JUMPI PUSH2 0x47A DUP4 SLOAD PUSH2 0x1AAF JUMP JUMPDEST PUSH1 0x1F DUP2 GT PUSH2 0x563 JUMPI JUMPDEST POP DUP6 SWAP1 PUSH1 0x1F DUP4 GT PUSH1 0x1 EQ PUSH2 0x503 JUMPI SWAP5 DUP3 SWAP4 SWAP5 SWAP6 SWAP3 PUSH2 0x4F8 JUMPI JUMPDEST POP POP DUP2 PUSH1 0x1 SHL SWAP2 PUSH0 NOT SWAP1 PUSH1 0x3 SHL SHR NOT AND OR SWAP1 SSTORE JUMPDEST PUSH1 0x2 SLOAD PUSH1 0x40 MLOAD PUSH1 0x24 CALLDATALOAD DUP2 MSTORE SWAP1 SWAP2 PUSH1 0x1 PUSH1 0x1 PUSH1 0xA0 SHL SUB AND SWAP1 CALLER SWAP1 DUP4 SWAP1 PUSH32 0x8F4EE83CEFE0DFB2F73FE6057BFA5B233FC43358BBB5F5606F444CBD4C5C4F8C SWAP1 DUP7 SWAP1 LOG4 PUSH1 0x40 MLOAD SWAP1 DUP2 MSTORE RETURN JUMPDEST ADD MLOAD SWAP1 POP PUSH0 DUP1 PUSH2 0x49C JUMP JUMPDEST SWAP1 PUSH1 0x1F NOT DUP4 AND SWAP6 DUP5 DUP4 MSTORE DUP8 DUP4 KECCAK256 SWAP3 JUMPDEST DUP9 DUP9 DUP3 LT PUSH2 0x54D JUMPI POP POP DUP4 PUSH1 0x1 SWAP6 SWAP7 SWAP8 LT PUSH2 0x535 JUMPI JUMPDEST POP POP POP DUP2 SHL ADD SWAP1 SSTORE PUSH2 0x4B0 JUMP JUMPDEST ADD MLOAD PUSH0 NOT PUSH1 0xF8 DUP5 PUSH1 0x3 SHL AND SHR NOT AND SWAP1 SSTORE PUSH0 DUP1 DUP1 PUSH2 0x528 JUMP JUMPDEST PUSH1 0x1 DUP5 SWAP6 DUP3 SWAP4 SWAP6 DUP6 ADD MLOAD DUP2 SSTORE ADD SWAP5 ADD SWAP3 ADD PUSH2 0x512 JUMP JUMPDEST DUP4 DUP3 MSTORE DUP7 DUP3 KECCAK256 PUSH1 0x1F DUP5 ADD PUSH1 0x5 SHR DUP2 ADD SWAP2 DUP9 DUP6 LT PUSH2 0x59C JUMPI JUMPDEST PUSH1 0x1F ADD PUSH1 0x5 SHR ADD SWAP1 JUMPDEST DUP2 DUP2 LT PUSH2 0x591 JUMPI POP PUSH2 0x483 JUMP JUMPDEST DUP3 DUP2 SSTORE PUSH1 0x1 ADD PUSH2 0x584 JUMP JUMPDEST SWAP1 SWAP2 POP DUP2 SWAP1 PUSH2 0x57B JUMP JUMPDEST PUSH4 0x4E487B71 PUSH1 0xE0 SHL DUP2 MSTORE PUSH1 0x41 PUSH1 0x4 MSTORE PUSH1 0x24 SWAP1 REVERT JUMPDEST ADD MLOAD SWAP1 POP PUSH0 DUP1 PUSH2 0x445 JUMP JUMPDEST DUP4 DUP9 MSTORE DUP9 DUP9 KECCAK256 SWAP2 SWAP1 PUSH1 0x1F NOT DUP5 AND DUP10 JUMPDEST DUP12 DUP3 DUP3 LT PUSH2 0x618 JUMPI POP POP SWAP3 PUSH1 0x1 SWAP3 DUP6 SWAP3 PUSH2 0x1A0 SWAP9 SWAP7 PUSH1 0xC SWAP9 SWAP7 LT PUSH2 0x600 JUMPI JUMPDEST POP POP POP DUP2 SHL ADD SWAP1 SSTORE PUSH2 0x459 JUMP JUMPDEST ADD MLOAD PUSH0 NOT PUSH1 0xF8 DUP5 PUSH1 0x3 SHL AND SHR NOT AND SWAP1 SSTORE PUSH0 DUP1 DUP1 PUSH2 0x5F3 JUMP JUMPDEST PUSH1 0x1 DUP6 SWAP7 DUP3 SWAP4 SWAP7 DUP7 ADD MLOAD DUP2 SSTORE ADD SWAP6 ADD SWAP4 ADD PUSH2 0x5D4 JUMP JUMPDEST DUP4 DUP9 MSTORE DUP9 DUP9 KECCAK256 PUSH1 0x1F DUP5 ADD PUSH1 0x5 SHR DUP2 ADD SWAP2 DUP11 DUP6 LT PUSH2 0x667 JUMPI JUMPDEST PUSH1 0x1F ADD PUSH1 0x5 SHR ADD SWAP1 JUMPDEST DUP2 DUP2 LT PUSH2 0x65C JUMPI POP PUSH2 0x425 JUMP JUMPDEST DUP9 DUP2 SSTORE PUSH1 0x1 ADD PUSH2 0x64F JUMP JUMPDEST SWAP1 SWAP2 POP DUP2 SWAP1 PUSH2 0x646 JUMP JUMPDEST PUSH4 0x4E487B71 PUSH1 0xE0 SHL DUP8 MSTORE PUSH1 0x41 PUSH1 0x4 MSTORE PUSH1 0x24 DUP8 REVERT JUMPDEST PUSH4 0x4E487B71 PUSH1 0xE0 SHL DUP7 MSTORE PUSH1 0x21 PUSH1 0x4 MSTORE PUSH1 0x24 DUP7 REVERT JUMPDEST PUSH4 0x4E487B71 PUSH1 0xE0 SHL DUP7 MSTORE PUSH1 0x41 PUSH1 0x4 MSTORE PUSH1 0x24 DUP7 REVERT JUMPDEST PUSH4 0x4E487B71 PUSH1 0xE0 SHL DUP5 MSTORE PUSH1 0x11 PUSH1 0x4 MSTORE PUSH1 0x24 DUP5 REVERT JUMPDEST PUSH1 0x40 MLOAD PUSH3 0x461BCD PUSH1 0xE5 SHL DUP2 MSTORE PUSH1 0x20 PUSH1 0x4 DUP3 ADD MSTORE PUSH1 0xE PUSH1 0x24 DUP3 ADD MSTORE PUSH14 0x24B73B30B634B2103BB7B935B2B9 PUSH1 0x91 SHL PUSH1 0x44 DUP3 ADD MSTORE PUSH1 0x64 SWAP1 REVERT JUMPDEST POP DUP1 REVERT JUMPDEST POP CALLVALUE PUSH2 0x184 JUMPI PUSH1 0x40 CALLDATASIZE PUSH1 0x3 NOT ADD SLT PUSH2 0x184 JUMPI PUSH2 0x73E PUSH1 0x4 CALLDATALOAD PUSH2 0x71B PUSH2 0x1BCD JUMP JUMPDEST SWAP1 PUSH2 0x739 PUSH2 0x734 DUP3 PUSH0 MSTORE PUSH0 PUSH1 0x20 MSTORE PUSH1 0x1 PUSH1 0x40 PUSH0 KECCAK256 ADD SLOAD SWAP1 JUMP JUMPDEST PUSH2 0x1E06 JUMP JUMPDEST PUSH2 0x1EC6 JUMP JUMPDEST POP DUP1 RETURN JUMPDEST POP CALLVALUE PUSH2 0x184 JUMPI DUP1 PUSH1 0x3 NOT CALLDATASIZE ADD SLT PUSH2 0x184 JUMPI PUSH1 0x1 SLOAD PUSH1 0x40 MLOAD PUSH1 0x8 SWAP2 SWAP1 SWAP2 SHR PUSH1 0x1 PUSH1 0x1 PUSH1 0xA0 SHL SUB AND DUP2 MSTORE PUSH1 0x20 SWAP1 RETURN JUMPDEST POP CALLVALUE PUSH2 0x184 JUMPI PUSH1 0x20 CALLDATASIZE PUSH1 0x3 NOT ADD SLT PUSH2 0x184 JUMPI PUSH1 0x4 CALLDATALOAD PUSH2 0x78C PUSH2 0x1F46 JUMP JUMPDEST DUP1 DUP3 MSTORE PUSH1 0x5 PUSH1 0x20 MSTORE PUSH1 0x40 DUP3 KECCAK256 PUSH2 0x7AF PUSH1 0x1 DUP1 PUSH1 0xA0 SHL SUB PUSH1 0x2 DUP4 ADD SLOAD AND CALLER EQ PUSH2 0x1CA3 JUMP JUMPDEST PUSH1 0xA DUP2 ADD PUSH1 0xFF DUP2 SLOAD PUSH1 0x8 SHR AND PUSH1 0x9 DUP2 LT ISZERO PUSH2 0x80A JUMPI PUSH1 0x3 PUSH2 0x7D0 SWAP2 EQ PUSH2 0x1C67 JUMP JUMPDEST PUSH2 0x400 PUSH2 0xFF00 NOT DUP3 SLOAD AND OR SWAP1 SSTORE PUSH1 0x8 TIMESTAMP SWAP2 ADD SSTORE PUSH32 0x37DA35A9CC37616D182B3F359F2FFF61F738F090DEB49C6A76A9C84C2462BA0E DUP3 DUP1 LOG2 DUP1 RETURN JUMPDEST PUSH4 0x4E487B71 PUSH1 0xE0 SHL DUP6 MSTORE PUSH1 0x21 PUSH1 0x4 MSTORE PUSH1 0x24 DUP6 REVERT JUMPDEST POP CALLVALUE PUSH2 0x184 JUMPI PUSH1 0x40 CALLDATASIZE PUSH1 0x3 NOT ADD SLT PUSH2 0x184 JUMPI PUSH1 0x4 CALLDATALOAD PUSH1 0x24 CALLDATALOAD PUSH2 0x83E PUSH2 0x1D5F JUMP JUMPDEST PUSH32 0xBB08418A67729A078F87BBC8D02A770929BB68F5BFDF134AE2EAD6ED38E2F4AE DUP4 MSTORE PUSH1 0x20 DUP4 DUP2 MSTORE PUSH1 0x40 DUP1 DUP6 KECCAK256 CALLER PUSH0 SWAP1 DUP2 MSTORE SWAP3 MSTORE SWAP1 KECCAK256 SLOAD PUSH1 0xFF AND ISZERO PUSH2 0xC8C JUMPI DUP2 DUP4 MSTORE PUSH1 0x5 PUSH1 0x20 MSTORE PUSH1 0x40 DUP4 KECCAK256 SWAP1 PUSH1 0xA DUP3 ADD PUSH1 0xFF DUP2 SLOAD PUSH1 0x8 SHR AND PUSH1 0x9 DUP2 LT ISZERO PUSH2 0x685 JUMPI PUSH1 0x6 SUB PUSH2 0xC58 JUMPI DUP5 PUSH2 0x8C1 DUP4 PUSH1 0x3 DUP7 ADD SLOAD PUSH2 0x8BC DUP2 DUP4 GT ISZERO PUSH2 0x1D22 JUMP JUMPDEST PUSH2 0x1D15 JUMP JUMPDEST SWAP4 DUP4 PUSH2 0xBC8 JUMPI JUMPDEST DUP5 PUSH2 0xB28 JUMPI JUMPDEST DUP5 DUP5 GT ISZERO PUSH2 0xA24 JUMPI PUSH1 0x1 SLOAD PUSH1 0x2 DUP3 ADD SLOAD PUSH1 0x1 PUSH1 0x1 PUSH1 0xA0 SHL SUB PUSH1 0x8 SWAP3 SWAP1 SWAP3 SHR DUP3 AND SWAP2 AND DUP2 EXTCODESIZE ISZERO PUSH2 0xA20 JUMPI DUP4 SWAP2 PUSH1 0x44 DUP4 SWAP3 PUSH1 0x40 MLOAD SWAP5 DUP6 SWAP4 DUP5 SWAP3 PUSH4 0x283DA495 PUSH1 0xE0 SHL DUP5 MSTORE PUSH1 0x4 DUP5 ADD MSTORE PUSH1 0x5 PUSH1 0x24 DUP5 ADD MSTORE GAS CALL SWAP1 DUP2 ISZERO PUSH2 0xA15 JUMPI DUP4 SWAP2 PUSH2 0xA00 JUMPI JUMPDEST POP POP PUSH1 0x1 DUP1 SLOAD SWAP2 ADD SLOAD PUSH1 0x1 PUSH1 0x1 PUSH1 0xA0 SHL SUB PUSH1 0x8 SWAP3 SWAP1 SWAP3 SHR DUP3 AND SWAP2 AND DUP2 EXTCODESIZE ISZERO PUSH2 0x9FC JUMPI DUP3 SWAP2 PUSH1 0x44 DUP4 SWAP3 PUSH1 0x40 MLOAD SWAP5 DUP6 SWAP4 DUP5 SWAP3 PUSH4 0x283DA495 PUSH1 0xE0 SHL DUP5 MSTORE PUSH1 0x4 DUP5 ADD MSTORE PUSH1 0x2 NOT PUSH1 0x24 DUP5 ADD MSTORE GAS CALL DUP1 ISZERO PUSH2 0x9F1 JUMPI PUSH2 0x9D4 JUMPI JUMPDEST POP POP SWAP1 PUSH32 0x959DC01840AA516BF9407CFFA45326C7B6821C48FEFF7B91EB0C743C8F460FD6 SWAP3 PUSH1 0x40 SWAP3 JUMPDEST DUP1 SLOAD PUSH2 0xFF00 NOT AND PUSH2 0x700 OR SWAP1 SSTORE DUP3 MLOAD SWAP2 DUP3 MSTORE PUSH1 0x20 DUP3 ADD MSTORE LOG2 PUSH1 0x1 PUSH0 MLOAD PUSH1 0x20 PUSH2 0x1F62 PUSH0 CODECOPY PUSH0 MLOAD SWAP1 PUSH0 MSTORE SSTORE DUP1 RETURN JUMPDEST DUP2 PUSH2 0x9E1 SWAP2 SWAP5 SWAP4 SWAP5 PUSH2 0x1AE7 JUMP JUMPDEST PUSH2 0x9ED JUMPI SWAP1 DUP5 PUSH0 PUSH2 0x97F JUMP JUMPDEST DUP5 DUP1 REVERT JUMPDEST PUSH1 0x40 MLOAD RETURNDATASIZE DUP5 DUP3 RETURNDATACOPY RETURNDATASIZE SWAP1 REVERT JUMPDEST DUP3 DUP1 REVERT JUMPDEST DUP2 PUSH2 0xA0A SWAP2 PUSH2 0x1AE7 JUMP JUMPDEST PUSH2 0x6F7 JUMPI DUP2 PUSH0 PUSH2 0x92B JUMP JUMPDEST PUSH1 0x40 MLOAD RETURNDATASIZE DUP6 DUP3 RETURNDATACOPY RETURNDATASIZE SWAP1 REVERT JUMPDEST DUP4 DUP1 REVERT JUMPDEST PUSH1 0x1 SLOAD PUSH1 0x2 DUP3 ADD SLOAD PUSH1 0x1 PUSH1 0x1 PUSH1 0xA0 SHL SUB PUSH1 0x8 SWAP3 SWAP1 SWAP3 SHR DUP3 AND SWAP2 AND DUP2 EXTCODESIZE ISZERO PUSH2 0xA20 JUMPI DUP4 SWAP2 PUSH1 0x44 DUP4 SWAP3 PUSH1 0x40 MLOAD SWAP5 DUP6 SWAP4 DUP5 SWAP3 PUSH4 0x283DA495 PUSH1 0xE0 SHL DUP5 MSTORE PUSH1 0x4 DUP5 ADD MSTORE PUSH1 0x4 NOT PUSH1 0x24 DUP5 ADD MSTORE GAS CALL SWAP1 DUP2 ISZERO PUSH2 0xA15 JUMPI DUP4 SWAP2 PUSH2 0xB13 JUMPI JUMPDEST POP POP PUSH1 0x1 DUP1 SLOAD SWAP2 ADD SLOAD PUSH1 0x1 PUSH1 0x1 PUSH1 0xA0 SHL SUB PUSH1 0x8 SWAP3 SWAP1 SWAP3 SHR DUP3 AND SWAP2 AND DUP2 EXTCODESIZE ISZERO PUSH2 0x9FC JUMPI DUP3 SWAP2 PUSH1 0x44 DUP4 SWAP3 PUSH1 0x40 MLOAD SWAP5 DUP6 SWAP4 DUP5 SWAP3 PUSH4 0x283DA495 PUSH1 0xE0 SHL DUP5 MSTORE PUSH1 0x4 DUP5 ADD MSTORE PUSH1 0x2 PUSH1 0x24 DUP5 ADD MSTORE GAS CALL DUP1 ISZERO PUSH2 0x9F1 JUMPI PUSH2 0xAFA JUMPI JUMPDEST POP POP SWAP1 PUSH32 0x959DC01840AA516BF9407CFFA45326C7B6821C48FEFF7B91EB0C743C8F460FD6 SWAP3 PUSH1 0x40 SWAP3 PUSH2 0x9A8 JUMP JUMPDEST DUP2 PUSH2 0xB07 SWAP2 SWAP5 SWAP4 SWAP5 PUSH2 0x1AE7 JUMP JUMPDEST PUSH2 0x9ED JUMPI SWAP1 DUP5 PUSH0 PUSH2 0xACD JUMP JUMPDEST DUP2 PUSH2 0xB1D SWAP2 PUSH2 0x1AE7 JUMP JUMPDEST PUSH2 0x6F7 JUMPI DUP2 PUSH0 PUSH2 0xA7A JUMP JUMPDEST PUSH1 0x1 DUP2 ADD SLOAD PUSH1 0x40 MLOAD PUSH4 0xA9059CBB PUSH1 0xE0 SHL DUP2 MSTORE PUSH1 0x1 PUSH1 0x1 PUSH1 0xA0 SHL SUB SWAP1 SWAP2 AND PUSH1 0x4 DUP3 ADD MSTORE PUSH1 0x24 DUP2 ADD DUP7 SWAP1 MSTORE PUSH1 0x20 DUP2 DUP1 PUSH1 0x44 DUP2 ADD SUB DUP2 DUP7 PUSH32 0x0 PUSH1 0x1 PUSH1 0x1 PUSH1 0xA0 SHL SUB AND GAS CALL DUP1 ISZERO PUSH2 0xA15 JUMPI PUSH2 0xB99 JUMPI JUMPDEST POP PUSH2 0x8CE JUMP JUMPDEST PUSH2 0xBBA SWAP1 PUSH1 0x20 RETURNDATASIZE PUSH1 0x20 GT PUSH2 0xBC1 JUMPI JUMPDEST PUSH2 0xBB2 DUP2 DUP4 PUSH2 0x1AE7 JUMP JUMPDEST DUP2 ADD SWAP1 PUSH2 0x1C4F JUMP JUMPDEST POP PUSH0 PUSH2 0xB93 JUMP JUMPDEST POP RETURNDATASIZE PUSH2 0xBA8 JUMP JUMPDEST PUSH1 0x2 DUP2 ADD SLOAD PUSH1 0x40 MLOAD PUSH4 0xA9059CBB PUSH1 0xE0 SHL DUP2 MSTORE PUSH1 0x1 PUSH1 0x1 PUSH1 0xA0 SHL SUB SWAP1 SWAP2 AND PUSH1 0x4 DUP3 ADD MSTORE PUSH1 0x24 DUP2 ADD DUP6 SWAP1 MSTORE PUSH1 0x20 DUP2 DUP1 PUSH1 0x44 DUP2 ADD SUB DUP2 DUP7 PUSH32 0x0 PUSH1 0x1 PUSH1 0x1 PUSH1 0xA0 SHL SUB AND GAS CALL DUP1 ISZERO PUSH2 0xA15 JUMPI PUSH2 0xC39 JUMPI JUMPDEST POP PUSH2 0x8C8 JUMP JUMPDEST PUSH2 0xC51 SWAP1 PUSH1 0x20 RETURNDATASIZE PUSH1 0x20 GT PUSH2 0xBC1 JUMPI PUSH2 0xBB2 DUP2 DUP4 PUSH2 0x1AE7 JUMP JUMPDEST POP PUSH0 PUSH2 0xC33 JUMP JUMPDEST PUSH1 0x40 MLOAD PUSH3 0x461BCD PUSH1 0xE5 SHL DUP2 MSTORE PUSH1 0x20 PUSH1 0x4 DUP3 ADD MSTORE PUSH1 0xC PUSH1 0x24 DUP3 ADD MSTORE PUSH12 0x139BDD08191A5CDC1D5D1959 PUSH1 0xA2 SHL PUSH1 0x44 DUP3 ADD MSTORE PUSH1 0x64 SWAP1 REVERT JUMPDEST PUSH4 0xE2517D3F PUSH1 0xE0 SHL DUP4 MSTORE CALLER PUSH1 0x4 MSTORE PUSH32 0xBB08418A67729A078F87BBC8D02A770929BB68F5BFDF134AE2EAD6ED38E2F4AE PUSH1 0x24 MSTORE PUSH1 0x44 DUP4 REVERT JUMPDEST POP CALLVALUE PUSH2 0x184 JUMPI DUP1 PUSH1 0x3 NOT CALLDATASIZE ADD SLT PUSH2 0x184 JUMPI PUSH1 0x40 MLOAD PUSH32 0x0 PUSH1 0x1 PUSH1 0x1 PUSH1 0xA0 SHL SUB AND DUP2 MSTORE PUSH1 0x20 SWAP1 RETURN JUMPDEST POP CALLVALUE PUSH2 0x184 JUMPI DUP1 PUSH1 0x3 NOT CALLDATASIZE ADD SLT PUSH2 0x184 JUMPI PUSH1 0x20 SWAP1 PUSH1 0x40 MLOAD SWAP1 DUP2 MSTORE RETURN JUMPDEST POP CALLVALUE PUSH2 0xF95 JUMPI PUSH1 0x20 CALLDATASIZE PUSH1 0x3 NOT ADD SLT PUSH2 0xF95 JUMPI PUSH1 0x4 CALLDATALOAD PUSH2 0xD41 PUSH2 0x1D5F JUMP JUMPDEST PUSH2 0xD49 PUSH2 0x1F46 JUMP JUMPDEST DUP1 PUSH0 MSTORE PUSH1 0x5 PUSH1 0x20 MSTORE PUSH1 0x40 PUSH0 KECCAK256 PUSH1 0x1 DUP2 ADD SWAP1 PUSH2 0xD6E PUSH1 0x1 DUP1 PUSH1 0xA0 SHL SUB DUP4 SLOAD AND CALLER EQ PUSH2 0x1CDC JUMP JUMPDEST PUSH1 0xA DUP2 ADD SWAP1 PUSH1 0xFF DUP3 SLOAD PUSH1 0x8 SHR AND PUSH1 0x9 DUP2 LT ISZERO PUSH2 0xFD1 JUMPI PUSH1 0x4 PUSH2 0xD90 SWAP2 EQ PUSH2 0x1C67 JUMP JUMPDEST PUSH1 0x3 DUP2 ADD SLOAD SWAP2 PUSH2 0xE0C PUSH2 0xDA9 PUSH1 0x4 DUP5 ADD SWAP5 DUP6 SLOAD SWAP1 PUSH2 0x1D15 JUMP JUMPDEST PUSH1 0x2 DUP5 ADD DUP1 SLOAD PUSH1 0x40 MLOAD PUSH4 0xA9059CBB PUSH1 0xE0 SHL DUP2 MSTORE PUSH1 0x1 PUSH1 0x1 PUSH1 0xA0 SHL SUB SWAP2 DUP3 AND PUSH1 0x4 DUP3 ADD MSTORE PUSH1 0x24 DUP2 ADD SWAP4 SWAP1 SWAP4 MSTORE SWAP1 SWAP6 SWAP2 SWAP3 PUSH32 0x0 SWAP1 SWAP2 AND SWAP2 SWAP1 PUSH1 0x20 SWAP1 DUP5 SWAP1 DUP2 SWAP1 PUSH1 0x44 DUP3 ADD SWAP1 JUMP JUMPDEST SUB DUP2 PUSH0 DUP7 GAS CALL SWAP2 DUP3 ISZERO PUSH2 0xF8A JUMPI PUSH2 0xE62 SWAP4 PUSH1 0x20 SWAP4 PUSH2 0xFB6 JUMPI JUMPDEST POP PUSH1 0x4 DUP1 SLOAD SWAP3 SLOAD PUSH1 0x40 MLOAD PUSH4 0xA9059CBB PUSH1 0xE0 SHL DUP2 MSTORE PUSH1 0x1 PUSH1 0x1 PUSH1 0xA0 SHL SUB SWAP1 SWAP5 AND SWAP2 DUP5 ADD SWAP2 SWAP1 SWAP2 MSTORE PUSH1 0x24 DUP4 ADD MSTORE SWAP1 SWAP3 DUP4 SWAP2 SWAP1 DUP3 SWAP1 PUSH0 SWAP1 DUP3 SWAP1 PUSH1 0x44 DUP3 ADD SWAP1 JUMP JUMPDEST SUB SWAP3 GAS CALL DUP1 ISZERO PUSH2 0xF8A JUMPI PUSH2 0xF99 JUMPI JUMPDEST POP DUP1 SLOAD PUSH2 0xFF00 NOT AND PUSH2 0x500 OR SWAP1 SSTORE TIMESTAMP PUSH1 0x9 SWAP2 SWAP1 SWAP2 ADD SSTORE PUSH1 0x1 SLOAD SWAP1 SLOAD PUSH1 0x8 SWAP2 SWAP1 SWAP2 SHR PUSH1 0x1 PUSH1 0x1 PUSH1 0xA0 SHL SUB SWAP1 DUP2 AND SWAP2 AND DUP2 EXTCODESIZE ISZERO PUSH2 0xF95 JUMPI PUSH0 SWAP2 PUSH1 0x44 DUP4 SWAP3 PUSH1 0x40 MLOAD SWAP5 DUP6 SWAP4 DUP5 SWAP3 PUSH4 0x283DA495 PUSH1 0xE0 SHL DUP5 MSTORE PUSH1 0x4 DUP5 ADD MSTORE PUSH1 0xA PUSH1 0x24 DUP5 ADD MSTORE GAS CALL DUP1 ISZERO PUSH2 0xF8A JUMPI PUSH2 0xF75 JUMPI JUMPDEST POP PUSH1 0x1 SLOAD SWAP1 SLOAD DUP4 SWAP2 PUSH1 0x8 SHR PUSH1 0x1 PUSH1 0x1 PUSH1 0xA0 SHL SUB SWAP1 DUP2 AND SWAP2 AND DUP2 EXTCODESIZE ISZERO PUSH2 0x9FC JUMPI DUP3 SWAP2 PUSH1 0x44 DUP4 SWAP3 PUSH1 0x40 MLOAD SWAP5 DUP6 SWAP4 DUP5 SWAP3 PUSH4 0x283DA495 PUSH1 0xE0 SHL DUP5 MSTORE PUSH1 0x4 DUP5 ADD MSTORE PUSH1 0x2 PUSH1 0x24 DUP5 ADD MSTORE GAS CALL DUP1 ISZERO PUSH2 0x9F1 JUMPI PUSH2 0xF60 JUMPI JUMPDEST POP DUP1 PUSH32 0x2244C8529CB95E213EE542E76E7776342B3DABD10203D01472BBF4441BE8929 SWAP2 LOG2 PUSH1 0x1 PUSH0 MLOAD PUSH1 0x20 PUSH2 0x1F62 PUSH0 CODECOPY PUSH0 MLOAD SWAP1 PUSH0 MSTORE SSTORE DUP1 RETURN JUMPDEST DUP2 PUSH2 0xF6A SWAP2 PUSH2 0x1AE7 JUMP JUMPDEST PUSH2 0x6F7 JUMPI DUP2 PUSH0 PUSH2 0xF27 JUMP JUMPDEST PUSH2 0xF82 SWAP2 SWAP4 POP PUSH0 SWAP1 PUSH2 0x1AE7 JUMP JUMPDEST PUSH0 SWAP2 PUSH0 PUSH2 0xED7 JUMP JUMPDEST PUSH1 0x40 MLOAD RETURNDATASIZE PUSH0 DUP3 RETURNDATACOPY RETURNDATASIZE SWAP1 REVERT JUMPDEST PUSH0 DUP1 REVERT JUMPDEST PUSH2 0xFB1 SWAP1 PUSH1 0x20 RETURNDATASIZE PUSH1 0x20 GT PUSH2 0xBC1 JUMPI PUSH2 0xBB2 DUP2 DUP4 PUSH2 0x1AE7 JUMP JUMPDEST PUSH2 0xE71 JUMP JUMPDEST PUSH2 0xFCC SWAP1 DUP5 RETURNDATASIZE DUP7 GT PUSH2 0xBC1 JUMPI PUSH2 0xBB2 DUP2 DUP4 PUSH2 0x1AE7 JUMP JUMPDEST PUSH2 0xE25 JUMP JUMPDEST PUSH4 0x4E487B71 PUSH1 0xE0 SHL PUSH0 MSTORE PUSH1 0x21 PUSH1 0x4 MSTORE PUSH1 0x24 PUSH0 REVERT JUMPDEST CALLVALUE PUSH2 0xF95 JUMPI PUSH1 0x40 CALLDATASIZE PUSH1 0x3 NOT ADD SLT PUSH2 0xF95 JUMPI PUSH2 0xFFE PUSH2 0x1BCD JUMP JUMPDEST PUSH1 0x4 CALLDATALOAD PUSH0 MSTORE PUSH0 PUSH1 0x20 MSTORE PUSH1 0x40 PUSH0 KECCAK256 SWAP1 PUSH1 0x1 DUP1 PUSH1 0xA0 SHL SUB AND PUSH0 MSTORE PUSH1 0x20 MSTORE PUSH1 0x20 PUSH1 0xFF PUSH1 0x40 PUSH0 KECCAK256 SLOAD AND PUSH1 0x40 MLOAD SWAP1 ISZERO ISZERO DUP2 MSTORE RETURN JUMPDEST CALLVALUE PUSH2 0xF95 JUMPI PUSH1 0x20 CALLDATASIZE PUSH1 0x3 NOT ADD SLT PUSH2 0xF95 JUMPI PUSH1 0x4 CALLDATALOAD PUSH2 0x1049 PUSH2 0x1D5F JUMP JUMPDEST PUSH2 0x1051 PUSH2 0x1F46 JUMP JUMPDEST DUP1 PUSH0 MSTORE PUSH1 0x5 PUSH1 0x20 MSTORE PUSH1 0x40 PUSH0 KECCAK256 PUSH1 0xA DUP2 ADD DUP1 SLOAD PUSH1 0xFF DUP2 AND ISZERO PUSH2 0x116B JUMPI PUSH1 0xFF SWAP1 PUSH2 0x1086 PUSH1 0x1 DUP1 PUSH1 0xA0 SHL SUB PUSH1 0x1 DUP7 ADD SLOAD AND CALLER EQ PUSH2 0x1CDC JUMP JUMPDEST PUSH1 0x8 SHR AND PUSH1 0x9 DUP2 LT ISZERO PUSH2 0xFD1 JUMPI PUSH1 0x1 PUSH2 0x109F SWAP2 EQ PUSH2 0x1C67 JUMP JUMPDEST PUSH1 0x3 DUP3 ADD SLOAD PUSH1 0x40 MLOAD PUSH4 0x23B872DD PUSH1 0xE0 SHL DUP2 MSTORE CALLER PUSH1 0x4 DUP3 ADD MSTORE ADDRESS PUSH1 0x24 DUP3 ADD MSTORE PUSH1 0x44 DUP2 ADD SWAP2 SWAP1 SWAP2 MSTORE PUSH1 0x20 DUP2 PUSH1 0x64 DUP2 PUSH0 PUSH32 0x0 PUSH1 0x1 PUSH1 0x1 PUSH1 0xA0 SHL SUB AND GAS CALL DUP1 ISZERO PUSH2 0xF8A JUMPI PUSH2 0x114E JUMPI JUMPDEST POP PUSH2 0x200 PUSH2 0xFF00 NOT DUP3 SLOAD AND OR SWAP1 SSTORE PUSH1 0x6 TIMESTAMP SWAP2 ADD SSTORE PUSH32 0x9033FDBDE83E5AC011BB056EE12ACD7656D1E63DE51CD2EC958E95B85F0B87A4 PUSH0 DUP1 LOG2 PUSH1 0x1 PUSH0 MLOAD PUSH1 0x20 PUSH2 0x1F62 PUSH0 CODECOPY PUSH0 MLOAD SWAP1 PUSH0 MSTORE SSTORE STOP JUMPDEST PUSH2 0x1166 SWAP1 PUSH1 0x20 RETURNDATASIZE PUSH1 0x20 GT PUSH2 0xBC1 JUMPI PUSH2 0xBB2 DUP2 DUP4 PUSH2 0x1AE7 JUMP JUMPDEST PUSH2 0x1103 JUMP JUMPDEST PUSH1 0x40 MLOAD PUSH3 0x461BCD PUSH1 0xE5 SHL DUP2 MSTORE PUSH1 0x20 PUSH1 0x4 DUP3 ADD MSTORE PUSH1 0xB PUSH1 0x24 DUP3 ADD MSTORE PUSH11 0x4A6F62206D697373696E67 PUSH1 0xA8 SHL PUSH1 0x44 DUP3 ADD MSTORE PUSH1 0x64 SWAP1 REVERT JUMPDEST CALLVALUE PUSH2 0xF95 JUMPI PUSH0 CALLDATASIZE PUSH1 0x3 NOT ADD SLT PUSH2 0xF95 JUMPI PUSH2 0x11B6 PUSH2 0x1D97 JUMP JUMPDEST PUSH2 0x11BE PUSH2 0x1F46 JUMP JUMPDEST PUSH1 0x1 PUSH1 0xFF NOT DUP2 SLOAD AND OR PUSH1 0x1 SSTORE PUSH32 0x62E78CEA01BEE320CD4E420270B5EA74000D11B0C9F74754EBDBFC544B05A258 PUSH1 0x20 PUSH1 0x40 MLOAD CALLER DUP2 MSTORE LOG1 STOP JUMPDEST CALLVALUE PUSH2 0xF95 JUMPI PUSH0 CALLDATASIZE PUSH1 0x3 NOT ADD SLT PUSH2 0xF95 JUMPI PUSH1 0x20 PUSH1 0x40 MLOAD PUSH32 0xA49807205CE4D355092EF5A8A18F56E8913CF4A201FBE287825B095693C21775 DUP2 MSTORE RETURN JUMPDEST CALLVALUE PUSH2 0xF95 JUMPI PUSH1 0x20 CALLDATASIZE PUSH1 0x3 NOT ADD SLT PUSH2 0xF95 JUMPI PUSH1 0x4 CALLDATALOAD PUSH2 0x124C PUSH2 0x1D97 JUMP JUMPDEST PUSH2 0x3E8 DUP2 GT PUSH2 0x1286 JUMPI PUSH1 0x20 DUP2 PUSH32 0x8C4D35E54A3F2EF1134138FD8EA3DAEE6A3C89E10D2665996BABDF70261E2C76 SWAP3 PUSH1 0x3 SSTORE PUSH1 0x40 MLOAD SWAP1 DUP2 MSTORE LOG1 STOP JUMPDEST PUSH1 0x40 MLOAD PUSH3 0x461BCD PUSH1 0xE5 SHL DUP2 MSTORE PUSH1 0x20 PUSH1 0x4 DUP3 ADD MSTORE PUSH1 0xC PUSH1 0x24 DUP3 ADD MSTORE PUSH12 0x8CCACA40E8DEDE40D0D2CED PUSH1 0xA3 SHL PUSH1 0x44 DUP3 ADD MSTORE PUSH1 0x64 SWAP1 REVERT JUMPDEST CALLVALUE PUSH2 0xF95 JUMPI PUSH1 0x20 CALLDATASIZE PUSH1 0x3 NOT ADD SLT PUSH2 0xF95 JUMPI PUSH1 0x4 CALLDATALOAD PUSH2 0x12D6 PUSH2 0x1F46 JUMP JUMPDEST DUP1 PUSH0 MSTORE PUSH1 0x5 PUSH1 0x20 MSTORE PUSH1 0x40 PUSH0 KECCAK256 PUSH2 0x12F9 PUSH1 0x1 DUP1 PUSH1 0xA0 SHL SUB PUSH1 0x2 DUP4 ADD SLOAD AND CALLER EQ PUSH2 0x1CA3 JUMP JUMPDEST PUSH1 0xA DUP2 ADD PUSH1 0xFF DUP2 SLOAD PUSH1 0x8 SHR AND PUSH1 0x9 DUP2 LT ISZERO PUSH2 0xFD1 JUMPI PUSH1 0x2 PUSH2 0x131A SWAP2 EQ PUSH2 0x1C67 JUMP JUMPDEST PUSH2 0x300 PUSH2 0xFF00 NOT DUP3 SLOAD AND OR SWAP1 SSTORE PUSH1 0x7 TIMESTAMP SWAP2 ADD SSTORE PUSH32 0x41B257DB0EDD32D58F10D15F1FEE2DC582823C2C362AD4DC0F8F0ED4E6F42000 PUSH0 DUP1 LOG2 STOP JUMPDEST CALLVALUE PUSH2 0xF95 JUMPI PUSH0 CALLDATASIZE PUSH1 0x3 NOT ADD SLT PUSH2 0xF95 JUMPI PUSH1 0x4 SLOAD PUSH1 0x40 MLOAD PUSH1 0x1 PUSH1 0x1 PUSH1 0xA0 SHL SUB SWAP1 SWAP2 AND DUP2 MSTORE PUSH1 0x20 SWAP1 RETURN JUMPDEST CALLVALUE PUSH2 0xF95 JUMPI PUSH0 CALLDATASIZE PUSH1 0x3 NOT ADD SLT PUSH2 0xF95 JUMPI PUSH1 0x20 PUSH1 0xFF PUSH1 0x1 SLOAD AND PUSH1 0x40 MLOAD SWAP1 ISZERO ISZERO DUP2 MSTORE RETURN JUMPDEST CALLVALUE PUSH2 0xF95 JUMPI PUSH0 CALLDATASIZE PUSH1 0x3 NOT ADD SLT PUSH2 0xF95 JUMPI PUSH1 0x20 PUSH1 0x40 MLOAD PUSH32 0xBB08418A67729A078F87BBC8D02A770929BB68F5BFDF134AE2EAD6ED38E2F4AE DUP2 MSTORE RETURN JUMPDEST CALLVALUE PUSH2 0xF95 JUMPI PUSH0 CALLDATASIZE PUSH1 0x3 NOT ADD SLT PUSH2 0xF95 JUMPI PUSH2 0x13EF PUSH2 0x1D97 JUMP JUMPDEST PUSH1 0x1 SLOAD PUSH1 0xFF DUP2 AND ISZERO PUSH2 0x142E JUMPI PUSH1 0xFF NOT AND PUSH1 0x1 SSTORE PUSH32 0x5DB9EE0A495BF2E6FF9C91A7834C1BA4FDD244A5E8AA4E537BD38AEAE4B073AA PUSH1 0x20 PUSH1 0x40 MLOAD CALLER DUP2 MSTORE LOG1 STOP JUMPDEST PUSH4 0x8DFC202B PUSH1 0xE0 SHL PUSH0 MSTORE PUSH1 0x4 PUSH0 REVERT JUMPDEST CALLVALUE PUSH2 0xF95 JUMPI PUSH1 0x40 CALLDATASIZE PUSH1 0x3 NOT ADD SLT PUSH2 0xF95 JUMPI PUSH1 0x4 CALLDATALOAD PUSH1 0x24 CALLDATALOAD PUSH8 0xFFFFFFFFFFFFFFFF DUP2 GT PUSH2 0xF95 JUMPI PUSH2 0x1471 SWAP1 CALLDATASIZE SWAP1 PUSH1 0x4 ADD PUSH2 0x1BF9 JUMP JUMPDEST SWAP1 PUSH2 0x147A PUSH2 0x1F46 JUMP JUMPDEST DUP1 PUSH0 MSTORE PUSH1 0x5 PUSH1 0x20 MSTORE PUSH1 0x40 PUSH0 KECCAK256 PUSH1 0x1 DUP1 PUSH1 0xA0 SHL SUB PUSH1 0x1 DUP3 ADD SLOAD AND CALLER EQ DUP1 ISZERO PUSH2 0x1684 JUMPI JUMPDEST ISZERO PUSH2 0x1650 JUMPI PUSH1 0xA DUP2 ADD SWAP1 PUSH1 0xFF DUP3 SLOAD PUSH1 0x8 SHR AND SWAP2 PUSH1 0x9 DUP4 LT ISZERO PUSH2 0xFD1 JUMPI PUSH2 0x14C6 PUSH1 0x4 PUSH1 0xC SWAP5 EQ PUSH2 0x1C67 JUMP JUMPDEST DUP1 SLOAD PUSH2 0xFF00 NOT AND PUSH2 0x600 OR SWAP1 SSTORE DUP4 MLOAD SWAP4 SWAP2 ADD PUSH8 0xFFFFFFFFFFFFFFFF DUP5 GT PUSH2 0x163C JUMPI PUSH2 0x14F1 DUP2 SLOAD PUSH2 0x1AAF JUMP JUMPDEST PUSH1 0x1F DUP2 GT PUSH2 0x15F7 JUMPI JUMPDEST POP PUSH1 0x20 SWAP4 PUSH1 0x1F DUP2 GT PUSH1 0x1 EQ PUSH2 0x1571 JUMPI SWAP1 DUP2 PUSH2 0x1561 SWAP4 SWAP3 PUSH32 0xA70B5640B40D2FFC2D02B31C5C2B5156808F6BFCB9E4F711AC6BB2FA923BABD9 SWAP6 SWAP7 PUSH0 SWAP2 PUSH2 0x1566 JUMPI JUMPDEST POP DUP2 PUSH1 0x1 SHL SWAP2 PUSH0 NOT SWAP1 PUSH1 0x3 SHL SHR NOT AND OR SWAP1 SSTORE JUMPDEST PUSH1 0x40 MLOAD SWAP2 DUP3 SWAP2 PUSH1 0x20 DUP4 MSTORE PUSH1 0x20 DUP4 ADD SWAP1 PUSH2 0x1BA9 JUMP JUMPDEST SUB SWAP1 LOG2 STOP JUMPDEST SWAP1 POP DUP4 ADD MLOAD DUP8 PUSH2 0x153A JUMP JUMPDEST PUSH1 0x1F NOT DUP2 AND DUP3 PUSH0 MSTORE DUP6 PUSH0 KECCAK256 SWAP1 PUSH0 JUMPDEST DUP2 DUP2 LT PUSH2 0x15DF JUMPI POP SWAP2 PUSH1 0x1 SWAP2 PUSH32 0xA70B5640B40D2FFC2D02B31C5C2B5156808F6BFCB9E4F711AC6BB2FA923BABD9 SWAP7 SWAP8 DUP3 PUSH2 0x1561 SWAP8 SWAP7 SWAP6 LT PUSH2 0x15C7 JUMPI JUMPDEST POP POP DUP2 SHL ADD SWAP1 SSTORE PUSH2 0x154D JUMP JUMPDEST DUP6 ADD MLOAD PUSH0 NOT PUSH1 0xF8 DUP5 PUSH1 0x3 SHL AND SHR NOT AND SWAP1 SSTORE DUP8 DUP1 PUSH2 0x15BB JUMP JUMPDEST DUP6 DUP9 ADD MLOAD DUP4 SSTORE PUSH1 0x20 SWAP8 DUP9 ADD SWAP8 PUSH1 0x1 SWAP1 SWAP4 ADD SWAP3 ADD PUSH2 0x157F JUMP JUMPDEST DUP2 PUSH0 MSTORE PUSH1 0x20 PUSH0 KECCAK256 PUSH1 0x1F DUP7 ADD PUSH1 0x5 SHR DUP2 ADD SWAP2 PUSH1 0x20 DUP8 LT PUSH2 0x1632 JUMPI JUMPDEST PUSH1 0x1F ADD PUSH1 0x5 SHR ADD SWAP1 JUMPDEST DUP2 DUP2 LT PUSH2 0x1627 JUMPI POP PUSH2 0x14FA JUMP JUMPDEST PUSH0 DUP2 SSTORE PUSH1 0x1 ADD PUSH2 0x161A JUMP JUMPDEST SWAP1 SWAP2 POP DUP2 SWAP1 PUSH2 0x1611 JUMP JUMPDEST PUSH4 0x4E487B71 PUSH1 0xE0 SHL PUSH0 MSTORE PUSH1 0x41 PUSH1 0x4 MSTORE PUSH1 0x24 PUSH0 REVERT JUMPDEST PUSH1 0x40 MLOAD PUSH3 0x461BCD PUSH1 0xE5 SHL DUP2 MSTORE PUSH1 0x20 PUSH1 0x4 DUP3 ADD MSTORE PUSH1 0xC PUSH1 0x24 DUP3 ADD MSTORE PUSH12 0x155B985D5D1A1BDC9A5E9959 PUSH1 0xA2 SHL PUSH1 0x44 DUP3 ADD MSTORE PUSH1 0x64 SWAP1 REVERT JUMPDEST POP PUSH1 0x2 DUP2 ADD SLOAD PUSH1 0x1 PUSH1 0x1 PUSH1 0xA0 SHL SUB AND CALLER EQ PUSH2 0x149C JUMP JUMPDEST CALLVALUE PUSH2 0xF95 JUMPI PUSH1 0x40 CALLDATASIZE PUSH1 0x3 NOT ADD SLT PUSH2 0xF95 JUMPI PUSH2 0x16B3 PUSH2 0x1BCD JUMP JUMPDEST CALLER PUSH1 0x1 PUSH1 0x1 PUSH1 0xA0 SHL SUB DUP3 AND SUB PUSH2 0x16D1 JUMPI PUSH2 0x16CF SWAP1 PUSH1 0x4 CALLDATALOAD PUSH2 0x1EC6 JUMP JUMPDEST STOP JUMPDEST PUSH4 0x334BD919 PUSH1 0xE1 SHL PUSH0 MSTORE PUSH1 0x4 PUSH0 REVERT JUMPDEST CALLVALUE PUSH2 0xF95 JUMPI PUSH1 0x40 CALLDATASIZE PUSH1 0x3 NOT ADD SLT PUSH2 0xF95 JUMPI PUSH2 0x16CF PUSH1 0x4 CALLDATALOAD PUSH2 0x16FF PUSH2 0x1BCD JUMP JUMPDEST SWAP1 PUSH2 0x1718 PUSH2 0x734 DUP3 PUSH0 MSTORE PUSH0 PUSH1 0x20 MSTORE PUSH1 0x1 PUSH1 0x40 PUSH0 KECCAK256 ADD SLOAD SWAP1 JUMP JUMPDEST PUSH2 0x1E3E JUMP JUMPDEST CALLVALUE PUSH2 0xF95 JUMPI PUSH0 CALLDATASIZE PUSH1 0x3 NOT ADD SLT PUSH2 0xF95 JUMPI PUSH1 0x20 PUSH1 0x40 MLOAD PUSH3 0x93A80 DUP2 MSTORE RETURN JUMPDEST CALLVALUE PUSH2 0xF95 JUMPI PUSH1 0x20 CALLDATASIZE PUSH1 0x3 NOT ADD SLT PUSH2 0xF95 JUMPI PUSH1 0x20 PUSH2 0x1764 PUSH1 0x4 CALLDATALOAD PUSH0 MSTORE PUSH0 PUSH1 0x20 MSTORE PUSH1 0x1 PUSH1 0x40 PUSH0 KECCAK256 ADD SLOAD SWAP1 JUMP JUMPDEST PUSH1 0x40 MLOAD SWAP1 DUP2 MSTORE RETURN JUMPDEST CALLVALUE PUSH2 0xF95 JUMPI PUSH0 CALLDATASIZE PUSH1 0x3 NOT ADD SLT PUSH2 0xF95 JUMPI PUSH1 0x20 PUSH1 0x3 SLOAD PUSH1 0x40 MLOAD SWAP1 DUP2 MSTORE RETURN JUMPDEST CALLVALUE PUSH2 0xF95 JUMPI PUSH0 CALLDATASIZE PUSH1 0x3 NOT ADD SLT PUSH2 0xF95 JUMPI PUSH1 0x20 PUSH1 0x2 SLOAD PUSH1 0x40 MLOAD SWAP1 DUP2 MSTORE RETURN JUMPDEST CALLVALUE PUSH2 0xF95 JUMPI PUSH1 0x20 CALLDATASIZE PUSH1 0x3 NOT ADD SLT PUSH2 0xF95 JUMPI PUSH1 0x4 CALLDATALOAD PUSH0 MSTORE PUSH1 0x5 PUSH1 0x20 MSTORE PUSH1 0x40 PUSH0 KECCAK256 DUP1 SLOAD SWAP1 PUSH1 0x1 PUSH1 0xA0 SHL PUSH1 0x1 SWAP1 SUB PUSH1 0x1 DUP3 ADD SLOAD AND SWAP1 PUSH1 0x1 PUSH1 0xA0 SHL PUSH1 0x1 SWAP1 SUB PUSH1 0x2 DUP3 ADD SLOAD AND SWAP2 PUSH1 0x3 DUP3 ADD SLOAD PUSH1 0x4 DUP4 ADD SLOAD PUSH1 0x5 DUP5 ADD SLOAD PUSH1 0x6 DUP6 ADD SLOAD PUSH1 0x7 DUP7 ADD SLOAD SWAP1 PUSH1 0x8 DUP8 ADD SLOAD SWAP3 PUSH1 0x9 DUP9 ADD SLOAD SWAP5 PUSH1 0xA DUP10 ADD SLOAD SWAP7 DUP8 PUSH1 0x8 SHR PUSH1 0xFF AND SWAP11 PUSH1 0xB DUP12 ADD PUSH2 0x1829 SWAP1 PUSH2 0x1B09 JUMP JUMPDEST SWAP11 PUSH1 0xC ADD PUSH2 0x1836 SWAP1 PUSH2 0x1B09 JUMP JUMPDEST SWAP10 PUSH1 0x40 MLOAD DUP1 SWAP15 DUP2 MSTORE PUSH1 0x20 ADD MSTORE PUSH1 0x40 DUP14 ADD MSTORE PUSH1 0x60 DUP13 ADD MSTORE PUSH1 0x80 DUP12 ADD MSTORE PUSH1 0xA0 DUP11 ADD MSTORE PUSH1 0xC0 DUP10 ADD MSTORE PUSH1 0xE0 DUP9 ADD MSTORE PUSH2 0x100 DUP8 ADD MSTORE PUSH2 0x120 DUP7 ADD MSTORE PUSH1 0xFF AND ISZERO ISZERO PUSH2 0x140 DUP6 ADD MSTORE PUSH1 0x9 DUP4 LT ISZERO PUSH2 0xFD1 JUMPI PUSH2 0x18A3 PUSH2 0x18B2 SWAP3 DUP6 SWAP5 PUSH2 0x160 DUP7 ADD MSTORE PUSH2 0x1C0 PUSH2 0x180 DUP7 ADD MSTORE PUSH2 0x1C0 DUP6 ADD SWAP1 PUSH2 0x1BA9 JUMP JUMPDEST SWAP1 DUP4 DUP3 SUB PUSH2 0x1A0 DUP6 ADD MSTORE PUSH2 0x1BA9 JUMP JUMPDEST SUB SWAP1 RETURN JUMPDEST CALLVALUE PUSH2 0xF95 JUMPI PUSH1 0x20 CALLDATASIZE PUSH1 0x3 NOT ADD SLT PUSH2 0xF95 JUMPI PUSH1 0x4 CALLDATALOAD PUSH2 0x18D2 PUSH2 0x1D5F JUMP JUMPDEST DUP1 PUSH0 MSTORE PUSH1 0x5 PUSH1 0x20 MSTORE PUSH1 0x40 PUSH0 KECCAK256 PUSH1 0xA DUP2 ADD SWAP1 PUSH1 0xFF DUP3 SLOAD PUSH1 0x8 SHR AND PUSH1 0x9 DUP2 LT ISZERO PUSH2 0xFD1 JUMPI PUSH1 0x2 SUB PUSH2 0x1A2A JUMPI PUSH1 0x6 DUP2 ADD SLOAD PUSH3 0x93A80 DUP2 ADD DUP1 SWAP2 GT PUSH2 0x1A16 JUMPI TIMESTAMP GT ISZERO PUSH2 0x19E5 JUMPI PUSH1 0x1 DUP2 ADD SLOAD PUSH1 0x3 SWAP1 SWAP2 ADD SLOAD PUSH1 0x40 MLOAD PUSH4 0xA9059CBB PUSH1 0xE0 SHL DUP2 MSTORE PUSH1 0x1 PUSH1 0x1 PUSH1 0xA0 SHL SUB SWAP1 SWAP3 AND PUSH1 0x4 DUP4 ADD MSTORE PUSH1 0x24 DUP3 ADD MSTORE PUSH1 0x20 DUP2 DUP1 PUSH1 0x44 DUP2 ADD SUB DUP2 PUSH0 PUSH32 0x0 PUSH1 0x1 PUSH1 0x1 PUSH1 0xA0 SHL SUB AND GAS CALL DUP1 ISZERO PUSH2 0xF8A JUMPI PUSH2 0x19C8 JUMPI JUMPDEST POP DUP1 SLOAD PUSH2 0xFF00 NOT AND PUSH2 0x800 OR SWAP1 SSTORE PUSH32 0x58243F872C550AD02802199ADE99EB4250F6BB19E9ABBF2D3DE7B969C0EB5E4F PUSH0 DUP1 LOG2 PUSH1 0x1 PUSH0 MLOAD PUSH1 0x20 PUSH2 0x1F62 PUSH0 CODECOPY PUSH0 MLOAD SWAP1 PUSH0 MSTORE SSTORE STOP JUMPDEST PUSH2 0x19E0 SWAP1 PUSH1 0x20 RETURNDATASIZE PUSH1 0x20 GT PUSH2 0xBC1 JUMPI PUSH2 0xBB2 DUP2 DUP4 PUSH2 0x1AE7 JUMP JUMPDEST PUSH2 0x1983 JUMP JUMPDEST PUSH1 0x40 MLOAD PUSH3 0x461BCD PUSH1 0xE5 SHL DUP2 MSTORE PUSH1 0x20 PUSH1 0x4 DUP3 ADD MSTORE PUSH1 0x9 PUSH1 0x24 DUP3 ADD MSTORE PUSH9 0x546F6F206561726C79 PUSH1 0xB8 SHL PUSH1 0x44 DUP3 ADD MSTORE PUSH1 0x64 SWAP1 REVERT JUMPDEST PUSH4 0x4E487B71 PUSH1 0xE0 SHL PUSH0 MSTORE PUSH1 0x11 PUSH1 0x4 MSTORE PUSH1 0x24 PUSH0 REVERT JUMPDEST PUSH1 0x40 MLOAD PUSH3 0x461BCD PUSH1 0xE5 SHL DUP2 MSTORE PUSH1 0x20 PUSH1 0x4 DUP3 ADD MSTORE PUSH1 0xA PUSH1 0x24 DUP3 ADD MSTORE PUSH10 0x139BDD08199D5B991959 PUSH1 0xB2 SHL PUSH1 0x44 DUP3 ADD MSTORE PUSH1 0x64 SWAP1 REVERT JUMPDEST CALLVALUE PUSH2 0xF95 JUMPI PUSH1 0x20 CALLDATASIZE PUSH1 0x3 NOT ADD SLT PUSH2 0xF95 JUMPI PUSH1 0x4 CALLDATALOAD SWAP1 PUSH4 0xFFFFFFFF PUSH1 0xE0 SHL DUP3 AND DUP1 SWAP3 SUB PUSH2 0xF95 JUMPI PUSH1 0x20 SWAP2 PUSH4 0x7965DB0B PUSH1 0xE0 SHL DUP2 EQ SWAP1 DUP2 ISZERO PUSH2 0x1A9E JUMPI JUMPDEST POP ISZERO ISZERO DUP2 MSTORE RETURN JUMPDEST PUSH4 0x1FFC9A7 PUSH1 0xE0 SHL EQ SWAP1 POP DUP4 PUSH2 0x1A97 JUMP JUMPDEST SWAP1 PUSH1 0x1 DUP3 DUP2 SHR SWAP3 AND DUP1 ISZERO PUSH2 0x1ADD JUMPI JUMPDEST PUSH1 0x20 DUP4 LT EQ PUSH2 0x1AC9 JUMPI JUMP JUMPDEST PUSH4 0x4E487B71 PUSH1 0xE0 SHL PUSH0 MSTORE PUSH1 0x22 PUSH1 0x4 MSTORE PUSH1 0x24 PUSH0 REVERT JUMPDEST SWAP2 PUSH1 0x7F AND SWAP2 PUSH2 0x1ABE JUMP JUMPDEST SWAP1 PUSH1 0x1F DUP1 NOT SWAP2 ADD AND DUP2 ADD SWAP1 DUP2 LT PUSH8 0xFFFFFFFFFFFFFFFF DUP3 GT OR PUSH2 0x163C JUMPI PUSH1 0x40 MSTORE JUMP JUMPDEST SWAP1 PUSH1 0x40 MLOAD SWAP2 DUP3 PUSH0 DUP3 SLOAD SWAP3 PUSH2 0x1B1C DUP5 PUSH2 0x1AAF JUMP JUMPDEST DUP1 DUP5 MSTORE SWAP4 PUSH1 0x1 DUP2 AND SWAP1 DUP2 ISZERO PUSH2 0x1B87 JUMPI POP PUSH1 0x1 EQ PUSH2 0x1B43 JUMPI JUMPDEST POP PUSH2 0x1B41 SWAP3 POP SUB DUP4 PUSH2 0x1AE7 JUMP JUMPDEST JUMP JUMPDEST SWAP1 POP PUSH0 SWAP3 SWAP2 SWAP3 MSTORE PUSH1 0x20 PUSH0 KECCAK256 SWAP1 PUSH0 SWAP2 JUMPDEST DUP2 DUP4 LT PUSH2 0x1B6B JUMPI POP POP SWAP1 PUSH1 0x20 PUSH2 0x1B41 SWAP3 DUP3 ADD ADD PUSH0 PUSH2 0x1B34 JUMP JUMPDEST PUSH1 0x20 SWAP2 SWAP4 POP DUP1 PUSH1 0x1 SWAP2 SLOAD DUP4 DUP6 DUP10 ADD ADD MSTORE ADD SWAP2 ADD SWAP1 SWAP2 DUP5 SWAP3 PUSH2 0x1B52 JUMP JUMPDEST SWAP1 POP PUSH1 0x20 SWAP3 POP PUSH2 0x1B41 SWAP5 SWAP2 POP PUSH1 0xFF NOT AND DUP3 DUP5 ADD MSTORE ISZERO ISZERO PUSH1 0x5 SHL DUP3 ADD ADD PUSH0 PUSH2 0x1B34 JUMP JUMPDEST DUP1 MLOAD DUP1 DUP4 MSTORE PUSH1 0x20 SWAP3 SWAP2 DUP2 SWAP1 DUP5 ADD DUP5 DUP5 ADD MCOPY PUSH0 DUP3 DUP3 ADD DUP5 ADD MSTORE PUSH1 0x1F ADD PUSH1 0x1F NOT AND ADD ADD SWAP1 JUMP JUMPDEST PUSH1 0x24 CALLDATALOAD SWAP1 PUSH1 0x1 PUSH1 0x1 PUSH1 0xA0 SHL SUB DUP3 AND DUP3 SUB PUSH2 0xF95 JUMPI JUMP JUMPDEST PUSH1 0x4 CALLDATALOAD SWAP1 PUSH1 0x1 PUSH1 0x1 PUSH1 0xA0 SHL SUB DUP3 AND DUP3 SUB PUSH2 0xF95 JUMPI JUMP JUMPDEST DUP2 PUSH1 0x1F DUP3 ADD SLT ISZERO PUSH2 0xF95 JUMPI DUP1 CALLDATALOAD SWAP1 PUSH8 0xFFFFFFFFFFFFFFFF DUP3 GT PUSH2 0x163C JUMPI PUSH1 0x40 MLOAD SWAP3 PUSH2 0x1C2E PUSH1 0x1F DUP5 ADD PUSH1 0x1F NOT AND PUSH1 0x20 ADD DUP6 PUSH2 0x1AE7 JUMP JUMPDEST DUP3 DUP5 MSTORE PUSH1 0x20 DUP4 DUP4 ADD ADD GT PUSH2 0xF95 JUMPI DUP2 PUSH0 SWAP3 PUSH1 0x20 DUP1 SWAP4 ADD DUP4 DUP7 ADD CALLDATACOPY DUP4 ADD ADD MSTORE SWAP1 JUMP JUMPDEST SWAP1 DUP2 PUSH1 0x20 SWAP2 SUB SLT PUSH2 0xF95 JUMPI MLOAD DUP1 ISZERO ISZERO DUP2 SUB PUSH2 0xF95 JUMPI SWAP1 JUMP JUMPDEST ISZERO PUSH2 0x1C6E JUMPI JUMP JUMPDEST PUSH1 0x40 MLOAD PUSH3 0x461BCD PUSH1 0xE5 SHL DUP2 MSTORE PUSH1 0x20 PUSH1 0x4 DUP3 ADD MSTORE PUSH1 0xD PUSH1 0x24 DUP3 ADD MSTORE PUSH13 0x496E76616C6964207374617465 PUSH1 0x98 SHL PUSH1 0x44 DUP3 ADD MSTORE PUSH1 0x64 SWAP1 REVERT JUMPDEST ISZERO PUSH2 0x1CAA JUMPI JUMP JUMPDEST PUSH1 0x40 MLOAD PUSH3 0x461BCD PUSH1 0xE5 SHL DUP2 MSTORE PUSH1 0x20 PUSH1 0x4 DUP3 ADD MSTORE PUSH1 0xA PUSH1 0x24 DUP3 ADD MSTORE PUSH10 0x2737BA103BB7B935B2B9 PUSH1 0xB1 SHL PUSH1 0x44 DUP3 ADD MSTORE PUSH1 0x64 SWAP1 REVERT JUMPDEST ISZERO PUSH2 0x1CE3 JUMPI JUMP JUMPDEST PUSH1 0x40 MLOAD PUSH3 0x461BCD PUSH1 0xE5 SHL DUP2 MSTORE PUSH1 0x20 PUSH1 0x4 DUP3 ADD MSTORE PUSH1 0xA PUSH1 0x24 DUP3 ADD MSTORE PUSH10 0x139BDD0818DB1A595B9D PUSH1 0xB2 SHL PUSH1 0x44 DUP3 ADD MSTORE PUSH1 0x64 SWAP1 REVERT JUMPDEST SWAP2 SWAP1 DUP3 SUB SWAP2 DUP3 GT PUSH2 0x1A16 JUMPI JUMP JUMPDEST ISZERO PUSH2 0x1D29 JUMPI JUMP JUMPDEST PUSH1 0x40 MLOAD PUSH3 0x461BCD PUSH1 0xE5 SHL DUP2 MSTORE PUSH1 0x20 PUSH1 0x4 DUP3 ADD MSTORE PUSH1 0xE PUSH1 0x24 DUP3 ADD MSTORE PUSH14 0x125B9D985B1A5908185B5BDD5B9D PUSH1 0x92 SHL PUSH1 0x44 DUP3 ADD MSTORE PUSH1 0x64 SWAP1 REVERT JUMPDEST PUSH1 0x2 PUSH0 MLOAD PUSH1 0x20 PUSH2 0x1F62 PUSH0 CODECOPY PUSH0 MLOAD SWAP1 PUSH0 MSTORE SLOAD EQ PUSH2 0x1D88 JUMPI PUSH1 0x2 PUSH0 MLOAD PUSH1 0x20 PUSH2 0x1F62 PUSH0 CODECOPY PUSH0 MLOAD SWAP1 PUSH0 MSTORE SSTORE JUMP JUMPDEST PUSH4 0x3EE5AEB5 PUSH1 0xE0 SHL PUSH0 MSTORE PUSH1 0x4 PUSH0 REVERT JUMPDEST CALLER PUSH0 SWAP1 DUP2 MSTORE PUSH32 0x7D7FFB7A348E1C6A02869081A26547B49160DD3DF72D1D75A570EB9B698292EC PUSH1 0x20 MSTORE PUSH1 0x40 SWAP1 KECCAK256 SLOAD PUSH1 0xFF AND ISZERO PUSH2 0x1DCF JUMPI JUMP JUMPDEST PUSH4 0xE2517D3F PUSH1 0xE0 SHL PUSH0 MSTORE CALLER PUSH1 0x4 MSTORE PUSH32 0xA49807205CE4D355092EF5A8A18F56E8913CF4A201FBE287825B095693C21775 PUSH1 0x24 MSTORE PUSH1 0x44 PUSH0 REVERT JUMPDEST PUSH0 DUP2 DUP2 MSTORE PUSH1 0x20 DUP2 DUP2 MSTORE PUSH1 0x40 DUP1 DUP4 KECCAK256 CALLER DUP5 MSTORE SWAP1 SWAP2 MSTORE SWAP1 KECCAK256 SLOAD PUSH1 0xFF AND ISZERO PUSH2 0x1E28 JUMPI POP JUMP JUMPDEST PUSH4 0xE2517D3F PUSH1 0xE0 SHL PUSH0 MSTORE CALLER PUSH1 0x4 MSTORE PUSH1 0x24 MSTORE PUSH1 0x44 PUSH0 REVERT JUMPDEST PUSH0 DUP2 DUP2 MSTORE PUSH1 0x20 DUP2 DUP2 MSTORE PUSH1 0x40 DUP1 DUP4 KECCAK256 PUSH1 0x1 PUSH1 0x1 PUSH1 0xA0 SHL SUB DUP7 AND DUP5 MSTORE SWAP1 SWAP2 MSTORE SWAP1 KECCAK256 SLOAD PUSH1 0xFF AND PUSH2 0x1EC0 JUMPI PUSH0 DUP2 DUP2 MSTORE PUSH1 0x20 DUP2 DUP2 MSTORE PUSH1 0x40 DUP1 DUP4 KECCAK256 PUSH1 0x1 PUSH1 0x1 PUSH1 0xA0 SHL SUB SWAP6 SWAP1 SWAP6 AND DUP1 DUP5 MSTORE SWAP5 SWAP1 SWAP2 MSTORE DUP2 KECCAK256 DUP1 SLOAD PUSH1 0xFF NOT AND PUSH1 0x1 OR SWAP1 SSTORE CALLER SWAP3 SWAP2 SWAP1 PUSH32 0x2F8788117E7EFF1D82E926EC794901D17C78024A50270940304540A733656F0D SWAP1 DUP1 LOG4 PUSH1 0x1 SWAP1 JUMP JUMPDEST POP POP PUSH0 SWAP1 JUMP JUMPDEST PUSH0 DUP2 DUP2 MSTORE PUSH1 0x20 DUP2 DUP2 MSTORE PUSH1 0x40 DUP1 DUP4 KECCAK256 PUSH1 0x1 PUSH1 0x1 PUSH1 0xA0 SHL SUB DUP7 AND DUP5 MSTORE SWAP1 SWAP2 MSTORE SWAP1 KECCAK256 SLOAD PUSH1 0xFF AND ISZERO PUSH2 0x1EC0 JUMPI PUSH0 DUP2 DUP2 MSTORE PUSH1 0x20 DUP2 DUP2 MSTORE PUSH1 0x40 DUP1 DUP4 KECCAK256 PUSH1 0x1 PUSH1 0x1 PUSH1 0xA0 SHL SUB SWAP6 SWAP1 SWAP6 AND DUP1 DUP5 MSTORE SWAP5 SWAP1 SWAP2 MSTORE DUP2 KECCAK256 DUP1 SLOAD PUSH1 0xFF NOT AND SWAP1 SSTORE CALLER SWAP3 SWAP2 SWAP1 PUSH32 0xF6391F5C32D9C69D2A47EA670B442974B53935D1EDC7FD64EB21E047A839171B SWAP1 DUP1 LOG4 PUSH1 0x1 SWAP1 JUMP JUMPDEST PUSH1 0xFF PUSH1 0x1 SLOAD AND PUSH2 0x1F52 JUMPI JUMP JUMPDEST PUSH4 0xD93C0665 PUSH1 0xE0 SHL PUSH0 MSTORE PUSH1 0x4 PUSH0 REVERT INVALID SWAP12 PUSH24 0x9B17422D0DF92223018B32B4D1FA46E071723D6817E2486D STOP EXTCODESIZE 0xEC 0xC5 PUSH0 STOP LOG2 PUSH5 0x6970667358 0x22 SLT KECCAK256 BLOBBASEFEE 0xC1 ISZERO SWAP10 0x4F 0xAA PUSH10 0xFC929848BE04FC3AFFFF DUP10 CREATE2 EXTCODEHASH 0x4D 0x28 CHAINID SWAP8 GT 0xC2 COINBASE SUB PUSH5 0x20E9256473 PUSH16 0x6C634300081C00332F8788117E7EFF1D DUP3 0xE9 0x26 0xEC PUSH26 0x4901D17C78024A50270940304540A733656F0D89777FFFB7045C SWAP8 OR PUSH30 0x1161CD08D871365CB73D0B18F242761255A7718434CF7D7FFB7A348E1C6A MUL DUP7 SWAP1 DUP2 LOG2 PUSH6 0x47B49160DD3D 0xF7 0x2D SAR PUSH22 0xA570EB9B698292ECAD3228B676F7D3CD4284A5443F17 CALL SWAP7 0x2B CALLDATASIZE 0xE4 SWAP2 0xB3 EXP BLOCKHASH 0xB2 BLOCKHASH PC BLOBHASH 0xE5 SWAP8 0xBA PUSH0 0xB5 "},"methodIdentifiers":{"ADMIN_ROLE()":"75b238fc","ARBITER_ROLE()":"4d104adf","AUTO_CANCEL_TIME()":"2bfe73ae","DEFAULT_ADMIN_ROLE()":"a217fddf","MAX_BPS()":"fd967f47","acceptJob(uint256)":"63b2f3c9","autoCancel(uint256)":"06ba0473","completeJob(uint256)":"a1c0d32f","createJob(address,uint256,string)":"e8f16259","fundJob(uint256)":"8d22b863","getRoleAdmin(bytes32)":"248a9ca3","grantRole(bytes32,address)":"2f2ff15d","hasRole(bytes32,address)":"91d14854","jobs(uint256)":"180aedf3","openDispute(uint256,string)":"36f691c4","pause()":"8456cb59","paused()":"5c975abb","platformFeeBps()":"22dcd13e","renounceRole(bytes32,address)":"36568abe","reputation()":"c52164c6","resolveDispute(uint256,uint256)":"bdc84ac3","revokeRole(bytes32,address)":"d547741f","setFee(uint256)":"69fe0e2d","setTreasury(address)":"f0f44260","stableToken()":"a9d75b2b","submitWork(uint256)":"c4c11523","supportsInterface(bytes4)":"01ffc9a7","totalJobs()":"1ace87b3","treasury()":"61d027b3","unpause()":"3f4ba83a"}}}}}