{"project/contracts/VeritasReputation.sol":{"VeritasReputation":{"abi":[{"inputs":[{"internalType":"address","name":"identityAddress","type":"address"}],"stateMutability":"nonpayable","type":"constructor"},{"inputs":[],"name":"AccessControlBadConfirmation","type":"error"},{"inputs":[{"internalType":"address","name":"account","type":"address"},{"internalType":"bytes32","name":"neededRole","type":"bytes32"}],"name":"AccessControlUnauthorizedAccount","type":"error"},{"anonymous":false,"inputs":[{"indexed":true,"internalType":"uint256","name":"identityId","type":"uint256"},{"indexed":false,"internalType":"int256","name":"amount","type":"int256"},{"indexed":false,"internalType":"int256","name":"newScore","type":"int256"}],"name":"ReputationChanged","type":"event"},{"anonymous":false,"inputs":[{"indexed":true,"internalType":"bytes32","name":"role","type":"bytes32"},{"indexed":true,"internalType":"bytes32","name":"previousAdminRole","type":"bytes32"},{"indexed":true,"internalType":"bytes32","name":"newAdminRole","type":"bytes32"}],"name":"RoleAdminChanged","type":"event"},{"anonymous":false,"inputs":[{"indexed":true,"internalType":"bytes32","name":"role","type":"bytes32"},{"indexed":true,"internalType":"address","name":"account","type":"address"},{"indexed":true,"internalType":"address","name":"sender","type":"address"}],"name":"RoleGranted","type":"event"},{"anonymous":false,"inputs":[{"indexed":true,"internalType":"bytes32","name":"role","type":"bytes32"},{"indexed":true,"internalType":"address","name":"account","type":"address"},{"indexed":true,"internalType":"address","name":"sender","type":"address"}],"name":"RoleRevoked","type":"event"},{"inputs":[],"name":"DEFAULT_ADMIN_ROLE","outputs":[{"internalType":"bytes32","name":"","type":"bytes32"}],"stateMutability":"view","type":"function"},{"inputs":[],"name":"REPUTATION_MANAGER_ROLE","outputs":[{"internalType":"bytes32","name":"","type":"bytes32"}],"stateMutability":"view","type":"function"},{"inputs":[{"internalType":"address","name":"user","type":"address"},{"internalType":"int256","name":"amount","type":"int256"}],"name":"addReputation","outputs":[],"stateMutability":"nonpayable","type":"function"},{"inputs":[{"internalType":"address","name":"user","type":"address"}],"name":"getReputation","outputs":[{"internalType":"int256","name":"","type":"int256"}],"stateMutability":"view","type":"function"},{"inputs":[{"internalType":"bytes32","name":"role","type":"bytes32"}],"name":"getRoleAdmin","outputs":[{"internalType":"bytes32","name":"","type":"bytes32"}],"stateMutability":"view","type":"function"},{"inputs":[{"internalType":"bytes32","name":"role","type":"bytes32"},{"internalType":"address","name":"account","type":"address"}],"name":"grantRole","outputs":[],"stateMutability":"nonpayable","type":"function"},{"inputs":[{"internalType":"bytes32","name":"role","type":"bytes32"},{"internalType":"address","name":"account","type":"address"}],"name":"hasRole","outputs":[{"internalType":"bool","name":"","type":"bool"}],"stateMutability":"view","type":"function"},{"inputs":[],"name":"identityContract","outputs":[{"internalType":"contract IIdentityContract","name":"","type":"address"}],"stateMutability":"view","type":"function"},{"inputs":[{"internalType":"bytes32","name":"role","type":"bytes32"},{"internalType":"address","name":"callerConfirmation","type":"address"}],"name":"renounceRole","outputs":[],"stateMutability":"nonpayable","type":"function"},{"inputs":[{"internalType":"uint256","name":"","type":"uint256"}],"name":"reputation","outputs":[{"internalType":"int256","name":"","type":"int256"}],"stateMutability":"view","type":"function"},{"inputs":[{"internalType":"bytes32","name":"role","type":"bytes32"},{"internalType":"address","name":"account","type":"address"}],"name":"revokeRole","outputs":[],"stateMutability":"nonpayable","type":"function"},{"inputs":[{"internalType":"bytes4","name":"interfaceId","type":"bytes4"}],"name":"supportsInterface","outputs":[{"internalType":"bool","name":"","type":"bool"}],"stateMutability":"view","type":"function"}],"evm":{"bytecode":{"linkReferences":{},"object":"60803461008857601f61091838819003918201601f19168301916001600160401b0383118484101761008c5780849260209460405283398101031261008857516001600160a01b0381169081900361008857600180546001600160a01b03191691909117905561006e336100a0565b5061007833610116565b5060405161070e90816101aa8239f35b5f80fd5b634e487b7160e01b5f52604160045260245ffd5b6001600160a01b0381165f9081525f5160206108f85f395f51905f52602052604090205460ff16610111576001600160a01b03165f8181525f5160206108f85f395f51905f5260205260408120805460ff191660011790553391905f5160206108b85f395f51905f528180a4600190565b505f90565b6001600160a01b0381165f9081525f5160206108d85f395f51905f52602052604090205460ff16610111576001600160a01b03165f8181525f5160206108d85f395f51905f5260205260408120805460ff191660011790553391907fa5df84d05f94c8e589750a34f9631c6df369aabc0811ccbbd233872ff60aec66905f5160206108b85f395f51905f529080a460019056fe6080806040526004361015610012575f80fd5b5f3560e01c90816301ffc9a7146104e357508063248a9ca3146104b1578063283da495146103005780632f2ff15d146102c357806336568abe1461027f57806356c708d51461025557806367031bae1461022d57806391d14854146101e55780639c89a0e21461013c578063a217fddf14610122578063d547741f146100de5763eb0fd86a146100a0575f80fd5b346100da575f3660031901126100da5760206040517fa5df84d05f94c8e589750a34f9631c6df369aabc0811ccbbd233872ff60aec668152f35b5f80fd5b346100da5760403660031901126100da576101206004356100fd61054c565b9061011b610116825f525f602052600160405f20015490565b610598565b610658565b005b346100da575f3660031901126100da5760206040515f8152f35b346100da5760203660031901126100da57610155610536565b60015460405163010cf48d60e71b81526001600160a01b0392831660048201529160209183916024918391165afa9081156101da575f916101a8575b505f526002602052602060405f2054604051908152f35b90506020813d6020116101d2575b816101c360209383610562565b810103126100da575181610191565b3d91506101b6565b6040513d5f823e3d90fd5b346100da5760403660031901126100da576101fe61054c565b6004355f525f60205260405f209060018060a01b03165f52602052602060ff60405f2054166040519015158152f35b346100da575f3660031901126100da576001546040516001600160a01b039091168152602090f35b346100da5760203660031901126100da576004355f526002602052602060405f2054604051908152f35b346100da5760403660031901126100da5761029861054c565b336001600160a01b038216036102b45761012090600435610658565b63334bd91960e11b5f5260045ffd5b346100da5760403660031901126100da576101206004356102e261054c565b906102fb610116825f525f602052600160405f20015490565b6105d0565b346100da5760403660031901126100da57610319610536565b335f9081527fb470f2a4bcdb3397bb37cd2aed079057563c5c8c028f1abedb6d2e5f62946ce560205260409020546024359060ff161561047a5760015460405163010cf48d60e71b81526001600160a01b0393841660048201529260209184916024918391165afa9182156101da575f92610446575b50811561040f57815f52600260205260405f20805491808301925f82851291129080158216911516176103fb577fe3d64b666444d23421beabbe61125578c037a4d4109b478191fabd07208153349260409255835f526002602052815f205482519182526020820152a2005b634e487b7160e01b5f52601160045260245ffd5b60405162461bcd60e51b815260206004820152600f60248201526e139bc81a59195b9d1a5d1e48139195608a1b6044820152606490fd5b9091506020813d602011610472575b8161046260209383610562565b810103126100da5751908261038f565b3d9150610455565b63e2517d3f60e01b5f52336004527fa5df84d05f94c8e589750a34f9631c6df369aabc0811ccbbd233872ff60aec6660245260445ffd5b346100da5760203660031901126100da5760206104db6004355f525f602052600160405f20015490565b604051908152f35b346100da5760203660031901126100da576004359063ffffffff60e01b82168092036100da57602091637965db0b60e01b8114908115610525575b5015158152f35b6301ffc9a760e01b1490508361051e565b600435906001600160a01b03821682036100da57565b602435906001600160a01b03821682036100da57565b90601f8019910116810190811067ffffffffffffffff82111761058457604052565b634e487b7160e01b5f52604160045260245ffd5b5f8181526020818152604080832033845290915290205460ff16156105ba5750565b63e2517d3f60e01b5f523360045260245260445ffd5b5f818152602081815260408083206001600160a01b038616845290915290205460ff16610652575f818152602081815260408083206001600160a01b0395909516808452949091528120805460ff19166001179055339291907f2f8788117e7eff1d82e926ec794901d17c78024a50270940304540a733656f0d9080a4600190565b50505f90565b5f818152602081815260408083206001600160a01b038616845290915290205460ff1615610652575f818152602081815260408083206001600160a01b0395909516808452949091528120805460ff19169055339291907ff6391f5c32d9c69d2a47ea670b442974b53935d1edc7fd64eb21e047a839171b9080a460019056fea26469706673582212201f9e8787dde88c3dd9f24c37329179f2d0bd33f1ae98b2585007c343dd45e86c64736f6c634300081c00332f8788117e7eff1d82e926ec794901d17c78024a50270940304540a733656f0db470f2a4bcdb3397bb37cd2aed079057563c5c8c028f1abedb6d2e5f62946ce5ad3228b676f7d3cd4284a5443f17f1962b36e491b30a40b2405849e597ba5fb5","opcodes":"PUSH1 0x80 CALLVALUE PUSH2 0x88 JUMPI PUSH1 0x1F PUSH2 0x918 CODESIZE DUP2 SWAP1 SUB SWAP2 DUP3 ADD PUSH1 0x1F NOT AND DUP4 ADD SWAP2 PUSH1 0x1 PUSH1 0x1 PUSH1 0x40 SHL SUB DUP4 GT DUP5 DUP5 LT OR PUSH2 0x8C JUMPI DUP1 DUP5 SWAP3 PUSH1 0x20 SWAP5 PUSH1 0x40 MSTORE DUP4 CODECOPY DUP2 ADD SUB SLT PUSH2 0x88 JUMPI MLOAD PUSH1 0x1 PUSH1 0x1 PUSH1 0xA0 SHL SUB DUP2 AND SWAP1 DUP2 SWAP1 SUB PUSH2 0x88 JUMPI PUSH1 0x1 DUP1 SLOAD PUSH1 0x1 PUSH1 0x1 PUSH1 0xA0 SHL SUB NOT AND SWAP2 SWAP1 SWAP2 OR SWAP1 SSTORE PUSH2 0x6E CALLER PUSH2 0xA0 JUMP JUMPDEST POP PUSH2 0x78 CALLER PUSH2 0x116 JUMP JUMPDEST POP PUSH1 0x40 MLOAD PUSH2 0x70E SWAP1 DUP2 PUSH2 0x1AA DUP3 CODECOPY RETURN JUMPDEST PUSH0 DUP1 REVERT JUMPDEST PUSH4 0x4E487B71 PUSH1 0xE0 SHL PUSH0 MSTORE PUSH1 0x41 PUSH1 0x4 MSTORE PUSH1 0x24 PUSH0 REVERT JUMPDEST PUSH1 0x1 PUSH1 0x1 PUSH1 0xA0 SHL SUB DUP2 AND PUSH0 SWAP1 DUP2 MSTORE PUSH0 MLOAD PUSH1 0x20 PUSH2 0x8F8 PUSH0 CODECOPY PUSH0 MLOAD SWAP1 PUSH0 MSTORE PUSH1 0x20 MSTORE PUSH1 0x40 SWAP1 KECCAK256 SLOAD PUSH1 0xFF AND PUSH2 0x111 JUMPI PUSH1 0x1 PUSH1 0x1 PUSH1 0xA0 SHL SUB AND PUSH0 DUP2 DUP2 MSTORE PUSH0 MLOAD PUSH1 0x20 PUSH2 0x8F8 PUSH0 CODECOPY PUSH0 MLOAD SWAP1 PUSH0 MSTORE PUSH1 0x20 MSTORE PUSH1 0x40 DUP2 KECCAK256 DUP1 SLOAD PUSH1 0xFF NOT AND PUSH1 0x1 OR SWAP1 SSTORE CALLER SWAP2 SWAP1 PUSH0 MLOAD PUSH1 0x20 PUSH2 0x8B8 PUSH0 CODECOPY PUSH0 MLOAD SWAP1 PUSH0 MSTORE DUP2 DUP1 LOG4 PUSH1 0x1 SWAP1 JUMP JUMPDEST POP PUSH0 SWAP1 JUMP JUMPDEST PUSH1 0x1 PUSH1 0x1 PUSH1 0xA0 SHL SUB DUP2 AND PUSH0 SWAP1 DUP2 MSTORE PUSH0 MLOAD PUSH1 0x20 PUSH2 0x8D8 PUSH0 CODECOPY PUSH0 MLOAD SWAP1 PUSH0 MSTORE PUSH1 0x20 MSTORE PUSH1 0x40 SWAP1 KECCAK256 SLOAD PUSH1 0xFF AND PUSH2 0x111 JUMPI PUSH1 0x1 PUSH1 0x1 PUSH1 0xA0 SHL SUB AND PUSH0 DUP2 DUP2 MSTORE PUSH0 MLOAD PUSH1 0x20 PUSH2 0x8D8 PUSH0 CODECOPY PUSH0 MLOAD SWAP1 PUSH0 MSTORE PUSH1 0x20 MSTORE PUSH1 0x40 DUP2 KECCAK256 DUP1 SLOAD PUSH1 0xFF NOT AND PUSH1 0x1 OR SWAP1 SSTORE CALLER SWAP2 SWAP1 PUSH32 0xA5DF84D05F94C8E589750A34F9631C6DF369AABC0811CCBBD233872FF60AEC66 SWAP1 PUSH0 MLOAD PUSH1 0x20 PUSH2 0x8B8 PUSH0 CODECOPY PUSH0 MLOAD SWAP1 PUSH0 MSTORE SWAP1 DUP1 LOG4 PUSH1 0x1 SWAP1 JUMP INVALID PUSH1 0x80 DUP1 PUSH1 0x40 MSTORE PUSH1 0x4 CALLDATASIZE LT ISZERO PUSH2 0x12 JUMPI PUSH0 DUP1 REVERT JUMPDEST PUSH0 CALLDATALOAD PUSH1 0xE0 SHR SWAP1 DUP2 PUSH4 0x1FFC9A7 EQ PUSH2 0x4E3 JUMPI POP DUP1 PUSH4 0x248A9CA3 EQ PUSH2 0x4B1 JUMPI DUP1 PUSH4 0x283DA495 EQ PUSH2 0x300 JUMPI DUP1 PUSH4 0x2F2FF15D EQ PUSH2 0x2C3 JUMPI DUP1 PUSH4 0x36568ABE EQ PUSH2 0x27F JUMPI DUP1 PUSH4 0x56C708D5 EQ PUSH2 0x255 JUMPI DUP1 PUSH4 0x67031BAE EQ PUSH2 0x22D JUMPI DUP1 PUSH4 0x91D14854 EQ PUSH2 0x1E5 JUMPI DUP1 PUSH4 0x9C89A0E2 EQ PUSH2 0x13C JUMPI DUP1 PUSH4 0xA217FDDF EQ PUSH2 0x122 JUMPI DUP1 PUSH4 0xD547741F EQ PUSH2 0xDE JUMPI PUSH4 0xEB0FD86A EQ PUSH2 0xA0 JUMPI PUSH0 DUP1 REVERT JUMPDEST CALLVALUE PUSH2 0xDA JUMPI PUSH0 CALLDATASIZE PUSH1 0x3 NOT ADD SLT PUSH2 0xDA JUMPI PUSH1 0x20 PUSH1 0x40 MLOAD PUSH32 0xA5DF84D05F94C8E589750A34F9631C6DF369AABC0811CCBBD233872FF60AEC66 DUP2 MSTORE RETURN JUMPDEST PUSH0 DUP1 REVERT JUMPDEST CALLVALUE PUSH2 0xDA JUMPI PUSH1 0x40 CALLDATASIZE PUSH1 0x3 NOT ADD SLT PUSH2 0xDA JUMPI PUSH2 0x120 PUSH1 0x4 CALLDATALOAD PUSH2 0xFD PUSH2 0x54C JUMP JUMPDEST SWAP1 PUSH2 0x11B PUSH2 0x116 DUP3 PUSH0 MSTORE PUSH0 PUSH1 0x20 MSTORE PUSH1 0x1 PUSH1 0x40 PUSH0 KECCAK256 ADD SLOAD SWAP1 JUMP JUMPDEST PUSH2 0x598 JUMP JUMPDEST PUSH2 0x658 JUMP JUMPDEST STOP JUMPDEST CALLVALUE PUSH2 0xDA JUMPI PUSH0 CALLDATASIZE PUSH1 0x3 NOT ADD SLT PUSH2 0xDA JUMPI PUSH1 0x20 PUSH1 0x40 MLOAD PUSH0 DUP2 MSTORE RETURN JUMPDEST CALLVALUE PUSH2 0xDA JUMPI PUSH1 0x20 CALLDATASIZE PUSH1 0x3 NOT ADD SLT PUSH2 0xDA JUMPI PUSH2 0x155 PUSH2 0x536 JUMP JUMPDEST PUSH1 0x1 SLOAD PUSH1 0x40 MLOAD PUSH4 0x10CF48D PUSH1 0xE7 SHL DUP2 MSTORE PUSH1 0x1 PUSH1 0x1 PUSH1 0xA0 SHL SUB SWAP3 DUP4 AND PUSH1 0x4 DUP3 ADD MSTORE SWAP2 PUSH1 0x20 SWAP2 DUP4 SWAP2 PUSH1 0x24 SWAP2 DUP4 SWAP2 AND GAS STATICCALL SWAP1 DUP2 ISZERO PUSH2 0x1DA JUMPI PUSH0 SWAP2 PUSH2 0x1A8 JUMPI JUMPDEST POP PUSH0 MSTORE PUSH1 0x2 PUSH1 0x20 MSTORE PUSH1 0x20 PUSH1 0x40 PUSH0 KECCAK256 SLOAD PUSH1 0x40 MLOAD SWAP1 DUP2 MSTORE RETURN JUMPDEST SWAP1 POP PUSH1 0x20 DUP2 RETURNDATASIZE PUSH1 0x20 GT PUSH2 0x1D2 JUMPI JUMPDEST DUP2 PUSH2 0x1C3 PUSH1 0x20 SWAP4 DUP4 PUSH2 0x562 JUMP JUMPDEST DUP2 ADD SUB SLT PUSH2 0xDA JUMPI MLOAD DUP2 PUSH2 0x191 JUMP JUMPDEST RETURNDATASIZE SWAP2 POP PUSH2 0x1B6 JUMP JUMPDEST PUSH1 0x40 MLOAD RETURNDATASIZE PUSH0 DUP3 RETURNDATACOPY RETURNDATASIZE SWAP1 REVERT JUMPDEST CALLVALUE PUSH2 0xDA JUMPI PUSH1 0x40 CALLDATASIZE PUSH1 0x3 NOT ADD SLT PUSH2 0xDA JUMPI PUSH2 0x1FE PUSH2 0x54C JUMP JUMPDEST PUSH1 0x4 CALLDATALOAD PUSH0 MSTORE PUSH0 PUSH1 0x20 MSTORE PUSH1 0x40 PUSH0 KECCAK256 SWAP1 PUSH1 0x1 DUP1 PUSH1 0xA0 SHL SUB AND PUSH0 MSTORE PUSH1 0x20 MSTORE PUSH1 0x20 PUSH1 0xFF PUSH1 0x40 PUSH0 KECCAK256 SLOAD AND PUSH1 0x40 MLOAD SWAP1 ISZERO ISZERO DUP2 MSTORE RETURN JUMPDEST CALLVALUE PUSH2 0xDA JUMPI PUSH0 CALLDATASIZE PUSH1 0x3 NOT ADD SLT PUSH2 0xDA JUMPI PUSH1 0x1 SLOAD PUSH1 0x40 MLOAD PUSH1 0x1 PUSH1 0x1 PUSH1 0xA0 SHL SUB SWAP1 SWAP2 AND DUP2 MSTORE PUSH1 0x20 SWAP1 RETURN JUMPDEST CALLVALUE PUSH2 0xDA JUMPI PUSH1 0x20 CALLDATASIZE PUSH1 0x3 NOT ADD SLT PUSH2 0xDA JUMPI PUSH1 0x4 CALLDATALOAD PUSH0 MSTORE PUSH1 0x2 PUSH1 0x20 MSTORE PUSH1 0x20 PUSH1 0x40 PUSH0 KECCAK256 SLOAD PUSH1 0x40 MLOAD SWAP1 DUP2 MSTORE RETURN JUMPDEST CALLVALUE PUSH2 0xDA JUMPI PUSH1 0x40 CALLDATASIZE PUSH1 0x3 NOT ADD SLT PUSH2 0xDA JUMPI PUSH2 0x298 PUSH2 0x54C JUMP JUMPDEST CALLER PUSH1 0x1 PUSH1 0x1 PUSH1 0xA0 SHL SUB DUP3 AND SUB PUSH2 0x2B4 JUMPI PUSH2 0x120 SWAP1 PUSH1 0x4 CALLDATALOAD PUSH2 0x658 JUMP JUMPDEST PUSH4 0x334BD919 PUSH1 0xE1 SHL PUSH0 MSTORE PUSH1 0x4 PUSH0 REVERT JUMPDEST CALLVALUE PUSH2 0xDA JUMPI PUSH1 0x40 CALLDATASIZE PUSH1 0x3 NOT ADD SLT PUSH2 0xDA JUMPI PUSH2 0x120 PUSH1 0x4 CALLDATALOAD PUSH2 0x2E2 PUSH2 0x54C JUMP JUMPDEST SWAP1 PUSH2 0x2FB PUSH2 0x116 DUP3 PUSH0 MSTORE PUSH0 PUSH1 0x20 MSTORE PUSH1 0x1 PUSH1 0x40 PUSH0 KECCAK256 ADD SLOAD SWAP1 JUMP JUMPDEST PUSH2 0x5D0 JUMP JUMPDEST CALLVALUE PUSH2 0xDA JUMPI PUSH1 0x40 CALLDATASIZE PUSH1 0x3 NOT ADD SLT PUSH2 0xDA JUMPI PUSH2 0x319 PUSH2 0x536 JUMP JUMPDEST CALLER PUSH0 SWAP1 DUP2 MSTORE PUSH32 0xB470F2A4BCDB3397BB37CD2AED079057563C5C8C028F1ABEDB6D2E5F62946CE5 PUSH1 0x20 MSTORE PUSH1 0x40 SWAP1 KECCAK256 SLOAD PUSH1 0x24 CALLDATALOAD SWAP1 PUSH1 0xFF AND ISZERO PUSH2 0x47A JUMPI PUSH1 0x1 SLOAD PUSH1 0x40 MLOAD PUSH4 0x10CF48D PUSH1 0xE7 SHL DUP2 MSTORE PUSH1 0x1 PUSH1 0x1 PUSH1 0xA0 SHL SUB SWAP4 DUP5 AND PUSH1 0x4 DUP3 ADD MSTORE SWAP3 PUSH1 0x20 SWAP2 DUP5 SWAP2 PUSH1 0x24 SWAP2 DUP4 SWAP2 AND GAS STATICCALL SWAP2 DUP3 ISZERO PUSH2 0x1DA JUMPI PUSH0 SWAP3 PUSH2 0x446 JUMPI JUMPDEST POP DUP2 ISZERO PUSH2 0x40F JUMPI DUP2 PUSH0 MSTORE PUSH1 0x2 PUSH1 0x20 MSTORE PUSH1 0x40 PUSH0 KECCAK256 DUP1 SLOAD SWAP2 DUP1 DUP4 ADD SWAP3 PUSH0 DUP3 DUP6 SLT SWAP2 SLT SWAP1 DUP1 ISZERO DUP3 AND SWAP2 ISZERO AND OR PUSH2 0x3FB JUMPI PUSH32 0xE3D64B666444D23421BEABBE61125578C037A4D4109B478191FABD0720815334 SWAP3 PUSH1 0x40 SWAP3 SSTORE DUP4 PUSH0 MSTORE PUSH1 0x2 PUSH1 0x20 MSTORE DUP2 PUSH0 KECCAK256 SLOAD DUP3 MLOAD SWAP2 DUP3 MSTORE PUSH1 0x20 DUP3 ADD MSTORE LOG2 STOP JUMPDEST PUSH4 0x4E487B71 PUSH1 0xE0 SHL PUSH0 MSTORE PUSH1 0x11 PUSH1 0x4 MSTORE PUSH1 0x24 PUSH0 REVERT JUMPDEST PUSH1 0x40 MLOAD PUSH3 0x461BCD PUSH1 0xE5 SHL DUP2 MSTORE PUSH1 0x20 PUSH1 0x4 DUP3 ADD MSTORE PUSH1 0xF PUSH1 0x24 DUP3 ADD MSTORE PUSH15 0x139BC81A59195B9D1A5D1E48139195 PUSH1 0x8A SHL PUSH1 0x44 DUP3 ADD MSTORE PUSH1 0x64 SWAP1 REVERT JUMPDEST SWAP1 SWAP2 POP PUSH1 0x20 DUP2 RETURNDATASIZE PUSH1 0x20 GT PUSH2 0x472 JUMPI JUMPDEST DUP2 PUSH2 0x462 PUSH1 0x20 SWAP4 DUP4 PUSH2 0x562 JUMP JUMPDEST DUP2 ADD SUB SLT PUSH2 0xDA JUMPI MLOAD SWAP1 DUP3 PUSH2 0x38F JUMP JUMPDEST RETURNDATASIZE SWAP2 POP PUSH2 0x455 JUMP JUMPDEST PUSH4 0xE2517D3F PUSH1 0xE0 SHL PUSH0 MSTORE CALLER PUSH1 0x4 MSTORE PUSH32 0xA5DF84D05F94C8E589750A34F9631C6DF369AABC0811CCBBD233872FF60AEC66 PUSH1 0x24 MSTORE PUSH1 0x44 PUSH0 REVERT JUMPDEST CALLVALUE PUSH2 0xDA JUMPI PUSH1 0x20 CALLDATASIZE PUSH1 0x3 NOT ADD SLT PUSH2 0xDA JUMPI PUSH1 0x20 PUSH2 0x4DB PUSH1 0x4 CALLDATALOAD PUSH0 MSTORE PUSH0 PUSH1 0x20 MSTORE PUSH1 0x1 PUSH1 0x40 PUSH0 KECCAK256 ADD SLOAD SWAP1 JUMP JUMPDEST PUSH1 0x40 MLOAD SWAP1 DUP2 MSTORE RETURN JUMPDEST CALLVALUE PUSH2 0xDA JUMPI PUSH1 0x20 CALLDATASIZE PUSH1 0x3 NOT ADD SLT PUSH2 0xDA JUMPI PUSH1 0x4 CALLDATALOAD SWAP1 PUSH4 0xFFFFFFFF PUSH1 0xE0 SHL DUP3 AND DUP1 SWAP3 SUB PUSH2 0xDA JUMPI PUSH1 0x20 SWAP2 PUSH4 0x7965DB0B PUSH1 0xE0 SHL DUP2 EQ SWAP1 DUP2 ISZERO PUSH2 0x525 JUMPI JUMPDEST POP ISZERO ISZERO DUP2 MSTORE RETURN JUMPDEST PUSH4 0x1FFC9A7 PUSH1 0xE0 SHL EQ SWAP1 POP DUP4 PUSH2 0x51E JUMP JUMPDEST PUSH1 0x4 CALLDATALOAD SWAP1 PUSH1 0x1 PUSH1 0x1 PUSH1 0xA0 SHL SUB DUP3 AND DUP3 SUB PUSH2 0xDA JUMPI JUMP JUMPDEST PUSH1 0x24 CALLDATALOAD SWAP1 PUSH1 0x1 PUSH1 0x1 PUSH1 0xA0 SHL SUB DUP3 AND DUP3 SUB PUSH2 0xDA JUMPI JUMP JUMPDEST SWAP1 PUSH1 0x1F DUP1 NOT SWAP2 ADD AND DUP2 ADD SWAP1 DUP2 LT PUSH8 0xFFFFFFFFFFFFFFFF DUP3 GT OR PUSH2 0x584 JUMPI PUSH1 0x40 MSTORE JUMP JUMPDEST PUSH4 0x4E487B71 PUSH1 0xE0 SHL PUSH0 MSTORE PUSH1 0x41 PUSH1 0x4 MSTORE PUSH1 0x24 PUSH0 REVERT JUMPDEST PUSH0 DUP2 DUP2 MSTORE PUSH1 0x20 DUP2 DUP2 MSTORE PUSH1 0x40 DUP1 DUP4 KECCAK256 CALLER DUP5 MSTORE SWAP1 SWAP2 MSTORE SWAP1 KECCAK256 SLOAD PUSH1 0xFF AND ISZERO PUSH2 0x5BA JUMPI POP JUMP JUMPDEST PUSH4 0xE2517D3F PUSH1 0xE0 SHL PUSH0 MSTORE CALLER PUSH1 0x4 MSTORE PUSH1 0x24 MSTORE PUSH1 0x44 PUSH0 REVERT JUMPDEST PUSH0 DUP2 DUP2 MSTORE PUSH1 0x20 DUP2 DUP2 MSTORE PUSH1 0x40 DUP1 DUP4 KECCAK256 PUSH1 0x1 PUSH1 0x1 PUSH1 0xA0 SHL SUB DUP7 AND DUP5 MSTORE SWAP1 SWAP2 MSTORE SWAP1 KECCAK256 SLOAD PUSH1 0xFF AND PUSH2 0x652 JUMPI PUSH0 DUP2 DUP2 MSTORE PUSH1 0x20 DUP2 DUP2 MSTORE PUSH1 0x40 DUP1 DUP4 KECCAK256 PUSH1 0x1 PUSH1 0x1 PUSH1 0xA0 SHL SUB SWAP6 SWAP1 SWAP6 AND DUP1 DUP5 MSTORE SWAP5 SWAP1 SWAP2 MSTORE DUP2 KECCAK256 DUP1 SLOAD PUSH1 0xFF NOT AND PUSH1 0x1 OR SWAP1 SSTORE CALLER SWAP3 SWAP2 SWAP1 PUSH32 0x2F8788117E7EFF1D82E926EC794901D17C78024A50270940304540A733656F0D SWAP1 DUP1 LOG4 PUSH1 0x1 SWAP1 JUMP JUMPDEST POP POP PUSH0 SWAP1 JUMP JUMPDEST PUSH0 DUP2 DUP2 MSTORE PUSH1 0x20 DUP2 DUP2 MSTORE PUSH1 0x40 DUP1 DUP4 KECCAK256 PUSH1 0x1 PUSH1 0x1 PUSH1 0xA0 SHL SUB DUP7 AND DUP5 MSTORE SWAP1 SWAP2 MSTORE SWAP1 KECCAK256 SLOAD PUSH1 0xFF AND ISZERO PUSH2 0x652 JUMPI PUSH0 DUP2 DUP2 MSTORE PUSH1 0x20 DUP2 DUP2 MSTORE PUSH1 0x40 DUP1 DUP4 KECCAK256 PUSH1 0x1 PUSH1 0x1 PUSH1 0xA0 SHL SUB SWAP6 SWAP1 SWAP6 AND DUP1 DUP5 MSTORE SWAP5 SWAP1 SWAP2 MSTORE DUP2 KECCAK256 DUP1 SLOAD PUSH1 0xFF NOT AND SWAP1 SSTORE CALLER SWAP3 SWAP2 SWAP1 PUSH32 0xF6391F5C32D9C69D2A47EA670B442974B53935D1EDC7FD64EB21E047A839171B SWAP1 DUP1 LOG4 PUSH1 0x1 SWAP1 JUMP INVALID LOG2 PUSH5 0x6970667358 0x22 SLT KECCAK256 0x1F SWAP15 DUP8 DUP8 0xDD 0xE8 DUP13 RETURNDATASIZE 0xD9 CALLCODE 0x4C CALLDATACOPY ORIGIN SWAP2 PUSH26 0xF2D0BD33F1AE98B2585007C343DD45E86C64736F6C634300081C STOP CALLER 0x2F DUP8 DUP9 GT PUSH31 0x7EFF1D82E926EC794901D17C78024A50270940304540A733656F0DB470F2A4 0xBC 0xDB CALLER SWAP8 0xBB CALLDATACOPY 0xCD 0x2A 0xED SMOD SWAP1 JUMPI JUMP EXTCODECOPY TLOAD DUP13 MUL DUP16 BYTE 0xBE 0xDB PUSH14 0x2E5F62946CE5AD3228B676F7D3CD TIMESTAMP DUP5 0xA5 PREVRANDAO EXTCODEHASH OR CALL SWAP7 0x2B CALLDATASIZE 0xE4 SWAP2 0xB3 EXP BLOCKHASH 0xB2 BLOCKHASH PC BLOBHASH 0xE5 SWAP8 0xBA PUSH0 0xB5 "},"methodIdentifiers":{"DEFAULT_ADMIN_ROLE()":"a217fddf","REPUTATION_MANAGER_ROLE()":"eb0fd86a","addReputation(address,int256)":"283da495","getReputation(address)":"9c89a0e2","getRoleAdmin(bytes32)":"248a9ca3","grantRole(bytes32,address)":"2f2ff15d","hasRole(bytes32,address)":"91d14854","identityContract()":"67031bae","renounceRole(bytes32,address)":"36568abe","reputation(uint256)":"56c708d5","revokeRole(bytes32,address)":"d547741f","supportsInterface(bytes4)":"01ffc9a7"}}}}}