{"project/contracts/VeritasRegistry.sol":{"VeritasRegistry":{"abi":[{"inputs":[{"internalType":"address","name":"initialOwner","type":"address"}],"stateMutability":"nonpayable","type":"constructor"},{"inputs":[{"internalType":"address","name":"owner","type":"address"}],"name":"OwnableInvalidOwner","type":"error"},{"inputs":[{"internalType":"address","name":"account","type":"address"}],"name":"OwnableUnauthorizedAccount","type":"error"},{"anonymous":false,"inputs":[{"indexed":true,"internalType":"string","name":"contractName","type":"string"},{"indexed":true,"internalType":"address","name":"contractAddress","type":"address"}],"name":"ContractUpdated","type":"event"},{"anonymous":false,"inputs":[{"indexed":true,"internalType":"address","name":"previousOwner","type":"address"},{"indexed":true,"internalType":"address","name":"newOwner","type":"address"}],"name":"OwnershipTransferred","type":"event"},{"inputs":[],"name":"attestationContract","outputs":[{"internalType":"address","name":"","type":"address"}],"stateMutability":"view","type":"function"},{"inputs":[],"name":"escrowContract","outputs":[{"internalType":"address","name":"","type":"address"}],"stateMutability":"view","type":"function"},{"inputs":[],"name":"identityContract","outputs":[{"internalType":"address","name":"","type":"address"}],"stateMutability":"view","type":"function"},{"inputs":[],"name":"owner","outputs":[{"internalType":"address","name":"","type":"address"}],"stateMutability":"view","type":"function"},{"inputs":[],"name":"renounceOwnership","outputs":[],"stateMutability":"nonpayable","type":"function"},{"inputs":[],"name":"reputationContract","outputs":[{"internalType":"address","name":"","type":"address"}],"stateMutability":"view","type":"function"},{"inputs":[{"internalType":"address","name":"contractAddress","type":"address"}],"name":"setAttestationContract","outputs":[],"stateMutability":"nonpayable","type":"function"},{"inputs":[{"internalType":"address","name":"contractAddress","type":"address"}],"name":"setEscrowContract","outputs":[],"stateMutability":"nonpayable","type":"function"},{"inputs":[{"internalType":"address","name":"contractAddress","type":"address"}],"name":"setIdentityContract","outputs":[],"stateMutability":"nonpayable","type":"function"},{"inputs":[{"internalType":"address","name":"contractAddress","type":"address"}],"name":"setReputationContract","outputs":[],"stateMutability":"nonpayable","type":"function"},{"inputs":[{"internalType":"address","name":"newOwner","type":"address"}],"name":"transferOwnership","outputs":[],"stateMutability":"nonpayable","type":"function"}],"evm":{"bytecode":{"linkReferences":{},"object":"60803460b857601f61059f38819003918201601f19168301916001600160401b0383118484101760bc5780849260209460405283398101031260b857516001600160a01b0381169081900360b857801560a5575f80546001600160a01b031981168317825560405192916001600160a01b03909116907f8be0079c531659141344cd1fd0a4f28419497f9722a3daafe3b4186f6b6457e09080a36104ce90816100d18239f35b631e4fbdf760e01b5f525f60045260245ffd5b5f80fd5b634e487b7160e01b5f52604160045260245ffdfe6080806040526004361015610012575f80fd5b5f3560e01c90816367031bae1461042f5750806369b0281a146103a7578063715018a61461035057806387bc14251461032857806387be6d4e146103005780638da5cb5b146102d95780639584660f14610252578063e42a96e71461022a578063e6d5864b146101a5578063f2fde38b1461011c5763f42375b514610095575f80fd5b34610118576020366003190112610118576004356001600160a01b03811690819003610118576100c3610452565b600480546001600160a01b0319168217905560405165455343524f5760d01b90527fec65f3768c67dd95917a64d08779b9df7c91e554dfa1706fe941835bebd92ea75f5160206104795f395f51905f525f80a3005b5f80fd5b34610118576020366003190112610118576004356001600160a01b038116908190036101185761014a610452565b8015610192575f80546001600160a01b03198116831782556001600160a01b0316907f8be0079c531659141344cd1fd0a4f28419497f9722a3daafe3b4186f6b6457e09080a3005b631e4fbdf760e01b5f525f60045260245ffd5b34610118576020366003190112610118576004356001600160a01b03811690819003610118576101d3610452565b600180546001600160a01b03191682179055604051674944454e5449545960c01b90527f377799b22fba826cf24c3f07e6731c67676765addcee33415a2c80d453d4ed6e5f5160206104795f395f51905f525f80a3005b34610118575f366003190112610118576004546040516001600160a01b039091168152602090f35b34610118576020366003190112610118576004356001600160a01b0381169081900361011857610280610452565b600280546001600160a01b03191682179055604051692922a82aaa20aa24a7a760b11b90527fb272b255af9ebc4e3c4c228fe6e29bf8bdbd956cdedc5428fa50147d4bda2f875f5160206104795f395f51905f525f80a3005b34610118575f366003190112610118575f546040516001600160a01b039091168152602090f35b34610118575f366003190112610118576003546040516001600160a01b039091168152602090f35b34610118575f366003190112610118576002546040516001600160a01b039091168152602090f35b34610118575f36600319011261011857610368610452565b5f80546001600160a01b0319811682556001600160a01b03167f8be0079c531659141344cd1fd0a4f28419497f9722a3daafe3b4186f6b6457e08280a3005b34610118576020366003190112610118576004356001600160a01b03811690819003610118576103d5610452565b600380546001600160a01b031916821790556040516a20aa2a22a9aa20aa24a7a760a91b90527fc46037fe928cf6716a48e4f9530cbd057a6fb9ddd40b7cbba4ca8c6b3d4cdb5b5f5160206104795f395f51905f525f80a3005b34610118575f366003190112610118576001546001600160a01b03168152602090f35b5f546001600160a01b0316330361046557565b63118cdaa760e01b5f523360045260245ffdfef611fec7babefd259c57ea5b6006acff8140ab17bb816c65ba0aa7e36c09caa8a2646970667358221220a94f94677574075bd4bad9642f2b786fd1aaaf647f716583f29ba0bf43ebedad64736f6c634300081c0033","opcodes":"PUSH1 0x80 CALLVALUE PUSH1 0xB8 JUMPI PUSH1 0x1F PUSH2 0x59F CODESIZE DUP2 SWAP1 SUB SWAP2 DUP3 ADD PUSH1 0x1F NOT AND DUP4 ADD SWAP2 PUSH1 0x1 PUSH1 0x1 PUSH1 0x40 SHL SUB DUP4 GT DUP5 DUP5 LT OR PUSH1 0xBC JUMPI DUP1 DUP5 SWAP3 PUSH1 0x20 SWAP5 PUSH1 0x40 MSTORE DUP4 CODECOPY DUP2 ADD SUB SLT PUSH1 0xB8 JUMPI MLOAD PUSH1 0x1 PUSH1 0x1 PUSH1 0xA0 SHL SUB DUP2 AND SWAP1 DUP2 SWAP1 SUB PUSH1 0xB8 JUMPI DUP1 ISZERO PUSH1 0xA5 JUMPI PUSH0 DUP1 SLOAD PUSH1 0x1 PUSH1 0x1 PUSH1 0xA0 SHL SUB NOT DUP2 AND DUP4 OR DUP3 SSTORE PUSH1 0x40 MLOAD SWAP3 SWAP2 PUSH1 0x1 PUSH1 0x1 PUSH1 0xA0 SHL SUB SWAP1 SWAP2 AND SWAP1 PUSH32 0x8BE0079C531659141344CD1FD0A4F28419497F9722A3DAAFE3B4186F6B6457E0 SWAP1 DUP1 LOG3 PUSH2 0x4CE SWAP1 DUP2 PUSH2 0xD1 DUP3 CODECOPY RETURN JUMPDEST PUSH4 0x1E4FBDF7 PUSH1 0xE0 SHL PUSH0 MSTORE PUSH0 PUSH1 0x4 MSTORE PUSH1 0x24 PUSH0 REVERT JUMPDEST PUSH0 DUP1 REVERT JUMPDEST PUSH4 0x4E487B71 PUSH1 0xE0 SHL PUSH0 MSTORE PUSH1 0x41 PUSH1 0x4 MSTORE PUSH1 0x24 PUSH0 REVERT INVALID PUSH1 0x80 DUP1 PUSH1 0x40 MSTORE PUSH1 0x4 CALLDATASIZE LT ISZERO PUSH2 0x12 JUMPI PUSH0 DUP1 REVERT JUMPDEST PUSH0 CALLDATALOAD PUSH1 0xE0 SHR SWAP1 DUP2 PUSH4 0x67031BAE EQ PUSH2 0x42F JUMPI POP DUP1 PUSH4 0x69B0281A EQ PUSH2 0x3A7 JUMPI DUP1 PUSH4 0x715018A6 EQ PUSH2 0x350 JUMPI DUP1 PUSH4 0x87BC1425 EQ PUSH2 0x328 JUMPI DUP1 PUSH4 0x87BE6D4E EQ PUSH2 0x300 JUMPI DUP1 PUSH4 0x8DA5CB5B EQ PUSH2 0x2D9 JUMPI DUP1 PUSH4 0x9584660F EQ PUSH2 0x252 JUMPI DUP1 PUSH4 0xE42A96E7 EQ PUSH2 0x22A JUMPI DUP1 PUSH4 0xE6D5864B EQ PUSH2 0x1A5 JUMPI DUP1 PUSH4 0xF2FDE38B EQ PUSH2 0x11C JUMPI PUSH4 0xF42375B5 EQ PUSH2 0x95 JUMPI PUSH0 DUP1 REVERT JUMPDEST CALLVALUE PUSH2 0x118 JUMPI PUSH1 0x20 CALLDATASIZE PUSH1 0x3 NOT ADD SLT PUSH2 0x118 JUMPI PUSH1 0x4 CALLDATALOAD PUSH1 0x1 PUSH1 0x1 PUSH1 0xA0 SHL SUB DUP2 AND SWAP1 DUP2 SWAP1 SUB PUSH2 0x118 JUMPI PUSH2 0xC3 PUSH2 0x452 JUMP JUMPDEST PUSH1 0x4 DUP1 SLOAD PUSH1 0x1 PUSH1 0x1 PUSH1 0xA0 SHL SUB NOT AND DUP3 OR SWAP1 SSTORE PUSH1 0x40 MLOAD PUSH6 0x455343524F57 PUSH1 0xD0 SHL SWAP1 MSTORE PUSH32 0xEC65F3768C67DD95917A64D08779B9DF7C91E554DFA1706FE941835BEBD92EA7 PUSH0 MLOAD PUSH1 0x20 PUSH2 0x479 PUSH0 CODECOPY PUSH0 MLOAD SWAP1 PUSH0 MSTORE PUSH0 DUP1 LOG3 STOP JUMPDEST PUSH0 DUP1 REVERT JUMPDEST CALLVALUE PUSH2 0x118 JUMPI PUSH1 0x20 CALLDATASIZE PUSH1 0x3 NOT ADD SLT PUSH2 0x118 JUMPI PUSH1 0x4 CALLDATALOAD PUSH1 0x1 PUSH1 0x1 PUSH1 0xA0 SHL SUB DUP2 AND SWAP1 DUP2 SWAP1 SUB PUSH2 0x118 JUMPI PUSH2 0x14A PUSH2 0x452 JUMP JUMPDEST DUP1 ISZERO PUSH2 0x192 JUMPI PUSH0 DUP1 SLOAD PUSH1 0x1 PUSH1 0x1 PUSH1 0xA0 SHL SUB NOT DUP2 AND DUP4 OR DUP3 SSTORE PUSH1 0x1 PUSH1 0x1 PUSH1 0xA0 SHL SUB AND SWAP1 PUSH32 0x8BE0079C531659141344CD1FD0A4F28419497F9722A3DAAFE3B4186F6B6457E0 SWAP1 DUP1 LOG3 STOP JUMPDEST PUSH4 0x1E4FBDF7 PUSH1 0xE0 SHL PUSH0 MSTORE PUSH0 PUSH1 0x4 MSTORE PUSH1 0x24 PUSH0 REVERT JUMPDEST CALLVALUE PUSH2 0x118 JUMPI PUSH1 0x20 CALLDATASIZE PUSH1 0x3 NOT ADD SLT PUSH2 0x118 JUMPI PUSH1 0x4 CALLDATALOAD PUSH1 0x1 PUSH1 0x1 PUSH1 0xA0 SHL SUB DUP2 AND SWAP1 DUP2 SWAP1 SUB PUSH2 0x118 JUMPI PUSH2 0x1D3 PUSH2 0x452 JUMP JUMPDEST PUSH1 0x1 DUP1 SLOAD PUSH1 0x1 PUSH1 0x1 PUSH1 0xA0 SHL SUB NOT AND DUP3 OR SWAP1 SSTORE PUSH1 0x40 MLOAD PUSH8 0x4944454E54495459 PUSH1 0xC0 SHL SWAP1 MSTORE PUSH32 0x377799B22FBA826CF24C3F07E6731C67676765ADDCEE33415A2C80D453D4ED6E PUSH0 MLOAD PUSH1 0x20 PUSH2 0x479 PUSH0 CODECOPY PUSH0 MLOAD SWAP1 PUSH0 MSTORE PUSH0 DUP1 LOG3 STOP JUMPDEST CALLVALUE PUSH2 0x118 JUMPI PUSH0 CALLDATASIZE PUSH1 0x3 NOT ADD SLT PUSH2 0x118 JUMPI PUSH1 0x4 SLOAD PUSH1 0x40 MLOAD PUSH1 0x1 PUSH1 0x1 PUSH1 0xA0 SHL SUB SWAP1 SWAP2 AND DUP2 MSTORE PUSH1 0x20 SWAP1 RETURN JUMPDEST CALLVALUE PUSH2 0x118 JUMPI PUSH1 0x20 CALLDATASIZE PUSH1 0x3 NOT ADD SLT PUSH2 0x118 JUMPI PUSH1 0x4 CALLDATALOAD PUSH1 0x1 PUSH1 0x1 PUSH1 0xA0 SHL SUB DUP2 AND SWAP1 DUP2 SWAP1 SUB PUSH2 0x118 JUMPI PUSH2 0x280 PUSH2 0x452 JUMP JUMPDEST PUSH1 0x2 DUP1 SLOAD PUSH1 0x1 PUSH1 0x1 PUSH1 0xA0 SHL SUB NOT AND DUP3 OR SWAP1 SSTORE PUSH1 0x40 MLOAD PUSH10 0x2922A82AAA20AA24A7A7 PUSH1 0xB1 SHL SWAP1 MSTORE PUSH32 0xB272B255AF9EBC4E3C4C228FE6E29BF8BDBD956CDEDC5428FA50147D4BDA2F87 PUSH0 MLOAD PUSH1 0x20 PUSH2 0x479 PUSH0 CODECOPY PUSH0 MLOAD SWAP1 PUSH0 MSTORE PUSH0 DUP1 LOG3 STOP JUMPDEST CALLVALUE PUSH2 0x118 JUMPI PUSH0 CALLDATASIZE PUSH1 0x3 NOT ADD SLT PUSH2 0x118 JUMPI PUSH0 SLOAD PUSH1 0x40 MLOAD PUSH1 0x1 PUSH1 0x1 PUSH1 0xA0 SHL SUB SWAP1 SWAP2 AND DUP2 MSTORE PUSH1 0x20 SWAP1 RETURN JUMPDEST CALLVALUE PUSH2 0x118 JUMPI PUSH0 CALLDATASIZE PUSH1 0x3 NOT ADD SLT PUSH2 0x118 JUMPI PUSH1 0x3 SLOAD PUSH1 0x40 MLOAD PUSH1 0x1 PUSH1 0x1 PUSH1 0xA0 SHL SUB SWAP1 SWAP2 AND DUP2 MSTORE PUSH1 0x20 SWAP1 RETURN JUMPDEST CALLVALUE PUSH2 0x118 JUMPI PUSH0 CALLDATASIZE PUSH1 0x3 NOT ADD SLT PUSH2 0x118 JUMPI PUSH1 0x2 SLOAD PUSH1 0x40 MLOAD PUSH1 0x1 PUSH1 0x1 PUSH1 0xA0 SHL SUB SWAP1 SWAP2 AND DUP2 MSTORE PUSH1 0x20 SWAP1 RETURN JUMPDEST CALLVALUE PUSH2 0x118 JUMPI PUSH0 CALLDATASIZE PUSH1 0x3 NOT ADD SLT PUSH2 0x118 JUMPI PUSH2 0x368 PUSH2 0x452 JUMP JUMPDEST PUSH0 DUP1 SLOAD PUSH1 0x1 PUSH1 0x1 PUSH1 0xA0 SHL SUB NOT DUP2 AND DUP3 SSTORE PUSH1 0x1 PUSH1 0x1 PUSH1 0xA0 SHL SUB AND PUSH32 0x8BE0079C531659141344CD1FD0A4F28419497F9722A3DAAFE3B4186F6B6457E0 DUP3 DUP1 LOG3 STOP JUMPDEST CALLVALUE PUSH2 0x118 JUMPI PUSH1 0x20 CALLDATASIZE PUSH1 0x3 NOT ADD SLT PUSH2 0x118 JUMPI PUSH1 0x4 CALLDATALOAD PUSH1 0x1 PUSH1 0x1 PUSH1 0xA0 SHL SUB DUP2 AND SWAP1 DUP2 SWAP1 SUB PUSH2 0x118 JUMPI PUSH2 0x3D5 PUSH2 0x452 JUMP JUMPDEST PUSH1 0x3 DUP1 SLOAD PUSH1 0x1 PUSH1 0x1 PUSH1 0xA0 SHL SUB NOT AND DUP3 OR SWAP1 SSTORE PUSH1 0x40 MLOAD PUSH11 0x20AA2A22A9AA20AA24A7A7 PUSH1 0xA9 SHL SWAP1 MSTORE PUSH32 0xC46037FE928CF6716A48E4F9530CBD057A6FB9DDD40B7CBBA4CA8C6B3D4CDB5B PUSH0 MLOAD PUSH1 0x20 PUSH2 0x479 PUSH0 CODECOPY PUSH0 MLOAD SWAP1 PUSH0 MSTORE PUSH0 DUP1 LOG3 STOP JUMPDEST CALLVALUE PUSH2 0x118 JUMPI PUSH0 CALLDATASIZE PUSH1 0x3 NOT ADD SLT PUSH2 0x118 JUMPI PUSH1 0x1 SLOAD PUSH1 0x1 PUSH1 0x1 PUSH1 0xA0 SHL SUB AND DUP2 MSTORE PUSH1 0x20 SWAP1 RETURN JUMPDEST PUSH0 SLOAD PUSH1 0x1 PUSH1 0x1 PUSH1 0xA0 SHL SUB AND CALLER SUB PUSH2 0x465 JUMPI JUMP JUMPDEST PUSH4 0x118CDAA7 PUSH1 0xE0 SHL PUSH0 MSTORE CALLER PUSH1 0x4 MSTORE PUSH1 0x24 PUSH0 REVERT INVALID 0xF6 GT INVALID 0xC7 0xBA 0xBE REVERT 0x25 SWAP13 JUMPI 0xEA JUMPDEST PUSH1 0x6 0xAC SELFDESTRUCT DUP2 BLOCKHASH 0xAB OR 0xBB DUP2 PUSH13 0x65BA0AA7E36C09CAA8A2646970 PUSH7 0x7358221220A94F SWAP5 PUSH8 0x7574075BD4BAD964 0x2F 0x2B PUSH25 0x6FD1AAAF647F716583F29BA0BF43EBEDAD64736F6C63430008 SHR STOP CALLER "},"methodIdentifiers":{"attestationContract()":"87be6d4e","escrowContract()":"e42a96e7","identityContract()":"67031bae","owner()":"8da5cb5b","renounceOwnership()":"715018a6","reputationContract()":"87bc1425","setAttestationContract(address)":"69b0281a","setEscrowContract(address)":"f42375b5","setIdentityContract(address)":"e6d5864b","setReputationContract(address)":"9584660f","transferOwnership(address)":"f2fde38b"}}}}}