{
  "_format": "hh3-artifact-1",
  "contractName": "VeritasIdentityNFT",
  "sourceName": "contracts/VeritasIdentityNFT.sol",
  "abi": [
    {
      "inputs": [],
      "stateMutability": "nonpayable",
      "type": "constructor"
    },
    {
      "inputs": [],
      "name": "AccessControlBadConfirmation",
      "type": "error"
    },
    {
      "inputs": [
        {
          "internalType": "address",
          "name": "account",
          "type": "address"
        },
        {
          "internalType": "bytes32",
          "name": "neededRole",
          "type": "bytes32"
        }
      ],
      "name": "AccessControlUnauthorizedAccount",
      "type": "error"
    },
    {
      "inputs": [
        {
          "internalType": "address",
          "name": "sender",
          "type": "address"
        },
        {
          "internalType": "uint256",
          "name": "tokenId",
          "type": "uint256"
        },
        {
          "internalType": "address",
          "name": "owner",
          "type": "address"
        }
      ],
      "name": "ERC721IncorrectOwner",
      "type": "error"
    },
    {
      "inputs": [
        {
          "internalType": "address",
          "name": "operator",
          "type": "address"
        },
        {
          "internalType": "uint256",
          "name": "tokenId",
          "type": "uint256"
        }
      ],
      "name": "ERC721InsufficientApproval",
      "type": "error"
    },
    {
      "inputs": [
        {
          "internalType": "address",
          "name": "approver",
          "type": "address"
        }
      ],
      "name": "ERC721InvalidApprover",
      "type": "error"
    },
    {
      "inputs": [
        {
          "internalType": "address",
          "name": "operator",
          "type": "address"
        }
      ],
      "name": "ERC721InvalidOperator",
      "type": "error"
    },
    {
      "inputs": [
        {
          "internalType": "address",
          "name": "owner",
          "type": "address"
        }
      ],
      "name": "ERC721InvalidOwner",
      "type": "error"
    },
    {
      "inputs": [
        {
          "internalType": "address",
          "name": "receiver",
          "type": "address"
        }
      ],
      "name": "ERC721InvalidReceiver",
      "type": "error"
    },
    {
      "inputs": [
        {
          "internalType": "address",
          "name": "sender",
          "type": "address"
        }
      ],
      "name": "ERC721InvalidSender",
      "type": "error"
    },
    {
      "inputs": [
        {
          "internalType": "uint256",
          "name": "tokenId",
          "type": "uint256"
        }
      ],
      "name": "ERC721NonexistentToken",
      "type": "error"
    },
    {
      "anonymous": false,
      "inputs": [
        {
          "indexed": true,
          "internalType": "address",
          "name": "owner",
          "type": "address"
        },
        {
          "indexed": true,
          "internalType": "address",
          "name": "approved",
          "type": "address"
        },
        {
          "indexed": true,
          "internalType": "uint256",
          "name": "tokenId",
          "type": "uint256"
        }
      ],
      "name": "Approval",
      "type": "event"
    },
    {
      "anonymous": false,
      "inputs": [
        {
          "indexed": true,
          "internalType": "address",
          "name": "owner",
          "type": "address"
        },
        {
          "indexed": true,
          "internalType": "address",
          "name": "operator",
          "type": "address"
        },
        {
          "indexed": false,
          "internalType": "bool",
          "name": "approved",
          "type": "bool"
        }
      ],
      "name": "ApprovalForAll",
      "type": "event"
    },
    {
      "anonymous": false,
      "inputs": [
        {
          "indexed": true,
          "internalType": "bytes32",
          "name": "role",
          "type": "bytes32"
        },
        {
          "indexed": true,
          "internalType": "bytes32",
          "name": "previousAdminRole",
          "type": "bytes32"
        },
        {
          "indexed": true,
          "internalType": "bytes32",
          "name": "newAdminRole",
          "type": "bytes32"
        }
      ],
      "name": "RoleAdminChanged",
      "type": "event"
    },
    {
      "anonymous": false,
      "inputs": [
        {
          "indexed": true,
          "internalType": "bytes32",
          "name": "role",
          "type": "bytes32"
        },
        {
          "indexed": true,
          "internalType": "address",
          "name": "account",
          "type": "address"
        },
        {
          "indexed": true,
          "internalType": "address",
          "name": "sender",
          "type": "address"
        }
      ],
      "name": "RoleGranted",
      "type": "event"
    },
    {
      "anonymous": false,
      "inputs": [
        {
          "indexed": true,
          "internalType": "bytes32",
          "name": "role",
          "type": "bytes32"
        },
        {
          "indexed": true,
          "internalType": "address",
          "name": "account",
          "type": "address"
        },
        {
          "indexed": true,
          "internalType": "address",
          "name": "sender",
          "type": "address"
        }
      ],
      "name": "RoleRevoked",
      "type": "event"
    },
    {
      "anonymous": false,
      "inputs": [
        {
          "indexed": true,
          "internalType": "address",
          "name": "from",
          "type": "address"
        },
        {
          "indexed": true,
          "internalType": "address",
          "name": "to",
          "type": "address"
        },
        {
          "indexed": true,
          "internalType": "uint256",
          "name": "tokenId",
          "type": "uint256"
        }
      ],
      "name": "Transfer",
      "type": "event"
    },
    {
      "inputs": [],
      "name": "DEFAULT_ADMIN_ROLE",
      "outputs": [
        {
          "internalType": "bytes32",
          "name": "",
          "type": "bytes32"
        }
      ],
      "stateMutability": "view",
      "type": "function"
    },
    {
      "inputs": [],
      "name": "VERIFIER_ROLE",
      "outputs": [
        {
          "internalType": "bytes32",
          "name": "",
          "type": "bytes32"
        }
      ],
      "stateMutability": "view",
      "type": "function"
    },
    {
      "inputs": [
        {
          "internalType": "address",
          "name": "to",
          "type": "address"
        },
        {
          "internalType": "uint256",
          "name": "tokenId",
          "type": "uint256"
        }
      ],
      "name": "approve",
      "outputs": [],
      "stateMutability": "nonpayable",
      "type": "function"
    },
    {
      "inputs": [
        {
          "internalType": "address",
          "name": "owner",
          "type": "address"
        }
      ],
      "name": "balanceOf",
      "outputs": [
        {
          "internalType": "uint256",
          "name": "",
          "type": "uint256"
        }
      ],
      "stateMutability": "view",
      "type": "function"
    },
    {
      "inputs": [
        {
          "internalType": "uint256",
          "name": "tokenId",
          "type": "uint256"
        }
      ],
      "name": "getApproved",
      "outputs": [
        {
          "internalType": "address",
          "name": "",
          "type": "address"
        }
      ],
      "stateMutability": "view",
      "type": "function"
    },
    {
      "inputs": [
        {
          "internalType": "bytes32",
          "name": "role",
          "type": "bytes32"
        }
      ],
      "name": "getRoleAdmin",
      "outputs": [
        {
          "internalType": "bytes32",
          "name": "",
          "type": "bytes32"
        }
      ],
      "stateMutability": "view",
      "type": "function"
    },
    {
      "inputs": [
        {
          "internalType": "uint256",
          "name": "tokenId",
          "type": "uint256"
        }
      ],
      "name": "getVerificationLevel",
      "outputs": [
        {
          "internalType": "enum VeritasIdentityNFT.VerificationLevel",
          "name": "",
          "type": "uint8"
        }
      ],
      "stateMutability": "view",
      "type": "function"
    },
    {
      "inputs": [
        {
          "internalType": "bytes32",
          "name": "role",
          "type": "bytes32"
        },
        {
          "internalType": "address",
          "name": "account",
          "type": "address"
        }
      ],
      "name": "grantRole",
      "outputs": [],
      "stateMutability": "nonpayable",
      "type": "function"
    },
    {
      "inputs": [
        {
          "internalType": "address",
          "name": "",
          "type": "address"
        }
      ],
      "name": "hasIdentity",
      "outputs": [
        {
          "internalType": "bool",
          "name": "",
          "type": "bool"
        }
      ],
      "stateMutability": "view",
      "type": "function"
    },
    {
      "inputs": [
        {
          "internalType": "bytes32",
          "name": "role",
          "type": "bytes32"
        },
        {
          "internalType": "address",
          "name": "account",
          "type": "address"
        }
      ],
      "name": "hasRole",
      "outputs": [
        {
          "internalType": "bool",
          "name": "",
          "type": "bool"
        }
      ],
      "stateMutability": "view",
      "type": "function"
    },
    {
      "inputs": [
        {
          "internalType": "uint256",
          "name": "",
          "type": "uint256"
        }
      ],
      "name": "identityData",
      "outputs": [
        {
          "internalType": "string",
          "name": "metadataURI",
          "type": "string"
        },
        {
          "internalType": "enum VeritasIdentityNFT.VerificationLevel",
          "name": "level",
          "type": "uint8"
        },
        {
          "internalType": "uint256",
          "name": "createdAt",
          "type": "uint256"
        }
      ],
      "stateMutability": "view",
      "type": "function"
    },
    {
      "inputs": [
        {
          "internalType": "address",
          "name": "owner",
          "type": "address"
        },
        {
          "internalType": "address",
          "name": "operator",
          "type": "address"
        }
      ],
      "name": "isApprovedForAll",
      "outputs": [
        {
          "internalType": "bool",
          "name": "",
          "type": "bool"
        }
      ],
      "stateMutability": "view",
      "type": "function"
    },
    {
      "inputs": [
        {
          "internalType": "address",
          "name": "to",
          "type": "address"
        },
        {
          "internalType": "string",
          "name": "metadataURI",
          "type": "string"
        }
      ],
      "name": "mint",
      "outputs": [],
      "stateMutability": "nonpayable",
      "type": "function"
    },
    {
      "inputs": [],
      "name": "name",
      "outputs": [
        {
          "internalType": "string",
          "name": "",
          "type": "string"
        }
      ],
      "stateMutability": "view",
      "type": "function"
    },
    {
      "inputs": [],
      "name": "nextTokenId",
      "outputs": [
        {
          "internalType": "uint256",
          "name": "",
          "type": "uint256"
        }
      ],
      "stateMutability": "view",
      "type": "function"
    },
    {
      "inputs": [
        {
          "internalType": "uint256",
          "name": "tokenId",
          "type": "uint256"
        }
      ],
      "name": "ownerOf",
      "outputs": [
        {
          "internalType": "address",
          "name": "",
          "type": "address"
        }
      ],
      "stateMutability": "view",
      "type": "function"
    },
    {
      "inputs": [
        {
          "internalType": "bytes32",
          "name": "role",
          "type": "bytes32"
        },
        {
          "internalType": "address",
          "name": "callerConfirmation",
          "type": "address"
        }
      ],
      "name": "renounceRole",
      "outputs": [],
      "stateMutability": "nonpayable",
      "type": "function"
    },
    {
      "inputs": [
        {
          "internalType": "bytes32",
          "name": "role",
          "type": "bytes32"
        },
        {
          "internalType": "address",
          "name": "account",
          "type": "address"
        }
      ],
      "name": "revokeRole",
      "outputs": [],
      "stateMutability": "nonpayable",
      "type": "function"
    },
    {
      "inputs": [
        {
          "internalType": "address",
          "name": "from",
          "type": "address"
        },
        {
          "internalType": "address",
          "name": "to",
          "type": "address"
        },
        {
          "internalType": "uint256",
          "name": "tokenId",
          "type": "uint256"
        }
      ],
      "name": "safeTransferFrom",
      "outputs": [],
      "stateMutability": "nonpayable",
      "type": "function"
    },
    {
      "inputs": [
        {
          "internalType": "address",
          "name": "from",
          "type": "address"
        },
        {
          "internalType": "address",
          "name": "to",
          "type": "address"
        },
        {
          "internalType": "uint256",
          "name": "tokenId",
          "type": "uint256"
        },
        {
          "internalType": "bytes",
          "name": "data",
          "type": "bytes"
        }
      ],
      "name": "safeTransferFrom",
      "outputs": [],
      "stateMutability": "nonpayable",
      "type": "function"
    },
    {
      "inputs": [
        {
          "internalType": "address",
          "name": "operator",
          "type": "address"
        },
        {
          "internalType": "bool",
          "name": "approved",
          "type": "bool"
        }
      ],
      "name": "setApprovalForAll",
      "outputs": [],
      "stateMutability": "nonpayable",
      "type": "function"
    },
    {
      "inputs": [
        {
          "internalType": "uint256",
          "name": "tokenId",
          "type": "uint256"
        },
        {
          "internalType": "enum VeritasIdentityNFT.VerificationLevel",
          "name": "level",
          "type": "uint8"
        }
      ],
      "name": "setVerificationLevel",
      "outputs": [],
      "stateMutability": "nonpayable",
      "type": "function"
    },
    {
      "inputs": [
        {
          "internalType": "bytes4",
          "name": "interfaceId",
          "type": "bytes4"
        }
      ],
      "name": "supportsInterface",
      "outputs": [
        {
          "internalType": "bool",
          "name": "",
          "type": "bool"
        }
      ],
      "stateMutability": "view",
      "type": "function"
    },
    {
      "inputs": [],
      "name": "symbol",
      "outputs": [
        {
          "internalType": "string",
          "name": "",
          "type": "string"
        }
      ],
      "stateMutability": "view",
      "type": "function"
    },
    {
      "inputs": [
        {
          "internalType": "uint256",
          "name": "tokenId",
          "type": "uint256"
        }
      ],
      "name": "tokenURI",
      "outputs": [
        {
          "internalType": "string",
          "name": "",
          "type": "string"
        }
      ],
      "stateMutability": "view",
      "type": "function"
    },
    {
      "inputs": [
        {
          "internalType": "address",
          "name": "from",
          "type": "address"
        },
        {
          "internalType": "address",
          "name": "to",
          "type": "address"
        },
        {
          "internalType": "uint256",
          "name": "tokenId",
          "type": "uint256"
        }
      ],
      "name": "transferFrom",
      "outputs": [],
      "stateMutability": "nonpayable",
      "type": "function"
    }
  ],
  "bytecode": "0x608060405234801561000f575f5ffd5b506040518060400160405280601081526020017f56657269746173204964656e74697479000000000000000000000000000000008152506040518060400160405280600381526020017f5649440000000000000000000000000000000000000000000000000000000000815250815f908161008a9190610484565b50806001908161009a9190610484565b5050506100af5f5f1b336100e660201b60201c565b506100e07f0ce23c3e399818cfee81a7ab0880f714e53d7672b08df0fa62f2843416e1ea09336100e660201b60201c565b50610553565b5f6100f783836101dc60201b60201c565b6101d257600160065f8581526020019081526020015f205f015f8473ffffffffffffffffffffffffffffffffffffffff1673ffffffffffffffffffffffffffffffffffffffff1681526020019081526020015f205f6101000a81548160ff02191690831515021790555061016f61024060201b60201c565b73ffffffffffffffffffffffffffffffffffffffff168273ffffffffffffffffffffffffffffffffffffffff16847f2f8788117e7eff1d82e926ec794901d17c78024a50270940304540a733656f0d60405160405180910390a4600190506101d6565b5f90505b92915050565b5f60065f8481526020019081526020015f205f015f8373ffffffffffffffffffffffffffffffffffffffff1673ffffffffffffffffffffffffffffffffffffffff1681526020019081526020015f205f9054906101000a900460ff16905092915050565b5f33905090565b5f81519050919050565b7f4e487b71000000000000000000000000000000000000000000000000000000005f52604160045260245ffd5b7f4e487b71000000000000000000000000000000000000000000000000000000005f52602260045260245ffd5b5f60028204905060018216806102c257607f821691505b6020821081036102d5576102d461027e565b5b50919050565b5f819050815f5260205f209050919050565b5f6020601f8301049050919050565b5f82821b905092915050565b5f600883026103377fffffffffffffffffffffffffffffffffffffffffffffffffffffffffffffffff826102fc565b61034186836102fc565b95508019841693508086168417925050509392505050565b5f819050919050565b5f819050919050565b5f61038561038061037b84610359565b610362565b610359565b9050919050565b5f819050919050565b61039e8361036b565b6103b26103aa8261038c565b848454610308565b825550505050565b5f5f905090565b6103c96103ba565b6103d4818484610395565b505050565b5b818110156103f7576103ec5f826103c1565b6001810190506103da565b5050565b601f82111561043c5761040d816102db565b610416846102ed565b81016020851015610425578190505b610439610431856102ed565b8301826103d9565b50505b505050565b5f82821c905092915050565b5f61045c5f1984600802610441565b1980831691505092915050565b5f610474838361044d565b9150826002028217905092915050565b61048d82610247565b67ffffffffffffffff8111156104a6576104a5610251565b5b6104b082546102ab565b6104bb8282856103fb565b5f60209050601f8311600181146104ec575f84156104da578287015190505b6104e48582610469565b86555061054b565b601f1984166104fa866102db565b5f5b82811015610521578489015182556001820191506020850194506020810190506104fc565b8683101561053e578489015161053a601f89168261044d565b8355505b6001600288020188555050505b505050505050565b612e0f806105605f395ff3fe608060405234801561000f575f5ffd5b506004361061018c575f3560e01c806391d14854116100dc578063cd55356a11610095578063d547741f1161006f578063d547741f146104b4578063e7705db6146104d0578063e985e9c5146104ee578063f23b90361461051e5761018c565b8063cd55356a1461044c578063d0def5211461047c578063d451d471146104985761018c565b806391d148541461037857806395d89b41146103a8578063a217fddf146103c6578063a22cb465146103e4578063b88d4fde14610400578063c87b56dd1461041c5761018c565b8063248a9ca31161014957806342842e0e1161012357806342842e0e146102de5780636352211e146102fa57806370a082311461032a57806375794a3c1461035a5761018c565b8063248a9ca3146102765780632f2ff15d146102a657806336568abe146102c25761018c565b806301ffc9a71461019057806306fdde03146101c0578063081812fc146101de578063095ea7b31461020e578063237f1a211461022a57806323b872dd1461025a575b5f5ffd5b6101aa60048036038101906101a5919061201d565b610550565b6040516101b79190612062565b60405180910390f35b6101c8610571565b6040516101d591906120eb565b60405180910390f35b6101f860048036038101906101f3919061213e565b610600565b60405161020591906121a8565b60405180910390f35b610228600480360381019061022391906121eb565b61061b565b005b610244600480360381019061023f9190612229565b610631565b6040516102519190612062565b60405180910390f35b610274600480360381019061026f9190612254565b61064e565b005b610290600480360381019061028b91906122d7565b61074d565b60405161029d9190612311565b60405180910390f35b6102c060048036038101906102bb919061232a565b61076a565b005b6102dc60048036038101906102d7919061232a565b61078c565b005b6102f860048036038101906102f39190612254565b610807565b005b610314600480360381019061030f919061213e565b610826565b60405161032191906121a8565b60405180910390f35b610344600480360381019061033f9190612229565b610837565b6040516103519190612377565b60405180910390f35b6103626108ed565b60405161036f9190612377565b60405180910390f35b610392600480360381019061038d919061232a565b6108f3565b60405161039f9190612062565b60405180910390f35b6103b0610957565b6040516103bd91906120eb565b60405180910390f35b6103ce6109e7565b6040516103db9190612311565b60405180910390f35b6103fe60048036038101906103f991906123ba565b6109ed565b005b61041a60048036038101906104159190612524565b610a03565b005b6104366004803603810190610431919061213e565b610a28565b60405161044391906120eb565b60405180910390f35b6104666004803603810190610461919061213e565b610b41565b6040516104739190612617565b60405180910390f35b610496600480360381019061049191906126ce565b610be0565b005b6104b260048036038101906104ad919061274b565b610da4565b005b6104ce60048036038101906104c9919061232a565b610e84565b005b6104d8610ea6565b6040516104e59190612311565b60405180910390f35b61050860048036038101906105039190612789565b610eca565b6040516105159190612062565b60405180910390f35b6105386004803603810190610533919061213e565b610f58565b604051610547939291906127c7565b60405180910390f35b5f61055a82611010565b8061056a5750610569826110f1565b5b9050919050565b60605f805461057f90612830565b80601f01602080910402602001604051908101604052809291908181526020018280546105ab90612830565b80156105f65780601f106105cd576101008083540402835291602001916105f6565b820191905f5260205f20905b8154815290600101906020018083116105d957829003601f168201915b5050505050905090565b5f61060a8261116a565b50610614826111f0565b9050919050565b61062d8282610628611229565b611230565b5050565b6009602052805f5260405f205f915054906101000a900460ff1681565b5f73ffffffffffffffffffffffffffffffffffffffff168273ffffffffffffffffffffffffffffffffffffffff16036106be575f6040517f64a0ae920000000000000000000000000000000000000000000000000000000081526004016106b591906121a8565b60405180910390fd5b5f6106d183836106cc611229565b611242565b90508373ffffffffffffffffffffffffffffffffffffffff168173ffffffffffffffffffffffffffffffffffffffff1614610747578382826040517f64283d7b00000000000000000000000000000000000000000000000000000000815260040161073e93929190612860565b60405180910390fd5b50505050565b5f60065f8381526020019081526020015f20600101549050919050565b6107738261074d565b61077c816112d7565b61078683836112eb565b50505050565b610794611229565b73ffffffffffffffffffffffffffffffffffffffff168173ffffffffffffffffffffffffffffffffffffffff16146107f8576040517f6697b23200000000000000000000000000000000000000000000000000000000815260040160405180910390fd5b61080282826113d5565b505050565b61082183838360405180602001604052805f815250610a03565b505050565b5f6108308261116a565b9050919050565b5f5f73ffffffffffffffffffffffffffffffffffffffff168273ffffffffffffffffffffffffffffffffffffffff16036108a8575f6040517f89c62b6400000000000000000000000000000000000000000000000000000000815260040161089f91906121a8565b60405180910390fd5b60035f8373ffffffffffffffffffffffffffffffffffffffff1673ffffffffffffffffffffffffffffffffffffffff1681526020019081526020015f20549050919050565b60075481565b5f60065f8481526020019081526020015f205f015f8373ffffffffffffffffffffffffffffffffffffffff1673ffffffffffffffffffffffffffffffffffffffff1681526020019081526020015f205f9054906101000a900460ff16905092915050565b60606001805461096690612830565b80601f016020809104026020016040519081016040528092919081815260200182805461099290612830565b80156109dd5780601f106109b4576101008083540402835291602001916109dd565b820191905f5260205f20905b8154815290600101906020018083116109c057829003601f168201915b5050505050905090565b5f5f1b81565b6109ff6109f8611229565b83836114bf565b5050565b610a0e84848461064e565b610a22610a19611229565b85858585611698565b50505050565b60605f73ffffffffffffffffffffffffffffffffffffffff16610a4a83611844565b73ffffffffffffffffffffffffffffffffffffffff1603610aa0576040517f08c379a0000000000000000000000000000000000000000000000000000000008152600401610a97906128df565b60405180910390fd5b60085f8381526020019081526020015f205f018054610abe90612830565b80601f0160208091040260200160405190810160405280929190818152602001828054610aea90612830565b8015610b355780601f10610b0c57610100808354040283529160200191610b35565b820191905f5260205f20905b815481529060010190602001808311610b1857829003601f168201915b50505050509050919050565b5f5f73ffffffffffffffffffffffffffffffffffffffff16610b6283611844565b73ffffffffffffffffffffffffffffffffffffffff1603610bb8576040517f08c379a0000000000000000000000000000000000000000000000000000000008152600401610baf906128df565b60405180910390fd5b60085f8381526020019081526020015f206001015f9054906101000a900460ff169050919050565b7f0ce23c3e399818cfee81a7ab0880f714e53d7672b08df0fa62f2843416e1ea09610c0a816112d7565b60095f8473ffffffffffffffffffffffffffffffffffffffff1673ffffffffffffffffffffffffffffffffffffffff1681526020019081526020015f205f9054906101000a900460ff1615610c94576040517f08c379a0000000000000000000000000000000000000000000000000000000008152600401610c8b90612947565b60405180910390fd5b5f6007549050610ca4848261187d565b60405180606001604052808481526020015f6004811115610cc857610cc76125a4565b5b81526020014281525060085f8381526020019081526020015f205f820151815f019081610cf59190612b05565b506020820151816001015f6101000a81548160ff02191690836004811115610d2057610d1f6125a4565b5b021790555060408201518160020155905050600160095f8673ffffffffffffffffffffffffffffffffffffffff1673ffffffffffffffffffffffffffffffffffffffff1681526020019081526020015f205f6101000a81548160ff02191690831515021790555060075f815480929190610d9990612c01565b919050555050505050565b7f0ce23c3e399818cfee81a7ab0880f714e53d7672b08df0fa62f2843416e1ea09610dce816112d7565b5f73ffffffffffffffffffffffffffffffffffffffff16610dee84611844565b73ffffffffffffffffffffffffffffffffffffffff1603610e44576040517f08c379a0000000000000000000000000000000000000000000000000000000008152600401610e3b906128df565b60405180910390fd5b8160085f8581526020019081526020015f206001015f6101000a81548160ff02191690836004811115610e7a57610e796125a4565b5b0217905550505050565b610e8d8261074d565b610e96816112d7565b610ea083836113d5565b50505050565b7f0ce23c3e399818cfee81a7ab0880f714e53d7672b08df0fa62f2843416e1ea0981565b5f60055f8473ffffffffffffffffffffffffffffffffffffffff1673ffffffffffffffffffffffffffffffffffffffff1681526020019081526020015f205f8373ffffffffffffffffffffffffffffffffffffffff1673ffffffffffffffffffffffffffffffffffffffff1681526020019081526020015f205f9054906101000a900460ff16905092915050565b6008602052805f5260405f205f91509050805f018054610f7790612830565b80601f0160208091040260200160405190810160405280929190818152602001828054610fa390612830565b8015610fee5780601f10610fc557610100808354040283529160200191610fee565b820191905f5260205f20905b815481529060010190602001808311610fd157829003601f168201915b505050505090806001015f9054906101000a900460ff16908060020154905083565b5f7f80ac58cd000000000000000000000000000000000000000000000000000000007bffffffffffffffffffffffffffffffffffffffffffffffffffffffff1916827bffffffffffffffffffffffffffffffffffffffffffffffffffffffff191614806110da57507f5b5e139f000000000000000000000000000000000000000000000000000000007bffffffffffffffffffffffffffffffffffffffffffffffffffffffff1916827bffffffffffffffffffffffffffffffffffffffffffffffffffffffff1916145b806110ea57506110e98261189a565b5b9050919050565b5f7f7965db0b000000000000000000000000000000000000000000000000000000007bffffffffffffffffffffffffffffffffffffffffffffffffffffffff1916827bffffffffffffffffffffffffffffffffffffffffffffffffffffffff19161480611163575061116282611010565b5b9050919050565b5f5f61117583611844565b90505f73ffffffffffffffffffffffffffffffffffffffff168173ffffffffffffffffffffffffffffffffffffffff16036111e757826040517f7e2732890000000000000000000000000000000000000000000000000000000081526004016111de9190612377565b60405180910390fd5b80915050919050565b5f60045f8381526020019081526020015f205f9054906101000a900473ffffffffffffffffffffffffffffffffffffffff169050919050565b5f33905090565b61123d8383836001611903565b505050565b5f5f61124d84611844565b90505f73ffffffffffffffffffffffffffffffffffffffff168173ffffffffffffffffffffffffffffffffffffffff16036112955761128d858585611ac2565b9150506112d0565b6040517f08c379a00000000000000000000000000000000000000000000000000000000081526004016112c790612c92565b60405180910390fd5b9392505050565b6112e8816112e3611229565b611ccd565b50565b5f6112f683836108f3565b6113cb57600160065f8581526020019081526020015f205f015f8473ffffffffffffffffffffffffffffffffffffffff1673ffffffffffffffffffffffffffffffffffffffff1681526020019081526020015f205f6101000a81548160ff021916908315150217905550611368611229565b73ffffffffffffffffffffffffffffffffffffffff168273ffffffffffffffffffffffffffffffffffffffff16847f2f8788117e7eff1d82e926ec794901d17c78024a50270940304540a733656f0d60405160405180910390a4600190506113cf565b5f90505b92915050565b5f6113e083836108f3565b156114b5575f60065f8581526020019081526020015f205f015f8473ffffffffffffffffffffffffffffffffffffffff1673ffffffffffffffffffffffffffffffffffffffff1681526020019081526020015f205f6101000a81548160ff021916908315150217905550611452611229565b73ffffffffffffffffffffffffffffffffffffffff168273ffffffffffffffffffffffffffffffffffffffff16847ff6391f5c32d9c69d2a47ea670b442974b53935d1edc7fd64eb21e047a839171b60405160405180910390a4600190506114b9565b5f90505b92915050565b5f73ffffffffffffffffffffffffffffffffffffffff168373ffffffffffffffffffffffffffffffffffffffff160361152f575f6040517fa9fbf51f00000000000000000000000000000000000000000000000000000000815260040161152691906121a8565b60405180910390fd5b5f73ffffffffffffffffffffffffffffffffffffffff168273ffffffffffffffffffffffffffffffffffffffff160361159f57816040517f5b08ba1800000000000000000000000000000000000000000000000000000000815260040161159691906121a8565b60405180910390fd5b8060055f8573ffffffffffffffffffffffffffffffffffffffff1673ffffffffffffffffffffffffffffffffffffffff1681526020019081526020015f205f8473ffffffffffffffffffffffffffffffffffffffff1673ffffffffffffffffffffffffffffffffffffffff1681526020019081526020015f205f6101000a81548160ff0219169083151502179055508173ffffffffffffffffffffffffffffffffffffffff168373ffffffffffffffffffffffffffffffffffffffff167f17307eab39ab6107e8899845ad3d59bd9653f200f220920489ca2b5937696c318360405161168b9190612062565b60405180910390a3505050565b5f8373ffffffffffffffffffffffffffffffffffffffff163b111561183d578273ffffffffffffffffffffffffffffffffffffffff1663150b7a02868685856040518563ffffffff1660e01b81526004016116f69493929190612d02565b6020604051808303815f875af192505050801561173157506040513d601f19601f8201168201806040525081019061172e9190612d60565b60015b6117b2573d805f811461175f576040519150601f19603f3d011682016040523d82523d5f602084013e611764565b606091505b505f8151036117aa57836040517f64a0ae920000000000000000000000000000000000000000000000000000000081526004016117a191906121a8565b60405180910390fd5b805160208201fd5b63150b7a0260e01b7bffffffffffffffffffffffffffffffffffffffffffffffffffffffff1916817bffffffffffffffffffffffffffffffffffffffffffffffffffffffff19161461183b57836040517f64a0ae9200000000000000000000000000000000000000000000000000000000815260040161183291906121a8565b60405180910390fd5b505b5050505050565b5f60025f8381526020019081526020015f205f9054906101000a900473ffffffffffffffffffffffffffffffffffffffff169050919050565b611896828260405180602001604052805f815250611d1e565b5050565b5f7f01ffc9a7000000000000000000000000000000000000000000000000000000007bffffffffffffffffffffffffffffffffffffffffffffffffffffffff1916827bffffffffffffffffffffffffffffffffffffffffffffffffffffffff1916149050919050565b808061193b57505f73ffffffffffffffffffffffffffffffffffffffff168273ffffffffffffffffffffffffffffffffffffffff1614155b15611a6d575f61194a8461116a565b90505f73ffffffffffffffffffffffffffffffffffffffff168373ffffffffffffffffffffffffffffffffffffffff16141580156119b457508273ffffffffffffffffffffffffffffffffffffffff168173ffffffffffffffffffffffffffffffffffffffff1614155b80156119c757506119c58184610eca565b155b15611a0957826040517fa9fbf51f000000000000000000000000000000000000000000000000000000008152600401611a0091906121a8565b60405180910390fd5b8115611a6b57838573ffffffffffffffffffffffffffffffffffffffff168273ffffffffffffffffffffffffffffffffffffffff167f8c5be1e5ebec7d5bd14f71427d1e84f3dd0314c0f7b2291e5b200ac8c7c3b92560405160405180910390a45b505b8360045f8581526020019081526020015f205f6101000a81548173ffffffffffffffffffffffffffffffffffffffff021916908373ffffffffffffffffffffffffffffffffffffffff16021790555050505050565b5f5f611acd84611844565b90505f73ffffffffffffffffffffffffffffffffffffffff168373ffffffffffffffffffffffffffffffffffffffff1614611b0e57611b0d818486611d41565b5b5f73ffffffffffffffffffffffffffffffffffffffff168173ffffffffffffffffffffffffffffffffffffffff1614611b9957611b4d5f855f5f611903565b600160035f8373ffffffffffffffffffffffffffffffffffffffff1673ffffffffffffffffffffffffffffffffffffffff1681526020019081526020015f205f82825403925050819055505b5f73ffffffffffffffffffffffffffffffffffffffff168573ffffffffffffffffffffffffffffffffffffffff1614611c1857600160035f8773ffffffffffffffffffffffffffffffffffffffff1673ffffffffffffffffffffffffffffffffffffffff1681526020019081526020015f205f82825401925050819055505b8460025f8681526020019081526020015f205f6101000a81548173ffffffffffffffffffffffffffffffffffffffff021916908373ffffffffffffffffffffffffffffffffffffffff160217905550838573ffffffffffffffffffffffffffffffffffffffff168273ffffffffffffffffffffffffffffffffffffffff167fddf252ad1be2c89b69c2b068fc378daa952ba7f163c4a11628f55a4df523b3ef60405160405180910390a4809150509392505050565b611cd782826108f3565b611d1a5780826040517fe2517d3f000000000000000000000000000000000000000000000000000000008152600401611d11929190612d8b565b60405180910390fd5b5050565b611d288383611e04565b611d3c611d33611229565b5f858585611698565b505050565b611d4c838383611ef7565b611dff575f73ffffffffffffffffffffffffffffffffffffffff168373ffffffffffffffffffffffffffffffffffffffff1603611dc057806040517f7e273289000000000000000000000000000000000000000000000000000000008152600401611db79190612377565b60405180910390fd5b81816040517f177e802f000000000000000000000000000000000000000000000000000000008152600401611df6929190612db2565b60405180910390fd5b505050565b5f73ffffffffffffffffffffffffffffffffffffffff168273ffffffffffffffffffffffffffffffffffffffff1603611e74575f6040517f64a0ae92000000000000000000000000000000000000000000000000000000008152600401611e6b91906121a8565b60405180910390fd5b5f611e8083835f611242565b90505f73ffffffffffffffffffffffffffffffffffffffff168173ffffffffffffffffffffffffffffffffffffffff1614611ef2575f6040517f73c6ac6e000000000000000000000000000000000000000000000000000000008152600401611ee991906121a8565b60405180910390fd5b505050565b5f5f73ffffffffffffffffffffffffffffffffffffffff168373ffffffffffffffffffffffffffffffffffffffff1614158015611fae57508273ffffffffffffffffffffffffffffffffffffffff168473ffffffffffffffffffffffffffffffffffffffff161480611f6f5750611f6e8484610eca565b5b80611fad57508273ffffffffffffffffffffffffffffffffffffffff16611f95836111f0565b73ffffffffffffffffffffffffffffffffffffffff16145b5b90509392505050565b5f604051905090565b5f5ffd5b5f5ffd5b5f7fffffffff0000000000000000000000000000000000000000000000000000000082169050919050565b611ffc81611fc8565b8114612006575f5ffd5b50565b5f8135905061201781611ff3565b92915050565b5f6020828403121561203257612031611fc0565b5b5f61203f84828501612009565b91505092915050565b5f8115159050919050565b61205c81612048565b82525050565b5f6020820190506120755f830184612053565b92915050565b5f81519050919050565b5f82825260208201905092915050565b8281835e5f83830152505050565b5f601f19601f8301169050919050565b5f6120bd8261207b565b6120c78185612085565b93506120d7818560208601612095565b6120e0816120a3565b840191505092915050565b5f6020820190508181035f83015261210381846120b3565b905092915050565b5f819050919050565b61211d8161210b565b8114612127575f5ffd5b50565b5f8135905061213881612114565b92915050565b5f6020828403121561215357612152611fc0565b5b5f6121608482850161212a565b91505092915050565b5f73ffffffffffffffffffffffffffffffffffffffff82169050919050565b5f61219282612169565b9050919050565b6121a281612188565b82525050565b5f6020820190506121bb5f830184612199565b92915050565b6121ca81612188565b81146121d4575f5ffd5b50565b5f813590506121e5816121c1565b92915050565b5f5f6040838503121561220157612200611fc0565b5b5f61220e858286016121d7565b925050602061221f8582860161212a565b9150509250929050565b5f6020828403121561223e5761223d611fc0565b5b5f61224b848285016121d7565b91505092915050565b5f5f5f6060848603121561226b5761226a611fc0565b5b5f612278868287016121d7565b9350506020612289868287016121d7565b925050604061229a8682870161212a565b9150509250925092565b5f819050919050565b6122b6816122a4565b81146122c0575f5ffd5b50565b5f813590506122d1816122ad565b92915050565b5f602082840312156122ec576122eb611fc0565b5b5f6122f9848285016122c3565b91505092915050565b61230b816122a4565b82525050565b5f6020820190506123245f830184612302565b92915050565b5f5f604083850312156123405761233f611fc0565b5b5f61234d858286016122c3565b925050602061235e858286016121d7565b9150509250929050565b6123718161210b565b82525050565b5f60208201905061238a5f830184612368565b92915050565b61239981612048565b81146123a3575f5ffd5b50565b5f813590506123b481612390565b92915050565b5f5f604083850312156123d0576123cf611fc0565b5b5f6123dd858286016121d7565b92505060206123ee858286016123a6565b9150509250929050565b5f5ffd5b5f5ffd5b7f4e487b71000000000000000000000000000000000000000000000000000000005f52604160045260245ffd5b612436826120a3565b810181811067ffffffffffffffff8211171561245557612454612400565b5b80604052505050565b5f612467611fb7565b9050612473828261242d565b919050565b5f67ffffffffffffffff82111561249257612491612400565b5b61249b826120a3565b9050602081019050919050565b828183375f83830152505050565b5f6124c86124c384612478565b61245e565b9050828152602081018484840111156124e4576124e36123fc565b5b6124ef8482856124a8565b509392505050565b5f82601f83011261250b5761250a6123f8565b5b813561251b8482602086016124b6565b91505092915050565b5f5f5f5f6080858703121561253c5761253b611fc0565b5b5f612549878288016121d7565b945050602061255a878288016121d7565b935050604061256b8782880161212a565b925050606085013567ffffffffffffffff81111561258c5761258b611fc4565b5b612598878288016124f7565b91505092959194509250565b7f4e487b71000000000000000000000000000000000000000000000000000000005f52602160045260245ffd5b600581106125e2576125e16125a4565b5b50565b5f8190506125f2826125d1565b919050565b5f612601826125e5565b9050919050565b612611816125f7565b82525050565b5f60208201905061262a5f830184612608565b92915050565b5f67ffffffffffffffff82111561264a57612649612400565b5b612653826120a3565b9050602081019050919050565b5f61267261266d84612630565b61245e565b90508281526020810184848401111561268e5761268d6123fc565b5b6126998482856124a8565b509392505050565b5f82601f8301126126b5576126b46123f8565b5b81356126c5848260208601612660565b91505092915050565b5f5f604083850312156126e4576126e3611fc0565b5b5f6126f1858286016121d7565b925050602083013567ffffffffffffffff81111561271257612711611fc4565b5b61271e858286016126a1565b9150509250929050565b60058110612734575f5ffd5b50565b5f8135905061274581612728565b92915050565b5f5f6040838503121561276157612760611fc0565b5b5f61276e8582860161212a565b925050602061277f85828601612737565b9150509250929050565b5f5f6040838503121561279f5761279e611fc0565b5b5f6127ac858286016121d7565b92505060206127bd858286016121d7565b9150509250929050565b5f6060820190508181035f8301526127df81866120b3565b90506127ee6020830185612608565b6127fb6040830184612368565b949350505050565b7f4e487b71000000000000000000000000000000000000000000000000000000005f52602260045260245ffd5b5f600282049050600182168061284757607f821691505b60208210810361285a57612859612803565b5b50919050565b5f6060820190506128735f830186612199565b6128806020830185612368565b61288d6040830184612199565b949350505050565b7f546f6b656e20646f6573206e6f742065786973740000000000000000000000005f82015250565b5f6128c9601483612085565b91506128d482612895565b602082019050919050565b5f6020820190508181035f8301526128f6816128bd565b9050919050565b7f5573657220616c726561647920686173206964656e74697479204e46540000005f82015250565b5f612931601d83612085565b915061293c826128fd565b602082019050919050565b5f6020820190508181035f83015261295e81612925565b9050919050565b5f819050815f5260205f209050919050565b5f6020601f8301049050919050565b5f82821b905092915050565b5f600883026129c17fffffffffffffffffffffffffffffffffffffffffffffffffffffffffffffffff82612986565b6129cb8683612986565b95508019841693508086168417925050509392505050565b5f819050919050565b5f612a06612a016129fc8461210b565b6129e3565b61210b565b9050919050565b5f819050919050565b612a1f836129ec565b612a33612a2b82612a0d565b848454612992565b825550505050565b5f5f905090565b612a4a612a3b565b612a55818484612a16565b505050565b5b81811015612a7857612a6d5f82612a42565b600181019050612a5b565b5050565b601f821115612abd57612a8e81612965565b612a9784612977565b81016020851015612aa6578190505b612aba612ab285612977565b830182612a5a565b50505b505050565b5f82821c905092915050565b5f612add5f1984600802612ac2565b1980831691505092915050565b5f612af58383612ace565b9150826002028217905092915050565b612b0e8261207b565b67ffffffffffffffff811115612b2757612b26612400565b5b612b318254612830565b612b3c828285612a7c565b5f60209050601f831160018114612b6d575f8415612b5b578287015190505b612b658582612aea565b865550612bcc565b601f198416612b7b86612965565b5f5b82811015612ba257848901518255600182019150602085019450602081019050612b7d565b86831015612bbf5784890151612bbb601f891682612ace565b8355505b6001600288020188555050505b505050505050565b7f4e487b71000000000000000000000000000000000000000000000000000000005f52601160045260245ffd5b5f612c0b8261210b565b91507fffffffffffffffffffffffffffffffffffffffffffffffffffffffffffffffff8203612c3d57612c3c612bd4565b5b600182019050919050565b7f4964656e74697479204e465420697320736f756c626f756e64000000000000005f82015250565b5f612c7c601983612085565b9150612c8782612c48565b602082019050919050565b5f6020820190508181035f830152612ca981612c70565b9050919050565b5f81519050919050565b5f82825260208201905092915050565b5f612cd482612cb0565b612cde8185612cba565b9350612cee818560208601612095565b612cf7816120a3565b840191505092915050565b5f608082019050612d155f830187612199565b612d226020830186612199565b612d2f6040830185612368565b8181036060830152612d418184612cca565b905095945050505050565b5f81519050612d5a81611ff3565b92915050565b5f60208284031215612d7557612d74611fc0565b5b5f612d8284828501612d4c565b91505092915050565b5f604082019050612d9e5f830185612199565b612dab6020830184612302565b9392505050565b5f604082019050612dc55f830185612199565b612dd26020830184612368565b939250505056fea26469706673582212207788ce54e8f93ba326b8beafa5451b8a4e1d98fd4aac63b69088026bf34e2d3a64736f6c634300081c0033",
  "linkReferences": {},
  "deployedLinkReferences": {},
  "immutableReferences": {},
  "inputSourceName": "project/contracts/VeritasIdentityNFT.sol",
  "buildInfoId": "solc-0_8_28-7671da5f3a746b42d388d373fb68565e9d4d0e31"
}