{
  "_format": "hh3-artifact-1",
  "contractName": "VeritasIdentityNFT",
  "sourceName": "contracts/VeritasIdentityNFT.sol",
  "abi": [
    {
      "inputs": [],
      "stateMutability": "nonpayable",
      "type": "constructor"
    },
    {
      "inputs": [],
      "name": "AccessControlBadConfirmation",
      "type": "error"
    },
    {
      "inputs": [
        {
          "internalType": "address",
          "name": "account",
          "type": "address"
        },
        {
          "internalType": "bytes32",
          "name": "neededRole",
          "type": "bytes32"
        }
      ],
      "name": "AccessControlUnauthorizedAccount",
      "type": "error"
    },
    {
      "inputs": [
        {
          "internalType": "address",
          "name": "sender",
          "type": "address"
        },
        {
          "internalType": "uint256",
          "name": "tokenId",
          "type": "uint256"
        },
        {
          "internalType": "address",
          "name": "owner",
          "type": "address"
        }
      ],
      "name": "ERC721IncorrectOwner",
      "type": "error"
    },
    {
      "inputs": [
        {
          "internalType": "address",
          "name": "operator",
          "type": "address"
        },
        {
          "internalType": "uint256",
          "name": "tokenId",
          "type": "uint256"
        }
      ],
      "name": "ERC721InsufficientApproval",
      "type": "error"
    },
    {
      "inputs": [
        {
          "internalType": "address",
          "name": "approver",
          "type": "address"
        }
      ],
      "name": "ERC721InvalidApprover",
      "type": "error"
    },
    {
      "inputs": [
        {
          "internalType": "address",
          "name": "operator",
          "type": "address"
        }
      ],
      "name": "ERC721InvalidOperator",
      "type": "error"
    },
    {
      "inputs": [
        {
          "internalType": "address",
          "name": "owner",
          "type": "address"
        }
      ],
      "name": "ERC721InvalidOwner",
      "type": "error"
    },
    {
      "inputs": [
        {
          "internalType": "address",
          "name": "receiver",
          "type": "address"
        }
      ],
      "name": "ERC721InvalidReceiver",
      "type": "error"
    },
    {
      "inputs": [
        {
          "internalType": "address",
          "name": "sender",
          "type": "address"
        }
      ],
      "name": "ERC721InvalidSender",
      "type": "error"
    },
    {
      "inputs": [
        {
          "internalType": "uint256",
          "name": "tokenId",
          "type": "uint256"
        }
      ],
      "name": "ERC721NonexistentToken",
      "type": "error"
    },
    {
      "anonymous": false,
      "inputs": [
        {
          "indexed": true,
          "internalType": "address",
          "name": "owner",
          "type": "address"
        },
        {
          "indexed": true,
          "internalType": "address",
          "name": "approved",
          "type": "address"
        },
        {
          "indexed": true,
          "internalType": "uint256",
          "name": "tokenId",
          "type": "uint256"
        }
      ],
      "name": "Approval",
      "type": "event"
    },
    {
      "anonymous": false,
      "inputs": [
        {
          "indexed": true,
          "internalType": "address",
          "name": "owner",
          "type": "address"
        },
        {
          "indexed": true,
          "internalType": "address",
          "name": "operator",
          "type": "address"
        },
        {
          "indexed": false,
          "internalType": "bool",
          "name": "approved",
          "type": "bool"
        }
      ],
      "name": "ApprovalForAll",
      "type": "event"
    },
    {
      "anonymous": false,
      "inputs": [
        {
          "indexed": true,
          "internalType": "bytes32",
          "name": "role",
          "type": "bytes32"
        },
        {
          "indexed": true,
          "internalType": "bytes32",
          "name": "previousAdminRole",
          "type": "bytes32"
        },
        {
          "indexed": true,
          "internalType": "bytes32",
          "name": "newAdminRole",
          "type": "bytes32"
        }
      ],
      "name": "RoleAdminChanged",
      "type": "event"
    },
    {
      "anonymous": false,
      "inputs": [
        {
          "indexed": true,
          "internalType": "bytes32",
          "name": "role",
          "type": "bytes32"
        },
        {
          "indexed": true,
          "internalType": "address",
          "name": "account",
          "type": "address"
        },
        {
          "indexed": true,
          "internalType": "address",
          "name": "sender",
          "type": "address"
        }
      ],
      "name": "RoleGranted",
      "type": "event"
    },
    {
      "anonymous": false,
      "inputs": [
        {
          "indexed": true,
          "internalType": "bytes32",
          "name": "role",
          "type": "bytes32"
        },
        {
          "indexed": true,
          "internalType": "address",
          "name": "account",
          "type": "address"
        },
        {
          "indexed": true,
          "internalType": "address",
          "name": "sender",
          "type": "address"
        }
      ],
      "name": "RoleRevoked",
      "type": "event"
    },
    {
      "anonymous": false,
      "inputs": [
        {
          "indexed": true,
          "internalType": "address",
          "name": "from",
          "type": "address"
        },
        {
          "indexed": true,
          "internalType": "address",
          "name": "to",
          "type": "address"
        },
        {
          "indexed": true,
          "internalType": "uint256",
          "name": "tokenId",
          "type": "uint256"
        }
      ],
      "name": "Transfer",
      "type": "event"
    },
    {
      "inputs": [],
      "name": "DEFAULT_ADMIN_ROLE",
      "outputs": [
        {
          "internalType": "bytes32",
          "name": "",
          "type": "bytes32"
        }
      ],
      "stateMutability": "view",
      "type": "function"
    },
    {
      "inputs": [],
      "name": "ISSUER_ROLE",
      "outputs": [
        {
          "internalType": "bytes32",
          "name": "",
          "type": "bytes32"
        }
      ],
      "stateMutability": "view",
      "type": "function"
    },
    {
      "inputs": [
        {
          "internalType": "address",
          "name": "to",
          "type": "address"
        },
        {
          "internalType": "uint256",
          "name": "tokenId",
          "type": "uint256"
        }
      ],
      "name": "approve",
      "outputs": [],
      "stateMutability": "nonpayable",
      "type": "function"
    },
    {
      "inputs": [
        {
          "internalType": "address",
          "name": "owner",
          "type": "address"
        }
      ],
      "name": "balanceOf",
      "outputs": [
        {
          "internalType": "uint256",
          "name": "",
          "type": "uint256"
        }
      ],
      "stateMutability": "view",
      "type": "function"
    },
    {
      "inputs": [
        {
          "internalType": "uint256",
          "name": "tokenId",
          "type": "uint256"
        }
      ],
      "name": "burnIdentity",
      "outputs": [],
      "stateMutability": "nonpayable",
      "type": "function"
    },
    {
      "inputs": [
        {
          "internalType": "uint256",
          "name": "tokenId",
          "type": "uint256"
        }
      ],
      "name": "getApproved",
      "outputs": [
        {
          "internalType": "address",
          "name": "",
          "type": "address"
        }
      ],
      "stateMutability": "view",
      "type": "function"
    },
    {
      "inputs": [
        {
          "internalType": "bytes32",
          "name": "role",
          "type": "bytes32"
        }
      ],
      "name": "getRoleAdmin",
      "outputs": [
        {
          "internalType": "bytes32",
          "name": "",
          "type": "bytes32"
        }
      ],
      "stateMutability": "view",
      "type": "function"
    },
    {
      "inputs": [
        {
          "internalType": "bytes32",
          "name": "role",
          "type": "bytes32"
        },
        {
          "internalType": "address",
          "name": "account",
          "type": "address"
        }
      ],
      "name": "grantRole",
      "outputs": [],
      "stateMutability": "nonpayable",
      "type": "function"
    },
    {
      "inputs": [
        {
          "internalType": "bytes32",
          "name": "role",
          "type": "bytes32"
        },
        {
          "internalType": "address",
          "name": "account",
          "type": "address"
        }
      ],
      "name": "hasRole",
      "outputs": [
        {
          "internalType": "bool",
          "name": "",
          "type": "bool"
        }
      ],
      "stateMutability": "view",
      "type": "function"
    },
    {
      "inputs": [
        {
          "internalType": "address",
          "name": "owner",
          "type": "address"
        },
        {
          "internalType": "address",
          "name": "operator",
          "type": "address"
        }
      ],
      "name": "isApprovedForAll",
      "outputs": [
        {
          "internalType": "bool",
          "name": "",
          "type": "bool"
        }
      ],
      "stateMutability": "view",
      "type": "function"
    },
    {
      "inputs": [
        {
          "internalType": "address",
          "name": "to",
          "type": "address"
        },
        {
          "internalType": "string",
          "name": "metadataURI",
          "type": "string"
        }
      ],
      "name": "mintIdentity",
      "outputs": [
        {
          "internalType": "uint256",
          "name": "",
          "type": "uint256"
        }
      ],
      "stateMutability": "nonpayable",
      "type": "function"
    },
    {
      "inputs": [],
      "name": "name",
      "outputs": [
        {
          "internalType": "string",
          "name": "",
          "type": "string"
        }
      ],
      "stateMutability": "view",
      "type": "function"
    },
    {
      "inputs": [
        {
          "internalType": "uint256",
          "name": "tokenId",
          "type": "uint256"
        }
      ],
      "name": "ownerOf",
      "outputs": [
        {
          "internalType": "address",
          "name": "",
          "type": "address"
        }
      ],
      "stateMutability": "view",
      "type": "function"
    },
    {
      "inputs": [
        {
          "internalType": "bytes32",
          "name": "role",
          "type": "bytes32"
        },
        {
          "internalType": "address",
          "name": "callerConfirmation",
          "type": "address"
        }
      ],
      "name": "renounceRole",
      "outputs": [],
      "stateMutability": "nonpayable",
      "type": "function"
    },
    {
      "inputs": [
        {
          "internalType": "bytes32",
          "name": "role",
          "type": "bytes32"
        },
        {
          "internalType": "address",
          "name": "account",
          "type": "address"
        }
      ],
      "name": "revokeRole",
      "outputs": [],
      "stateMutability": "nonpayable",
      "type": "function"
    },
    {
      "inputs": [
        {
          "internalType": "address",
          "name": "from",
          "type": "address"
        },
        {
          "internalType": "address",
          "name": "to",
          "type": "address"
        },
        {
          "internalType": "uint256",
          "name": "tokenId",
          "type": "uint256"
        }
      ],
      "name": "safeTransferFrom",
      "outputs": [],
      "stateMutability": "nonpayable",
      "type": "function"
    },
    {
      "inputs": [
        {
          "internalType": "address",
          "name": "from",
          "type": "address"
        },
        {
          "internalType": "address",
          "name": "to",
          "type": "address"
        },
        {
          "internalType": "uint256",
          "name": "tokenId",
          "type": "uint256"
        },
        {
          "internalType": "bytes",
          "name": "data",
          "type": "bytes"
        }
      ],
      "name": "safeTransferFrom",
      "outputs": [],
      "stateMutability": "nonpayable",
      "type": "function"
    },
    {
      "inputs": [
        {
          "internalType": "address",
          "name": "operator",
          "type": "address"
        },
        {
          "internalType": "bool",
          "name": "approved",
          "type": "bool"
        }
      ],
      "name": "setApprovalForAll",
      "outputs": [],
      "stateMutability": "nonpayable",
      "type": "function"
    },
    {
      "inputs": [
        {
          "internalType": "bytes4",
          "name": "interfaceId",
          "type": "bytes4"
        }
      ],
      "name": "supportsInterface",
      "outputs": [
        {
          "internalType": "bool",
          "name": "",
          "type": "bool"
        }
      ],
      "stateMutability": "view",
      "type": "function"
    },
    {
      "inputs": [],
      "name": "symbol",
      "outputs": [
        {
          "internalType": "string",
          "name": "",
          "type": "string"
        }
      ],
      "stateMutability": "view",
      "type": "function"
    },
    {
      "inputs": [
        {
          "internalType": "uint256",
          "name": "tokenId",
          "type": "uint256"
        }
      ],
      "name": "tokenURI",
      "outputs": [
        {
          "internalType": "string",
          "name": "",
          "type": "string"
        }
      ],
      "stateMutability": "view",
      "type": "function"
    },
    {
      "inputs": [
        {
          "internalType": "address",
          "name": "from",
          "type": "address"
        },
        {
          "internalType": "address",
          "name": "to",
          "type": "address"
        },
        {
          "internalType": "uint256",
          "name": "tokenId",
          "type": "uint256"
        }
      ],
      "name": "transferFrom",
      "outputs": [],
      "stateMutability": "nonpayable",
      "type": "function"
    }
  ],
  "bytecode": "0x60806040523461032857604080519081016001600160401b0381118282101761023e576040908152601082526f56657269746173204964656e7469747960801b602083015280519081016001600160401b0381118282101761023e57604052600381526215925160ea1b602082015281516001600160401b03811161023e575f54600181811c9116801561031e575b602082101461022057601f81116102bc575b50602092601f821160011461025d57928192935f92610252575b50508160011b915f199060031b1c1916175f555b80516001600160401b03811161023e57600154600181811c91168015610234575b602082101461022057601f81116101bd575b50602091601f821160011461015d579181925f92610152575b50508160011b915f199060031b1c1916176001555b6101383361032c565b50610142336103a2565b5060405161155090816104368239f35b015190505f8061011a565b601f1982169260015f52805f20915f5b8581106101a55750836001951061018d575b505050811b0160015561012f565b01515f1960f88460031b161c191690555f808061017f565b9192602060018192868501518155019401920161016d565b60015f527fb10e2d527612073b26eecdfd717e6a320cf44b4afac2b0732d9fcbe2b7fa0cf6601f830160051c81019160208410610216575b601f0160051c01905b81811061020b5750610101565b5f81556001016101fe565b90915081906101f5565b634e487b7160e01b5f52602260045260245ffd5b90607f16906100ef565b634e487b7160e01b5f52604160045260245ffd5b015190505f806100ba565b601f198216935f8052805f20915f5b8681106102a4575083600195961061028c575b505050811b015f556100ce565b01515f1960f88460031b161c191690555f808061027f565b9192602060018192868501518155019401920161026c565b5f80527f290decd9548b62a8d60345a988386fc84ba6bc95484008f6362f93160ef3e563601f830160051c81019160208410610314575b601f0160051c01905b81811061030957506100a0565b5f81556001016102fc565b90915081906102f3565b90607f169061008e565b5f80fd5b6001600160a01b0381165f9081525f5160206119c65f395f51905f52602052604090205460ff1661039d576001600160a01b03165f8181525f5160206119c65f395f51905f5260205260408120805460ff191660011790553391905f5160206119865f395f51905f528180a4600190565b505f90565b6001600160a01b0381165f9081525f5160206119a65f395f51905f52602052604090205460ff1661039d576001600160a01b03165f8181525f5160206119a65f395f51905f5260205260408120805460ff191660011790553391907f114e74f6ea3bd819998f78687bfcb11b140da08e9b7d222fa9c1f1ba1f2aa122905f5160206119865f395f51905f529080a460019056fe6080806040526004361015610012575f80fd5b5f3560e01c90816301ffc9a714610f015750806306fdde0314610e5f578063081812fc14610e23578063095ea7b314610d3957806323b872dd14610d22578063248a9ca314610cf75780632f2ff15d14610cb957806336568abe14610c7557806342842e0e14610c465780636352211e14610c1657806370a0823114610bc557806382aefa2414610b8b57806391d1485414610b4257806395d89b4114610a78578063a217fddf14610a5e578063a22cb465146109aa578063a96886f114610522578063b88d4fde146104b6578063c5d56ec7146102de578063c87b56dd146101ae578063d547741f146101695763e985e9c51461010e575f80fd5b3461016557604036600319011261016557610127610faa565b61012f610fc0565b9060018060a01b03165f52600560205260405f209060018060a01b03165f52602052602060ff60405f2054166040519015158152f35b5f80fd5b34610165576040366003190112610165576101ac600435610188610fc0565b906101a76101a2825f526006602052600160405f20015490565b6112ac565b611372565b005b34610165576020366003190112610165576004355f818152600260205260409020546001600160a01b0316156102a2575f52600860205260405f20604051905f908054906101fb82611084565b808552916001811690811561027b575060011461023b575b6102378461022381860382611010565b604051918291602083526020830190610f86565b0390f35b5f90815260208120939250905b8082106102615750909150810160200161022382610213565b919260018160209254838588010152019101909291610248565b60ff191660208087019190915292151560051b850190920192506102239150839050610213565b60405162461bcd60e51b8152602060048201526014602482015273151bdad95b88191bd95cc81b9bdd08195e1a5cdd60621b6044820152606490fd5b34610165576020366003190112610165576004356102fb8161128a565b336001600160a01b039091160361047f575f818152600260205260409020546001600160a01b0316151580610478575b610433575f818152600260205260409020546001600160a01b03168015908115610400575b5f83815260026020526040812080546001600160a01b03191690558390827fddf252ad1be2c89b69c2b068fc378daa952ba7f163c4a11628f55a4df523b3ef8280a4506103ee575f52600860205260405f206103ac8154611084565b90816103b457005b81601f5f93116001146103c5575055005b818352602083206103e191601f0160051c810190600101611274565b8082528160208120915555005b637e27328960e01b5f5260045260245ffd5b5f83815260046020526040902080546001600160a01b0319169055805f52600360205260405f205f198154019055610350565b60405162461bcd60e51b815260206004820152601d60248201527f536f756c626f756e643a207472616e73666572732064697361626c65640000006044820152606490fd5b505f61032b565b60405162461bcd60e51b815260206004820152600f60248201526e2737ba103a37b5b2b71037bbb732b960891b6044820152606490fd5b34610165576080366003190112610165576104cf610faa565b6104d7610fc0565b906044356064359267ffffffffffffffff84116101655736602385011215610165576105106101ac94369060248160040135910161104e565b9261051c8383836110bc565b336113f6565b346101655760403660031901126101655761053b610faa565b60243567ffffffffffffffff811161016557366023820112156101655761056c90369060248160040135910161104e565b335f9081527f702fe919a6a7971e34c596917a48306a624527a41d0aa0fcf43050b6a3053248602052604090205460ff1615610973576007545f19811461095f5760010190816007556020916040516105c58482611010565b5f81526001600160a01b03851694851561094c575f8381526002865260409020546001600160a01b0316151580610944575b6108ff575f8381526002865260409020546001600160a01b031680151590816108ce575b875f526003875260405f2060018154019055845f526002875260405f20886bffffffffffffffffffffffff60a01b8254161790558488827fddf252ad1be2c89b69c2b068fc378daa952ba7f163c4a11628f55a4df523b3ef5f80a4506108bb573b6107a3575b5080919293505f526008835260405f20825167ffffffffffffffff811161078f576106ac8254611084565b601f8111610756575b508493601f82116001146106f65793819293945f926106eb575b50508160011b915f199060031b1c19161790555b604051908152f35b0151905085806106cf565b601f19821694835f52865f20915f5b8888821061074057505083600195969710610728575b505050811b0190556106e3565b01515f1960f88460031b161c1916905585808061071b565b6001849582939585015181550194019201610705565b61077f90835f52865f20601f840160051c810191888510610785575b601f0160051c0190611274565b856106b5565b9091508190610772565b634e487b7160e01b5f52604160045260245ffd5b836107dc9160405180938192630a85bd0160e11b83523360048401525f6024840152866044840152608060648401526084830190610f86565b03815f895af15f918161087b575b50610841575050503d5f14610839573d9061080482611032565b916108126040519384611010565b82523d5f8284013e5b815191826108365783633250574960e11b5f5260045260245ffd5b01fd5b60609061081b565b929391929091906001600160e01b03191663757a42ff60e11b01610869575090829184610681565b633250574960e11b5f5260045260245ffd5b9091508481813d83116108b4575b6108938183611010565b8101031261016557516001600160e01b0319811681036101655790866107ea565b503d610889565b6339e3563760e11b5f525f60045260245ffd5b5f8581526004602052604080822080546001600160a01b031916905582825260038952902080545f1901905561061b565b60405162461bcd60e51b815260048101869052601d60248201527f536f756c626f756e643a207472616e73666572732064697361626c65640000006044820152606490fd5b5060016105f7565b633250574960e11b5f525f60045260245ffd5b634e487b7160e01b5f52601160045260245ffd5b63e2517d3f60e01b5f52336004527f114e74f6ea3bd819998f78687bfcb11b140da08e9b7d222fa9c1f1ba1f2aa12260245260445ffd5b34610165576040366003190112610165576109c3610faa565b60243590811515809203610165573315610a4b576001600160a01b0316908115610a3857335f52600560205260405f20825f5260205260405f2060ff1981541660ff83161790556040519081527f17307eab39ab6107e8899845ad3d59bd9653f200f220920489ca2b5937696c3160203392a3005b50630b61174360e31b5f5260045260245ffd5b63a9fbf51f60e01b5f525f60045260245ffd5b34610165575f3660031901126101655760206040515f8152f35b34610165575f366003190112610165576040515f600154610a9881611084565b8084529060018116908115610b1e5750600114610ac0575b6102378361022381850382611010565b91905060015f527fb10e2d527612073b26eecdfd717e6a320cf44b4afac2b0732d9fcbe2b7fa0cf6915f905b808210610b0457509091508101602001610223610ab0565b919260018160209254838588010152019101909291610aec565b60ff191660208086019190915291151560051b840190910191506102239050610ab0565b3461016557604036600319011261016557610b5b610fc0565b6004355f52600660205260405f209060018060a01b03165f52602052602060ff60405f2054166040519015158152f35b34610165575f3660031901126101655760206040517f114e74f6ea3bd819998f78687bfcb11b140da08e9b7d222fa9c1f1ba1f2aa1228152f35b34610165576020366003190112610165576001600160a01b03610be6610faa565b168015610c03575f526003602052602060405f2054604051908152f35b6322718ad960e21b5f525f60045260245ffd5b34610165576020366003190112610165576020610c3460043561128a565b6040516001600160a01b039091168152f35b34610165576101ac610c5736610fd6565b9060405192610c67602085611010565b5f845261051c8383836110bc565b3461016557604036600319011261016557610c8e610fc0565b336001600160a01b03821603610caa576101ac90600435611372565b63334bd91960e11b5f5260045ffd5b34610165576040366003190112610165576101ac600435610cd8610fc0565b90610cf26101a2825f526006602052600160405f20015490565b6112e6565b346101655760203660031901126101655760206106e36004355f526006602052600160405f20015490565b34610165576101ac610d3336610fd6565b916110bc565b3461016557604036600319011261016557610d52610faa565b602435610d5e8161128a565b33151580610e10575b80610de3575b610dd05781906001600160a01b0384811691167f8c5be1e5ebec7d5bd14f71427d1e84f3dd0314c0f7b2291e5b200ac8c7c3b9255f80a45f90815260046020526040902080546001600160a01b0319166001600160a01b03909216919091179055005b63a9fbf51f60e01b5f523360045260245ffd5b506001600160a01b0381165f90815260056020908152604080832033845290915290205460ff1615610d6d565b506001600160a01b038116331415610d67565b3461016557602036600319011261016557600435610e408161128a565b505f526004602052602060018060a01b0360405f205416604051908152f35b34610165575f366003190112610165576040515f5f54610e7e81611084565b8084529060018116908115610b1e5750600114610ea5576102378361022381850382611010565b5f8080527f290decd9548b62a8d60345a988386fc84ba6bc95484008f6362f93160ef3e563939250905b808210610ee757509091508101602001610223610ab0565b919260018160209254838588010152019101909291610ecf565b34610165576020366003190112610165576004359063ffffffff60e01b821680920361016557602091637965db0b60e01b8114908115610f43575b5015158152f35b6380ac58cd60e01b811491508115610f75575b8115610f64575b5083610f3c565b6301ffc9a760e01b14905083610f5d565b635b5e139f60e01b81149150610f56565b805180835260209291819084018484015e5f828201840152601f01601f1916010190565b600435906001600160a01b038216820361016557565b602435906001600160a01b038216820361016557565b6060906003190112610165576004356001600160a01b038116810361016557906024356001600160a01b0381168103610165579060443590565b90601f8019910116810190811067ffffffffffffffff82111761078f57604052565b67ffffffffffffffff811161078f57601f01601f191660200190565b92919261105a82611032565b916110686040519384611010565b829481845281830111610165578281602093845f960137010152565b90600182811c921680156110b2575b602083101461109e57565b634e487b7160e01b5f52602260045260245ffd5b91607f1691611093565b6001600160a01b039091169190821561094c575f828152600260205260409020546001600160a01b031615158061126c575b610433575f828152600260205260409020546001600160a01b0316928290331515806111d7575b50846111a4575b805f52600360205260405f2060018154019055815f52600260205260405f20816bffffffffffffffffffffffff60a01b825416179055847fddf252ad1be2c89b69c2b068fc378daa952ba7f163c4a11628f55a4df523b3ef5f80a46001600160a01b031680830361118c57505050565b6364283d7b60e01b5f5260045260245260445260645ffd5b5f82815260046020526040902080546001600160a01b0319169055845f52600360205260405f205f19815401905561111c565b9091508061121b575b156111ed5782905f611115565b828461120557637e27328960e01b5f5260045260245ffd5b63177e802f60e01b5f523360045260245260445ffd5b50338414801561124a575b806111e057505f838152600460205260409020546001600160a01b031633146111e0565b505f84815260056020908152604080832033845290915290205460ff16611226565b5060016110ee565b81811061127f575050565b5f8155600101611274565b5f818152600260205260409020546001600160a01b03169081156103ee575090565b5f81815260066020908152604080832033845290915290205460ff16156112d05750565b63e2517d3f60e01b5f523360045260245260445ffd5b5f8181526006602090815260408083206001600160a01b038616845290915290205460ff1661136c575f8181526006602090815260408083206001600160a01b0395909516808452949091528120805460ff19166001179055339291907f2f8788117e7eff1d82e926ec794901d17c78024a50270940304540a733656f0d9080a4600190565b50505f90565b5f8181526006602090815260408083206001600160a01b038616845290915290205460ff161561136c575f8181526006602090815260408083206001600160a01b0395909516808452949091528120805460ff19169055339291907ff6391f5c32d9c69d2a47ea670b442974b53935d1edc7fd64eb21e047a839171b9080a4600190565b823b611404575b5050505050565b604051630a85bd0160e11b81526001600160a01b039182166004820152918116602483015260448201939093526080606482015291169160209082908190611450906084830190610f86565b03815f865af15f91816114d5575b506114b357503d156114ac573d61147481611032565b906114826040519283611010565b81523d5f602083013e5b805190816114a75782633250574960e11b5f5260045260245ffd5b602001fd5b606061148c565b6001600160e01b03191663757a42ff60e11b0161086957505f808080806113fd565b9091506020813d602011611512575b816114f160209383611010565b8101031261016557516001600160e01b03198116810361016557905f61145e565b3d91506114e456fea2646970667358221220565b63dc1ac2f10c95828e8d7e1381cdabb91e8962c339484be7b73a726a72dd64736f6c634300081c00332f8788117e7eff1d82e926ec794901d17c78024a50270940304540a733656f0d702fe919a6a7971e34c596917a48306a624527a41d0aa0fcf43050b6a305324854cdd369e4e8a8515e52ca72ec816c2101831ad1f18bf44102ed171459c9b4f8",
  "linkReferences": {},
  "deployedLinkReferences": {},
  "immutableReferences": {},
  "inputSourceName": "project/contracts/VeritasIdentityNFT.sol",
  "buildInfoId": "solc-0_8_28-e0675bcde6ef6d30ac3139fd7554b0418a6d4939"
}